:020000040800F2
:1000000000000820512F00080D2D0008152D0008B4
:100010001D2D0008252D00082D2D000800000000D2
:10002000000000000000000000000000352D000866
:10003000432D000800000000512D00085F2D00082E
:10004000A12F0008A12F0008A12F0008A12F000850
:10005000A12F0008A12F0008A12F0008A12F000840
:10006000A12F0008A12F0008A12F0008A12F000830
:10007000B1670008A12F0008A12F0008A12F0008D8
:10008000A12F0008A12F0008A12F0008A12F000810
:10009000A12F0008A12F0008A12F0008A12F000800
:1000A000A12F0008DD680008A12F0008A12F00087B
:1000B0002D690008A12F0008A12F0008A12F00081A
:1000C000A12F0008A12F0008A12F0008A12F0008D0
:1000D000A12F0008A12F0008A12F0008A12F0008C0
:1000E000A12F0008A12F0008A12F0008A12F0008B0
:1000F000A12F0008A12F0008A12F0008A12F0008A0
:10010000A12F0008A12F0008A12F0008A12F00088F
:10011000A12F0008A12F0008A12F0008A12F00087F
:10012000712D0008A12F0008A12F0008A12F0008A1
:10013000A12F0008A12F0008A12F0008A12F00085F
:10014000A12F0008A12F0008A12F0008A12F00084F
:10015000852D0008A56A0008A12F0008932D00082E
:10016000A12F0008A12F0008A12F0008A12F00082F
:10017000A12F0008A12F0008A12F000800000000F7
:10018000A12F0008A12F0008A12F0008A12F00080F
:10019000A12F0008A12F0008A12F0008A12F0008FF
:1001A0000000000000000000A12F0008A12F00089F
:1001B000A12F0008A12F0008A12F0008A12F0008DF
:1001C000A12F0008A12F000800000000A12F0008A7
:1001D000A12F0008A12F0008A12F0008A12F0008BF
:1001E000A12F0008A12F0008A12F0008A12F0008AF
:0801F00000000000A12F00082F
:1002000010B5054C237833B9044B13B10448AFF350
:1002100000800123237010BD8843002000000000EF
:10022000A40C010808B5034B1BB103490348AFF305
:10023000008008BD000000008C430020A40C0108D1
:1002400010F8012B11F8013B012A28BF9A42F7D080
:10025000D01A7047000000000000000000000000FD
:1002600001F0FF01102A2BDB10F0070F08D010F867
:10027000013B013A8B422DD010F0070F42B3F6D16B
:10028000F0B441EA012141EA014122F007047FF084
:1002900000070023F0E80256083C85EA010586EADB
:1002A000010685FA47F5A3FA87F586FA47F6A5FA17
:1002B00087F68EB9EED1F0BC01F0FF0102F0070223
:1002C00032B110F8013B013A83EA010313B1F8D1CE
:1002D0000020704701387047002D06BF35460338AF
:1002E000073815F0010F07D1013015F4807F02BFE8
:1002F000013015F4C03F0130F0BC0138704700BF39
:10030000034613F8012B002AFBD1181A0138704755
:100310007BB972B90029BEBF00204FF0004106E052
:1003200008BF00281CBF6FF000414FF0FF3000F005
:10033000BBB9ADF1080C6DE904CE002909DB002B37
:100340001ADB00F035F8DDF804E0DDE9022304B043
:100350007047404261EB4101002B1BDB00F028F8A5
:10036000DDF804E0DDE9022304B0404261EB410125
:10037000524263EB43037047524263EB430300F086
:1003800017F8DDF804E0DDE9022304B0404261EB38
:1003900041017047524263EB430300F009F8DDF876
:1003A00004E0DDE9022304B0524263EB43037047EB
:1003B0002DE9F047089D8E4604468846002B4AD119
:1003C0008A42174662D9B2FA82F64EB1C6F12003CC
:1003D00001FA06F820FA03F3B74043EA0808B440EC
:1003E0004FEA174E1FFA87FCB8FBFEF1230C0EFBF9
:1003F000118843EA084301FB0CF29A4209D9FB1821
:1004000001F1FF3080F0EA809A4240F2E780023941
:100410003B449A1AA3B2B2FBFEF00EFB102243EA51
:10042000024300FB0CFC9C4509D9FB1800F1FF328C
:1004300080F0D6809C4540F2D3803B44023840EAAD
:100440000140A3EB0C0300211DB1F3400022C5E9DC
:100450000032BDE8F0878B4205D90DB1C5E9000136
:1004600000210846F5E7B3FA83F1002946D1734528
:1004700002D3824200F20581841A6EEB030201204E
:100480009046002DE5D0C5E90048E2E7002A00F0DB
:100490009080B2FA82F6002E40F0A4808A1A030CF3
:1004A0004FEA174E80B2BCB20121B2FBFEFC0EFB3C
:1004B0001C2243EA024304FB0CF29A4207D9FB18C0
:1004C0000CF1FF3802D29A4200F2E080C4469B1A37
:1004D000B3FBFEF20EFB123340EA034302FB04F4CB
:1004E0009C4207D9FB1802F1FF3002D29C4200F275
:1004F000CA8002461B1B42EA0C40A5E7C1F1200658
:100500008B4022FA06F71F430EFA01F420FA06F395
:100510002EFA06FE4FEA1749234300FA01F81FFAA4
:1005200087FCBEFBF9F01C0C09FB10EE44EA0E44FC
:1005300000FB0CFEA64502FA01F209D93C1900F1B4
:10054000FF3A80F09C80A64540F2998002383C44F6
:10055000A4EB0E041FFA83FEB4FBF9F309FB13446A
:100560004EEA044403FB0CFCA44508D93C1903F1F2
:10057000FF3E80F08280A4457FD9023B3C4443EAA1
:100580000040A4EB0C04A0FB02EC64457346E1467A
:1005900062D35FD05DB1B8EB030264EB090404FAE7
:1005A00006F622FA01F31E43CC40C5E9006400219F
:1005B0004FE7B1FBF2FC010C41EA0E4180B240EA88
:1005C00001423B4638463C46B846BE462026B1FB73
:1005D000F7F1A2EB080241EA0C4166E7014618E791
:1005E00010462CE7C6F120022EFA02F3B740B140C4
:1005F00020FA02F24FEA174E0A43B3FBFEF8BCB2F0
:100600000EFB1833110C41EA034108FB04F9B0401A
:1006100089454FEA104380B23ED9791808F1FF3C72
:1006200001D289451FD8A1EB0901B1FBFEF909FBF5
:1006300004F80EFB191192B242EA0142424529D256
:10064000BA1809F1FF31C4D24245C2D2A9F1020160
:100650003A44BEE7F0459DD2BEEB02036CEB070CBB
:100660000138E14696E7A7EB09094944A8F1020CD5
:10067000B1FBFEF909FB04F8DBE773467FE7504660
:1006800066E70846FDE63B44023A33E7ACF1020C6C
:100690003B441CE749469CE7A1EB0901C446B1FB7A
:1006A000FEF909FB04F8C4E7704700BF80B400AF4F
:1006B000044BDB681B0A03F007031846BD465DF8D0
:1006C000047B704700ED00E080B483B000AF0346C8
:1006D000FB7197F90730002B0BDBFB7903F01F024E
:1006E000074997F907305B09012000FA02F241F847
:1006F000232000BF0C37BD465DF8047B704700BF68
:1007000000E100E080B483B000AF03463960FB71C4
:1007100097F90730002B0ADB3B68DAB20C4997F9EE
:1007200007301201D2B20B4483F800230AE03B6881
:10073000DAB20849FB7903F00F03043B1201D2B28D
:100740000B441A7600BF0C37BD465DF8047B70473A
:1007500000E100E000ED00E080B489B000AFF86097
:10076000B9607A60FB6803F00703FB61FB69C3F1C2
:100770000703042B28BF0423BB61FB690433062B4A
:1007800002D9FB69033B00E000237B614FF0FF329D
:10079000BB6902FA03F3DA43BB681A407B699A40EB
:1007A0004FF0FF317B6901FA03F3D9437B680B40BB
:1007B000134318462437BD465DF8047B704700009C
:1007C00080B485B000AFF860B9607A600D4ABB684C
:1007D00013441B781A46FB6813441B6823F0C002BD
:1007E0000849BB680B441B781946FB680B44194643
:1007F0007B6813430B6000BF1437BD465DF8047B74
:10080000704700BFE422010880B485B000AFF860F3
:10081000B9607A600D4ABB6813441B781A46FB68BE
:1008200013441B6823F490720849BB680B441B787F
:100830001946FB680B4419467B6813430B6000BFE5
:100840001437BD465DF8047B704700BFE422010801
:1008500080B485B000AFF860B9607A600D4ABB68BB
:1008600013441B781A46FB6813441B6823F4007278
:100870000849BB680B441B781946FB680B441946B2
:100880007B6813430B6000BF1437BD465DF8047BE3
:10089000704700BFE422010880B485B000AFF86063
:1008A000B9607A600D4ABB6813441B781A46FB682E
:1008B00013441B6823F480620849BB680B441B780F
:1008C0001946FB680B4419467B6813430B6000BF55
:1008D0001437BD465DF8047B704700BFE422010871
:1008E00080B485B000AFF860B9607A600D4ABB682B
:1008F00013441B781A46FB6813441B6823F4C05248
:100900000849BB680B441B781946FB680B44194621
:100910007B6813430B6000BF1437BD465DF8047B52
:10092000704700BFE422010880B485B000AFF860D2
:10093000B9607A600D4ABB6813441B781A46FB689D
:1009400013441B6823F4C0420849BB680B441B785E
:100950001946FB680B4419467B6813430B6000BFC4
:100960001437BD465DF8047B704700BFE4220108E0
:1009700080B485B000AFF860B9607A600D4ABB689A
:1009800013441B781A46FB6813441B6823F4403257
:100990000849BB680B441B781946FB680B44194691
:1009A0007B6813430B6000BF1437BD465DF8047BC2
:1009B000704700BFE422010880B485B000AFF86042
:1009C000B9607A600D4ABB6813441B781A46FB680D
:1009D00013441B6823F0F0520849BB680B441B7892
:1009E0001946FB680B4419467B6813430B6000BF34
:1009F0001437BD465DF8047B704700BFE422010850
:100A000080B483B000AF786039600C4A3B6813440F
:100A10001B781A467B6813445B6908493A680A44A4
:100A2000127811467A680A4423F00403536100BF28
:100A30000C37BD465DF8047B704700BFE422010817
:100A400080B483B000AF78607B681B6843F001021C
:100A50007B681A6000BF0C37BD465DF8047B7047A9
:100A600080B483B000AF78607B681B6823F40032E9
:100A70007B681A6000BF0C37BD465DF8047B704789
:100A800080B483B000AF78607B681B6823F40022D9
:100A90007B681A6000BF0C37BD465DF8047B704769
:100AA00080B485B000AFF860B9607A60FB68DA683E
:100AB000064B1340B9687A680A431A43FB68DA6048
:100AC00000BF1437BD465DF8047B704701F8FFFF97
:100AD00080B483B000AF78607B68DB6823F40042A9
:100AE0007B68DA6000BF0C37BD465DF8047B704759
:100AF00080B483B000AF78607B685B6843F00072BD
:100B00007B685A6000BF0C37BD465DF8047B7047B8
:100B100080B400AF054B1B68044A43F48033136074
:100B200000BFBD465DF8047B704700BF003802403F
:100B300080B400AF074B1B6803F40033B3F5003FEC
:100B40000CBF01230023DBB21846BD465DF8047BD1
:100B5000704700BF0038024080B483B000AF7860B7
:100B6000064B9B6823F0030204497B6813438B60A8
:100B700000BF0C37BD465DF8047B7047003802406B
:100B800080B400AF044B9B6803F00C031846BD46CD
:100B90005DF8047B704700BF0038024080B483B02A
:100BA00000AF7860064B9B6823F0F00204497B6835
:100BB00013438B6000BF0C37BD465DF8047B704764
:100BC0000038024080B483B000AF7860064B9B6869
:100BD00023F4E05204497B6813438B6000BF0C3759
:100BE000BD465DF8047B70470038024080B483B096
:100BF00000AF7860064B9B6823F4604204497B6831
:100C000013438B6000BF0C37BD465DF8047B704713
:100C10000038024080B483B000AF7860094BD3F84D
:100C200090207B681B0CDB431A407B689BB2054914
:100C30001343C1F8903000BF0C37BD465DF8047B0C
:100C4000704700BF0038024080B483B000AF7860C6
:100C5000094BD3F890207B681B0CDB431A407B6860
:100C60009BB205491343C1F8903000BF0C37BD4615
:100C70005DF8047B704700BF0038024080B483B049
:100C800000AF7860094BD3F890207968084B0B408F
:100C9000DB431A407B681B0404491343C1F89030BE
:100CA00000BF0C37BD465DF8047B7047003802403A
:100CB0000000FFFF80B483B000AF7860074BD3F82B
:100CC0008C3023F0807205497B681343C1F88C3067
:100CD00000BF0C37BD465DF8047B7047003802400A
:100CE00080B400AF054B1B68044A43F08073136067
:100CF00000BFBD465DF8047B704700BF003802406E
:100D000080B400AF074B1B6803F00073B3F1007FA2
:100D10000CBF01230023DBB21846BD465DF8047BFF
:100D2000704700BF0038024080B485B000AFF86063
:100D3000B9607A603B600A4B5A680A4B1340F96805
:100D4000BA6811437A68920111433A680A43044928
:100D500013434B6000BF1437BD465DF8047B7047FA
:100D6000003802400080BCFF80B485B000AF7860DE
:100D7000084B1A6B07497B6813430B63054B1A6BCF
:100D80007B681340FB60FB6800BF1437BD465DF80D
:100D9000047B70470038024080B485B000AF7860B3
:100DA000084B1A6C07497B6813430B64054B1A6C9C
:100DB0007B681340FB60FB6800BF1437BD465DF8DD
:100DC000047B70470038024080B485B000AF786083
:100DD000084B5A6C07497B6813434B64054B5A6CAC
:100DE0007B681340FB60FB6800BF1437BD465DF8AD
:100DF000047B70470038024080B483B000AF786055
:100E0000064B1B6823F00F0204497B6813430B60F9
:100E100000BF0C37BD465DF8047B7047003C0240C4
:100E200080B400AF044B1B6803F00F031846BD46A7
:100E30005DF8047B704700BF003C024080B400AF07
:100E4000054B1B68044A43F48033136000BFBD4662
:100E50005DF8047B704700BF0070004080B483B031
:100E600000AF7860064B1B6823F4404204497B685E
:100E700013430B6000BF0C37BD465DF8047B704721
:100E80000070004080B400AF074B5B6803F4804300
:100E9000B3F5804F0CBF01230023DBB21846BD46DB
:100EA0005DF8047B704700BF0070004080B483B0E1
:100EB00000AF78607B681B6843F040027B681A6073
:100EC00000BF0C37BD465DF8047B704780B483B02B
:100ED00000AF786039607B685B6823F010023B6884
:100EE0001A437B685A6000BF0C37BD465DF8047B2F
:100EF000704780B483B000AF78607B685B6843F074
:100F000008027B685A6000BF0C37BD465DF8047B61
:100F1000704780B483B000AF78607B685B6823F073
:100F200008027B685A6000BF0C37BD465DF8047B41
:100F3000704780B483B000AF78607B681B6823F093
:100F400080027B681A6000BF0C37BD465DF8047BE9
:100F50007047000080B485B000AF786039603B68AE
:100F6000012B28D03B68042B23D03B68102B1ED0CC
:100F70003B68402B19D03B68B3F5807F13D03B68AA
:100F8000B3F5806F0DD03B68B3F5805F07D03B6849
:100F9000B3F5803F01D107230EE008230CE00623C0
:100FA0000AE0052308E0042306E0032304E002230B
:100FB00002E0012300E00023FB737B68183319462D
:100FC000FB7B0B4AD35C0B44BB60BB681A68FB7BA2
:100FD0000849CB5C194604238B40DB431A40BB68AD
:100FE0001A6000BF1437BD465DF8047B704700BF30
:100FF000EC220108F822010880B485B000AF7860C7
:1010000039603B68012B28D03B68042B23D03B6818
:10101000102B1ED03B68402B19D03B68B3F5807F66
:1010200013D03B68B3F5806F0DD03B68B3F5805F9C
:1010300007D03B68B3F5803F01D107230EE00823BA
:101040000CE006230AE0052308E0042306E003235E
:1010500004E0022302E0012300E00023FB737B682D
:1010600018331946FB7B0A4AD35C0B44BB60BB6850
:101070001A68FB7B0749CB5C194608238B401A434F
:10108000BB681A6000BF1437BD465DF8047B70472B
:10109000EC220108F822010880B483B000AF786028
:1010A00039607B689A68064B13403A681A437B683C
:1010B0009A6000BF0C37BD465DF8047B704700BFE7
:1010C000F8BFFEFF80B483B000AF786039607B6802
:1010D0005B6823F070023B681A437B685A6000BF6C
:1010E0000C37BD465DF8047B704780B483B000AF19
:1010F00078607B689B6823F080027B689A6000BF01
:101100000C37BD465DF8047B704780B483B000AFF8
:1011100078607B681B6843F001027B681A6000BF3F
:101120000C37BD465DF8047B704780B483B000AFD8
:10113000786039607B681B6823F4F8123B681B04F5
:101140001A437B681A6000BF0C37BD465DF8047B0C
:10115000704780B483B000AF786039607B681B68EB
:1011600023F078723B685B051A437B681A6000BF06
:101170000C37BD465DF8047B704780B483B000AF88
:1011800078607B689B6843F480427B689A6000BF0C
:101190000C37BD465DF8047B704780B483B000AF68
:1011A000786039607B689B6823F400423B681A438F
:1011B0007B689A6000BF0C37BD465DF8047B7047C2
:1011C00080B483B000AF78607B685B6823F49042A2
:1011D0007B685A607B689B6823F02A027B689A6070
:1011E00000BF0C37BD465DF8047B704780B483B008
:1011F00000AF786039607B683A689A6100BF0C374D
:10120000BD465DF8047B704780B483B000AF786062
:1012100039603B681A047B689A6100BF0C37BD4691
:101220005DF8047B704780B5AEB000AF09F0F8FC04
:1012300000F0A0F801F06AF901F024F900F046FA94
:1012400000F0B8FA00F02AFB00F0B4FB00F064FCF8
:1012500000F0E4F800F0DEFC00F0D8FE00F0B0FF93
:1012600000F056FD01F012F801F098F800F08AF94C
:1012700000F0DAF900F028FE00F07AFE05F0CCFB71
:1012800007F1A40300221A605A6007F1A40318466C
:1012900005F0F0FB07F1A403184605F0EBFB3B4615
:1012A0006E22002118460DF043FD0023C7F8B4302C
:1012B0000AE03A46D7F8B430134400221A70D7F83F
:1012C000B4300133C7F8B430D7F8B430632BF0D959
:1012D0003B461A466421002005F0BAFB00BF05F02A
:1012E000D7FB0346002BFAD00023C7F8B0300AE042
:1012F0003A46D7F8B030134400221A70D7F8B0300D
:101300000133C7F8B030D7F8B030632BF0D93B4683
:101310001A463221322005F09BFB00BF05F0B8FBD6
:101320000346002BFAD00023C7F8AC300AE03A4657
:10133000D7F8AC30134400221A70D7F8AC30013320
:10134000C7F8AC30D7F8AC30632BF0D93B461A461F
:101350003221002005F07CFB00BF05F099FB03461D
:10136000002BFAD001F01DFE01F027FE01F02FFE48
:1013700000BFFDE780B500AF0620FFF73DFD00BFD1
:10138000FFF74EFD0346062BFAD14FF44040FFF71E
:1013900065FDFFF753FDFFF7BBFB00BFFFF7C8FB81
:1013A0000346012BFAD10023C0220C214FF4800008
:1013B000FFF7BAFCFFF794FC00BFFFF7A1FC034660
:1013C000012BFAD100BFFFF75DFD0346002BFAD0D9
:1013D0000020FFF7E3FB4FF4A050FFF7F3FB4FF4BF
:1013E0000040FFF703FC0220FFF7B6FB00BFFFF74A
:1013F000C7FB0346082BFAD107480CF029FD0F2044
:1014000009F01CFC0346002B01D001F035FB002045
:10141000FFF750FC00BF80BD00C2EB0B80B584B06D
:1014200000AF3B4600221A605A609A60DA60524B65
:10143000524A1A60504B4FF480325A604E4B002291
:101440009A604D4B01221A614B4B00229A614A4B24
:10145000002283F82020484B0022DA62464B484A9B
:101460009A62454B0022DA60434B0822DA61424B14
:10147000012283F83020404B00225A613E4809F097
:101480002DFC0346002B01D001F0F6FA0A233B6045
:1014900001237B600123BB603B461946364809F0B7
:1014A00073FD0346002B01D001F0E6FA0B233B60ED
:1014B00002237B603B4619462F4809F065FD034631
:1014C000002B01D001F0D8FA0C233B6003237B6092
:1014D0003B461946284809F057FD0346002B01D02A
:1014E00001F0CAFA0D233B6004237B603B4619469A
:1014F000214809F049FD0346002B01D001F0BCFA58
:101500000E233B6005237B603B4619461A4809F0D1
:101510003BFD0346002B01D001F0AEFA0F233B60E8
:1015200006237B603B461946134809F02DFD034610
:10153000002B01D001F0A0FA08233B6007237B6059
:101540003B4619460C4809F01FFD0346002B01D00D
:1015500001F092FA09233B6008237B603B46194661
:10156000054809F011FD0346002B01D001F084FA73
:1015700000BF1037BD4680BDA443002000200140BD
:101580000100000F80B584B000AF3B4600221A6016
:101590005A609A60DA60214B214A1A601F4B4FF45F
:1015A00080325A601D4B00229A601C4B00221A6147
:1015B0001A4B00229A61194B002283F82020174B06
:1015C0000022DA62154B174A9A62144B0022DA6045
:1015D000124B0122DA61114B002283F830200F4BAD
:1015E00001225A610D4809F079FB0346002B01D016
:1015F00001F042FA02233B6001237B600023BB60C1
:101600003B461946054809F0BFFC0346002B01D0B4
:1016100001F032FA00BF1037BD4680BDEC43002018
:10162000002101400100000F80B584B000AF3B46AF
:1016300000221A605A609A60DA60214B214A1A60CF
:101640001F4B4FF480325A601D4B00229A601C4B96
:1016500000221A611A4B00229A61194B002283F86A
:101660002020174B0022DA62154B174A9A62144B5E
:101670000022DA60124B0122DA61114B002283F85A
:1016800030200F4B01225A610D4809F027FB034619
:10169000002B01D001F0F0F901233B6001237B60B6
:1016A0000023BB603B461946054809F06DFC034624
:1016B000002B01D001F0E0F900BF1037BD4680BD1E
:1016C00034440020002201400100000F80B58EB09C
:1016D00000AF07F11C0300221A605A609A60DA60BA
:1016E0001A615A619A613B1D00221A605A609A6021
:1016F000DA601A615A614FF44030FFF7BFFA0220F6
:10170000FFF732FB40237B600223BB600323FB60B7
:1017100001233B6100237B610423BB613B1D194610
:1017200021480BF032F980237B600223BB60032346
:10173000FB6001233B6100237B610423BB613B1DF4
:10174000194619480BF021F94FF40010FFF724FB5C
:101750001648FFF7CDF9002200211448FFF7A0F941
:101760001248FFF7B5F91148FFF78AF90F48FFF75C
:1017700077F90023FB610E4B3B6200237B62002361
:10178000BB620023FB6200233B6300237B6307F102
:101790001C03194605480BF00FFA0448FFF750F9EF
:1017A00000BF3837BD4680BD0004024000540040F1
:1017B000FF63106080B58EB000AF07F11C030022FC
:1017C0001A605A609A60DA601A615A619A613B1D28
:1017D00000221A605A609A60DA601A615A614FF406
:1017E0004020FFF74BFA0220FFF7BEFA4FF4806368
:1017F0007B600223BB600323FB6001233B6100236A
:101800007B610423BB613B1D194621480BF0BDF8E9
:101810004FF400637B600223BB600323FB60012362
:101820003B6100237B610423BB613B1D19461848C3
:101830000BF0ABF84FF48000FFF7AEFA1548FFF756
:1018400057F9002200211348FFF72AF91148FFF742
:101850003FF91048FFF714F90E48FFF701F900238C
:10186000FB610D4B3B6200237B620023BB620023C4
:10187000FB6200233B6300237B6307F11C031946D3
:1018800004480BF099F900BF3837BD4680BD00BF52
:101890000004024000580040FFEAC00080B590B04C
:1018A00000AF07F118032822002118460DF040FA76
:1018B0003B4600221A605A609A60DA601A615A61E7
:1018C0004FF48050FFF780FA0120FFF74DFA102304
:1018D0003B6002237B600323BB600023FB6000238B
:1018E0003B6105237B613B46194630480BF04DF8C0
:1018F00020233B6002237B600323BB600023FB604B
:1019000000233B6105237B613B46194627480BF0CA
:101910003CF840233B6002237B600323BB60002331
:10192000FB6000233B6105237B613B4619461F4852
:101930000BF02BF880233B6002237B600323BB600A
:101940000023FB6000233B6105237B613B46194676
:1019500016480BF01AF80023BB614FF48273FB6149
:101960004FF4E0633B6200237B620023BB620023F1
:10197000FB6200233B6300237B630023BB630723DD
:10198000FB6307F11803194609480BF0EDFC002131
:101990000748FFF79BFA0648FFF7ABFA0448FFF742
:1019A00085FA00BF4037BD4680BD00BF0000024041
:1019B0000030014080B590B000AF07F11803282235
:1019C000002118460DF0B4F93B4600221A605A6017
:1019D0009A60DA601A615A614FF48040FFF7DCF9CF
:1019E0000220FFF7C1F94FF400533B6002237B60F4
:1019F0000323BB600023FB6000233B6105237B6165
:101A00003B46194641480AF0C0FF4FF480433B6013
:101A100002237B600323BB600023FB6000233B6148
:101A200005237B613B46194638480AF0AEFF4FF468
:101A300000433B6002237B600323BB600023FB6009
:101A400000233B6105237B613B4619462F480AF082
:101A50009CFF4FF0905201212D48FEF7ADFF002270
:101A600001212B48FEF7ACFE4FF4403201212848FB
:101A7000FEF77EFF4FF4807201212548FEF7C4FE79
:101A8000002201212248FEF7E3FE4FF4806201218B
:101A90001F48FEF701FF4FF4006201211C48FEF7CA
:101AA0001FFF4FF4005201211948FEF73DFF0121AD
:101AB0001748FEF7A5FF0023BB614FF48273FB615B
:101AC0004FF470633B6200237B620023BB624FF4E0
:101AD0000073FB6200233B6300237B630023BB6333
:101AE0000723FB6307F1180319460A480BF03CFC77
:101AF00000210848FFF7EAF90648FFF7FAF9054818
:101B0000FFF7D4F900BF4037BD4680BD0004024056
:101B1000006002400038004080B590B000AF07F18F
:101B200018032822002118460DF002F93B46002236
:101B30001A605A609A60DA601A615A614FF4004084
:101B4000FFF72AF90420FFF70FF94FF480633B6099
:101B500002237B600323BB600023FB6000233B6107
:101B600006237B613B46194628480AF00EFF4FF4D6
:101B700000633B6002237B600323BB600023FB60A8
:101B800000233B6106237B613B4619461F480AF050
:101B9000FCFE4FF480533B6002237B600323BB6059
:101BA0000023FB6000233B6106237B613B46194613
:101BB00016480AF0EAFE0023BB614FF48273FB6112
:101BC0004FF4E0633B6200237B620023BB624FF46F
:101BD0000073FB6200233B6300237B630023BB6332
:101BE0000723FB6307F11803194609480BF0BCFBF8
:101BF00000210748FFF76AF90548FFF77AF904481A
:101C0000FFF754F900BF4037BD4680BD00080240D1
:101C1000003C004080B590B000AF07F118032822C7
:101C2000002118460DF084F83B4600221A605A60E5
:101C30009A60DA601A615A614FF40050FFF7C4F8F5
:101C40001020FFF791F84FF480533B6002237B6034
:101C50000323BB600023FB6000233B6105237B6102
:101C60003B46194628480AF090FE4FF400533B606B
:101C700002237B600323BB600023FB6000233B61E6
:101C800005237B613B4619461F480AF07EFE4FF450
:101C900080433B6002237B600323BB600023FB6027
:101CA00000233B6105237B613B46194616480AF039
:101CB0006CFE0023BB614FF48273FB614FF4E06361
:101CC0003B6200237B620123BB624FF40073FB6223
:101CD00020233B6300237B630023BB630723FB6359
:101CE00007F11803194609480BF03EFB002107488D
:101CF000FFF7ECF80548FFF70CF90448FFF7D6F8B2
:101D000000BF4037BD4680BD001002400034014096
:101D100080B590B000AF07F11803282200211846C3
:101D20000DF006F83B4600221A605A609A60DA60AD
:101D30001A615A614FF40010FFF746F80220FFF7CE
:101D400013F808233B6002237B600323BB6000235E
:101D5000FB6000233B6108237B613B4619465748E3
:101D60000AF013FE10233B6002237B600323BB6059
:101D70000023FB6000233B6108237B613B4619463F
:101D80004E480AF002FE20233B6002237B600323BF
:101D9000BB600023FB6000233B6108237B613B4663
:101DA000194646480AF0F1FD4FF0007205214448FB
:101DB000FEF702FE402205214148FEF701FD4FF4E7
:101DC000403205213E48FEF7D3FD002205213C4864
:101DD000FEF71AFD002205213948FEF739FD4FF4C0
:101DE000806205213648FEF757FD00220521344860
:101DF000FEF776FD002205213148FEF795FD05210D
:101E00002F48FEF7FDFD4FF0007206212C48FEF72B
:101E1000D3FD002206212A48FEF7D2FC4FF44032BF
:101E200006212748FEF7A4FD002206212448FEF7DC
:101E3000EBFC002206212248FEF70AFD4FF48062E7
:101E400006211F48FEF728FD002206211C48FEF748
:101E500047FD002206211A48FEF766FD06211848B4
:101E6000FEF7CEFD0023BB614FF48273FB614FF49C
:101E7000E0633B6200237B620023BB624FF400738C
:101E8000FB6200233B6300237B630023BB630723C8
:101E9000FB6307F1180319460A480BF065FA0021A5
:101EA0000848FFF713F80748FFF723F80548FEF73F
:101EB000FDFF00BF4037BD4680BD00BF00040240AB
:101EC000006402400054014080B588B000AF07F1C3
:101ED000100300221A605A609A60DA603B1D0022EB
:101EE0001A605A609A60204B204A1A601E4B0022EA
:101EF0005A601D4B00229A601B4B4FF6FF72DA604E
:101F0000194B00221A61184B00225A61164B00220D
:101F10009A6115480AF044F90346002B01D000F0FD
:101F2000ABFD4FF480533B6107F1100319460E4897
:101F30000AF08EF90346002B01D000F09DFD00232E
:101F40007B600023BB600023FB603B1D19460648F5
:101F50000AF088FB0346002B01D000F08DFD00BF86
:101F60002037BD4680BD00BFDC440020000001409A
:101F700080B588B000AF07F1100300221A605A60E4
:101F80009A60DA603B1D00221A605A609A601E4B0C
:101F90004FF080421A601C4B00225A601A4B0022FC
:101FA0009A60194B4FF0FF32DA60174B00221A612A
:101FB000154B00229A6114480AF0F2F80346002BF0
:101FC00001D000F059FD4FF480533B6107F110033D
:101FD00019460D480AF03CF90346002B01D000F0E9
:101FE0004BFD00237B600023FB603B1D1946064828
:101FF0000AF038FB0346002B01D000F03DFD00BF86
:102000002037BD4680BD00BF2845002080B594B074
:1020100000AF07F13C0300221A605A609A60DA6050
:102020001A6107F11C032022002118460CF080FEE3
:102030003B1D00221A605A609A60DA601A615A6188
:102040000420FEF7A9FE0A23BB8700233B644CF261
:1020500050337B644FF40073BB6407F13C031946B3
:1020600055480BF075FA5448FEF763FF00215248BB
:10207000FFF712F801215048FEF7BEFF6023FB6115
:1020800000233B6200237B620023BB620023FB62D0
:1020900007F11C031A46012147480BF0F3FA01210E
:1020A0004548FEF757FF10214348FEF7A5FF07F10B
:1020B0001C031A46102140480BF0E4FA10213E4858
:1020C000FEF748FF4FF480713B48FEF795FF07F19C
:1020D0001C031A464FF4807137480BF0D3FA4FF4C3
:1020E00080713548FEF736FF4FF480513248FEF7D5
:1020F00083FF07F11C031A464FF480512E480BF062
:10210000C1FA4FF480512C48FEF724FF00212A48E1
:10211000FEF7D8FF2848FEF7E8FF0820FEF724FE68
:102120004FF480537B600223BB600023FB600023DD
:102130003B6100237B610223BB613B1D19461F48A5
:102140000AF023FC4FF400537B600223BB600023A2
:10215000FB6000233B6100237B610223BB613B1DCD
:10216000194616480AF011FC4FF480437B600223A5
:10217000BB600023FB6000233B6100237B610223E3
:10218000BB613B1D19460D480AF0FFFB4FF40043AD
:102190007B600223BB600023FB6000233B610023C4
:1021A0007B610223BB613B1D194604480AF0EDFB2D
:1021B00000BF5037BD4680BD00080040000C024003
:1021C00080B58EB000AF07F11C0300221A605A6080
:1021D0009A60DA601A615A619A613B1D00221A60A6
:1021E0005A609A60DA601A615A614FF04050FEF707
:1021F0002BFD4FF08040FEF7CFFD1020FEF7B4FD21
:1022000080237B600223BB600323FB6000233B61D0
:1022100000237B610823BB613B1D194619480AF066
:10222000B4FB4FF480737B600223BB600323FB602D
:1022300000233B6100237B610823BB613B1D1946E2
:1022400010480AF0A2FB4FF4E133FB6100233B622C
:1022500000237B620023BB620C23FB6200233B63F1
:1022600000237B6307F11C03194607480BF02AFD86
:102270000548FEF7A5FF0448FEF747FF00BF3837C3
:10228000BD4680BD001002400078004080B58EB091
:1022900000AF07F11C0300221A605A609A60DA60EE
:1022A0001A615A619A613B1D00221A605A609A6055
:1022B000DA601A615A614FF44030FEF7ABFC10202F
:1022C000FEF782FD0120FEF74FFD4FF400737B60A7
:1022D0000223BB600323FB6000233B6100237B617F
:1022E0000723BB613B1D19462A480AF04EFB4FF4F9
:1022F00080637B600223BB600323FB6000233B61A0
:1023000000237B610723BB613B1D194621480AF06E
:102310003CFB4FF480537B600223BB600323FB60D4
:1023200000233B6100237B610723BB613B1D1946F2
:1023300018480AF02AFB4FF4E133FB6100233B62AB
:1023400000237B620023BB620C23FB6200233B6300
:1023500000237B6307F11C0319460F480BF0B2FC06
:102360000D48FEF70AFF00210B48FEF716FF00217B
:102370000948FEF7EEFE00210748FEF7D6FE0648A4
:10238000FEF71EFF0448FEF7C0FE00BF3837BD460B
:1023900080BD00BF000002400010014080B58EB03B
:1023A00000AF07F11C0300221A605A609A60DA60DD
:1023B0001A615A619A613B1D00221A605A609A6044
:1023C000DA601A615A614FF04060FEF723FC20206A
:1023D000FEF7FAFC0420FEF7C7FC40237B600223D3
:1023E000BB600323FB6000233B6100237B61082368
:1023F000BB613B1D194621480AF0C7FA80237B6068
:102400000223BB600323FB6000233B6100237B614D
:102410000823BB613B1D194618480AF0B6FAFEF7BF
:1024200045F9034600220E211846FEF795F90346AA
:1024300019464720FEF766F94720FEF745F94FF4A5
:10244000E133FB6100233B6200237B620023BB621C
:102450000C23FB6200233B6300237B6307F11C0317
:10246000194607480BF02EFC0548FEF7A9FE044864
:10247000FEF74BFE00BF3837BD4680BD0008024066
:102480000014014080B500AF4FF48000FEF76CFCF3
:102490004FF40010FEF768FCFEF708F9034600222F
:1024A00000211846FEF758F9034619460C20FEF79E
:1024B00029F90C20FEF708F900220021382009F044
:1024C00014F9382009F02DF9FEF7F0F80346002240
:1024D00000211846FEF740F9034619464420FEF74E
:1024E00011F94420FEF7F0F8FEF7E0F80346002269
:1024F00000211846FEF730F9034619464520FEF73D
:1025000001F94520FEF7E0F800BF80BD80B586B038
:1025100000AF3B4600221A605A609A60DA601A6186
:102520005A611020FEF720FC0420FEF71DFC8020DD
:10253000FEF71AFC0120FEF717FC0220FEF714FC40
:102540000820FEF711FC0421BF48FEF75DFE0821BC
:10255000BD48FEF759FE1021BB48FEF755FE20216D
:10256000B948FEF751FE4021B748FEF74DFE4FF443
:102570000051B648FEF748FE4FF48041B348FEF7DD
:1025800043FE4FF40041B148FEF73EFE4FF40061B8
:10259000AD48FEF739FE4FF40061AD48FEF734FE5A
:1025A0004FF40041AA48FEF72FFE0121A948FEF78B
:1025B0002BFE0221A748FEF727FE1021A548FEF7B3
:1025C00023FE2021A348FEF71FFE4021A148FEF76D
:1025D0001BFE0421A048FEF709FE4FF480619A48D3
:1025E000FEF704FE4FF400419748FEF7FFFD4FF45D
:1025F00080519948FEF7FAFD4FF480719548FEF737
:10260000F5FD4FF400719348FEF7F0FD4FF4806143
:102610009048FEF7EBFD04218E48FEF7E7FD802190
:102620008C48FEF7E3FD4FF480718B48FEF7DEFD2A
:102630004FF400718848FEF7D9FD01218248FEF76A
:10264000D5FD02218048FEF7D1FD04233B60012324
:102650007B600023BB600023FB6000233B613B46A3
:10266000194679480AF091F908233B6001237B6001
:102670000023BB600023FB6000233B613B461946FF
:1026800071480AF082F910233B6001237B6000232C
:10269000BB600023FB6000233B613B4619466A4850
:1026A0000AF073F920233B6001237B600023BB60A9
:1026B0000023FB6000233B613B46194662480AF059
:1026C00064F940233B6001237B600023BB6000234F
:1026D000FB6000233B613B4619465B480AF055F915
:1026E0004FF400533B6001237B600023BB60002359
:1026F000FB6000233B613B46194654480AF045F90C
:102700004FF480433B6001237B600023BB600023C8
:10271000FB6000233B613B4619464C480AF035F903
:102720004FF400433B6001237B600023BB60002328
:10273000FB6000233B613B46194644480AF025F9FB
:1027400004233B6001237B600023BB600023FB600C
:1027500000233B613B4619463F480AF016F94FF407
:1027600080633B6001237B600023BB600023FB6030
:1027700000233B613B46194633480AF006F94FF403
:1027800000633B6001237B600023BB600023FB6090
:1027900000233B613B4619462B480AF0F6F84FF4FC
:1027A00000433B6001237B600023BB600023FB6090
:1027B00000233B613B46194623480AF0E6F84FF4F4
:1027C00080533B6001237B600023BB600023FB60E0
:1027D00000233B613B4619461F480AF0D6F84FF4E8
:1027E00080733B6001237B600323BB600023FB609D
:1027F00000233B613B46194616480AF0C6F84FF4E1
:1028000000733B6001237B600323BB600023FB60FC
:1028100000233B613B4619460E480AF0B6F84FF4D8
:1028200080633B6001237B600323BB600023FB606C
:1028300000233B613B46194606480AF0A6F84FF4D0
:1028400000633B600AE000BF001002400008024045
:1028500000000240000C02400004024000237B60A4
:1028600000233B613B4619467E480AF08EF84FF440
:1028700080733B6000237B6000233B613B4619462D
:1028800079480AF082F84FF400733B6000237B60C4
:1028900000233B613B46194673480AF076F84FF433
:1028A00080733B6000237B6000233B613B461946FD
:1028B0006E480AF06AF84FF400633B6001237B60C6
:1028C0000023BB600023FB6000233B613B461946AD
:1028D00066480AF05AF84FF400433B6001237B60DE
:1028E0000023BB600023FB6000233B613B4619468D
:1028F0005E480AF04AF801233B6001237B60002315
:10290000BB600023FB6000233B613B4619465548F2
:102910000AF03BF802233B6001237B600023BB608D
:102920000023FB6000233B613B4619464D480AF0FB
:102930002CF804233B6001237B600023BB60002351
:10294000FB6000233B613B46194646480AF01DF8F0
:1029500008233B6000237B6000233B613B46194614
:1029600040480AF012F810233B6001237B600023EB
:10297000BB600023FB6000233B613B46194639489E
:102980000AF003F820233B6001237B600023BB6037
:102990000023FB6000233B613B461946314809F0A8
:1029A000F4FF40233B6001237B600023BB600023D6
:1029B000FB6000233B613B4619462A4809F0E5FFCE
:1029C00080233B6001237B600023BB600023FB600E
:1029D00000233B613B461946224809F0D6FF4FF4DD
:1029E00080733B6001237B600023BB600023FB609E
:1029F00000233B613B4619461D4809F0C6FF4FF4D2
:102A000000733B6001237B600023BB600023FB60FD
:102A100000233B613B461946154809F0B6FF0123E8
:102A20003B6001237B600023BB600023FB6000232D
:102A30003B613B4619460F4809F0A7FF02233B6064
:102A400001237B600023BB600023FB6000233B610C
:102A50003B461946074809F098FF00BF1837BD46A6
:102A600080BD00BF000C0240000802400000024090
:102A7000000402400010024080B400AF72B600BFF4
:102A800000BFFDE780B483B000AF0F4B1B6C0E4A54
:102A900043F0805313640C4B1B6C03F080537B603A
:102AA0007B68094B5B6C084A43F480435364064BD4
:102AB0005B6C03F480433B603B6800BF0C37BD4652
:102AC0005DF8047B704700BF0038024080B58EB0CF
:102AD00000AF786007F1240300221A605A609A6000
:102AE000DA601A617B681B68634A93426CD1634B5E
:102AF0005B6C624A43F480735364604B5B6C03F419
:102B000080733B623B6A5D4B1B6B5C4A43F0040382
:102B100013635A4B1B6B03F00403FB61FB69574BB8
:102B20001B6B564A43F002031363544B1B6B03F0B9
:102B30000203BB61BB693F237B620323BB620023AB
:102B4000FB6207F1240319464D4809F07DF9032380
:102B50007B620323BB620023FB6207F12403194657
:102B6000484809F071F9484B484A1A60464B002220
:102B70005A60454B00229A60434B0022DA60424B78
:102B80004FF480621A61404B4FF400625A613E4B31
:102B90004FF400529A613C4B4FF48072DA613A4B29
:102BA00000221A62384B00225A62374808F0D4FDDE
:102BB0000346002B01D0FFF75FFF7B68324A9A6320
:102BC000314A7B68936352E07B681B68304A9342CA
:102BD00024D12A4B5B6C294A43F400735364274B7E
:102BE0005B6C03F400737B617B69244B1B6B234A92
:102BF00043F001031363214B1B6B03F001033B61A3
:102C00003B690C237B620323BB620023FB6207F159
:102C1000240319461F4809F017F928E07B681B6850
:102C20001D4A934223D1154B5B6C144A43F48063D5
:102C30005364124B5B6C03F48063FB60FB680F4BC7
:102C40001B6B0E4A43F0010313630C4B1B6B03F029
:102C50000103BB60BB6802237B620323BB620023CA
:102C6000FB6207F1240319460A4809F0EDF800BF9A
:102C70003837BD4680BD00BF00200140003802400B
:102C800000080240000402407C440020106402401E
:102C900000210140000002400022014080B584B0C4
:102CA00000AF78607B681B68164A93420CD1164BC4
:102CB0005B6C154A43F001035364134B5B6C03F0E8
:102CC0000103FB60FB6818E07B681B68B3F1804F71
:102CD00013D10D4B1B6C0C4A43F0010313640A4BD8
:102CE0001B6C03F00103BB60BB68002200211C20A9
:102CF00008F0FBFC1C2008F014FD00BF1037BD4697
:102D000080BD00BF000001400038024080B400AF29
:102D100000BFFDE780B400AF00BFFDE780B400AFA7
:102D200000BFFDE780B400AF00BFFDE780B400AF97
:102D300000BFFDE780B400AF00BFBD465DF8047B77
:102D4000704780B400AF00BFBD465DF8047B70479C
:102D500080B400AF00BFBD465DF8047B704780B50E
:102D600000AF07F023FF07F099FF00BF80BD000010
:102D700080B500AF024808F0FDFD00BF80BD00BF78
:102D80007C44002080B400AF00BFBD465DF8047BEA
:102D9000704780B500AF01F077FE00BF80BD80B402
:102DA00000AF01231846BD465DF8047B704780B52F
:102DB00082B000AF786039600CF01AF80346162232
:102DC0001A604FF0FF3318460837BD4680BD80B506
:102DD00082B000AF78604FF0FF317868FFF7E7FF0F
:102DE00000BFFDE780B586B000AFF860B9607A60DB
:102DF00000237B610AE0AFF300800146BB685A1CE8
:102E0000BA60CAB21A707B6901337B617A697B68E8
:102E10009A42F0DB7B6818461837BD4680BD80B506
:102E200086B000AFF860B9607A6000237B6109E08A
:102E3000BB685A1CBA601B781846AFF300807B69E8
:102E400001337B617A697B689A42F1DB7B681846C3
:102E50001837BD4680BD80B483B000AF78604FF0B6
:102E6000FF3318460C37BD465DF8047B704780B4CD
:102E700083B000AF786039603B684FF400525A600D
:102E8000002318460C37BD465DF8047B704780B4BC
:102E900083B000AF7860012318460C37BD465DF85B
:102EA000047B704780B485B000AFF860B9607A6089
:102EB000002318461437BD465DF8047B70470000B8
:102EC00080B586B000AF7860144A154BD31A7B6189
:102ED0007B693B61134B1B68002B02D1114B124ADB
:102EE0001A60104B1A687B6813443A699A4207D2F9
:102EF0000BF07EFF03460C221A604FF0FF3309E00F
:102F0000084B1B68FB60074B1A687B681344054A33
:102F10001360FB6818461837BD4680BD00000820C6
:102F2000000400007445002070E3002080B400AF6E
:102F3000064BD3F88830054A43F47003C2F8883052
:102F400000BFBD465DF8047B704700BF00ED00E0A8
:102F5000DFF834D0FFF7EAFF0C480D490D4A002393
:102F600002E0D458C4500433C4188C42F9D30A4A3E
:102F70000A4C002301E013600432A242FBD30BF0A1
:102F80003DFFFEF750F970470000082000000020C8
:102F900088430020E02A0108884300206CE30020D9
:102FA000FEE780B500AF01F0B3FC01F023FE02F0B4
:102FB00019FC00F095F800BF80BD80B500AF01207E
:102FC00000F0B0F8042001F0D5FC00BF80BD80B552
:102FD00000AF07F0E9FC00BF80BD000080B586B0FF
:102FE00002AF786039600D4BFB60292300930C4BD6
:102FF000FA680C490C4807F0D3F902F0A9FD03F078
:103000000BFD03F0BBF903F0D1F97B68012283F8D3
:10301000512000BF1037BD4680BD00BFC00C010865
:10302000C80C0108F00C01087846002080B584B077
:1030300000AF786039607B685B69FB607B685B69C7
:103040003968786898470346FB72FB7A002B08D1F1
:10305000FB680649786898477B685B69044978682B
:10306000984700BF1037BD4680BD00BF4023010810
:103070002C23010880B584B002AF786039607B688A
:10308000002B03D10021134802F024FC78683B6830
:103090005A683B689B68009313460F4A0F4907F034
:1030A000D1FC3B681A687B685A617B6818337A6880
:1030B0000E21184607F028FD7B681833184607F0E4
:1030C0005BFD3B681A7B7B6883F84C2000BF0837A8
:1030D000BD4680BD1C2301082D300008DD2F0008EF
:1030E00090B587B002AF122300930223242209492E
:1030F000094807F0C7F9094B3C460FCB84E80F009D
:103100003B4619460648FFF7B5FF00BF1437BD46DA
:1031100090BD00BFE445002008460020140D0108C2
:103120007845002080B582B000AF0346FB71FB7983
:103130001946034807F0A0FC00BF0837BD4680BD14
:103140007845002080B586B002AF786039603B6872
:103150001B88102B1CD0102B28DC012B02D00F2B2E
:1031600011D023E0144BFB605A230093134BFA68F1
:103170001349144807F014F97B681833184607F010
:10318000FBFC012313E07B680F4A5A6100230EE029
:103190007B6803F140003B6802330C2219460BF0B8
:1031A00054FE7B68094A5A61002300E00223184656
:1031B0001037BD4680BD00BFC00C0108C80C010817
:1031C000240D010878460020D1310008FD330008A5
:1031D00080B590B002AF786039603B681B88013BD6
:1031E000122B00F2EF8001A252F823F039320008CE
:1031F000C5330008EF320008C5330008C5330008A6
:10320000C5330008C5330008C5330008C5330008BE
:10321000C5330008C5330008C5330008C5330008AE
:10322000B3330008C5330008C53300081133000864
:103230004533000879330008654B7B62792300939E
:10324000644B7A6A6449654807F0AAF87B681833CA
:10325000002242F21071184607F078FC7B6893F860
:103260002A301946786800F094F9594B3B627B6824
:1032700093F8523001937D230093564B3A6A584994
:10328000564807F08DF8786800F0A5F9504BFB61BF
:103290007B6893F852300193802300934D4BFA6979
:1032A00050494E4807F07CF87B68DB6ABB607B685E
:1032B0001B6BFB607B685B6B3B617B681B8D7B6181
:1032C0007B6893F82A30BB617B6893F82B301846F3
:1032D00002F0A8FC07F10803184602F0FDFF03F016
:1032E0009BF97B68002283F84C2001236BE0384B6C
:1032F000BB6290230093374BBA6A3B49374807F0CB
:103300004FF87B681833184607F036FC01235AE063
:103310002F4BFB62962300932E4BFA6A33492F48BA
:1033200007F03EF87B6893F84C30002B04D17B68A3
:10333000012283F84C2003E07B68032283F84C20B1
:10334000012340E0224B3B63A1230093214B3A6BC6
:103350002749224807F024F87B6893F84C30012B6A
:1033600004D17B68022283F84C2003E07B680322AF
:1033700083F84C20012326E07B6893F84C30022B25
:1033800004D17B68052283F84C2003E07B6803228C
:1033900083F84C200E4B7B63B02300930D4B7A6B6C
:1033A00014490E4806F0FCFF7B68134A5A6100235B
:1033B00009E07B68042283F84C207B680E4A5A613E
:1033C000002300E0022318463837BD4680BD00BF09
:1033D000C00C0108C80C01085C0D010878460020EB
:1033E000980D0108B80D0108F00D01082C0E010818
:1033F000580E0108800E01084531000880B483B0E2
:1034000000AF78603960022318460C37BD465DF87E
:10341000047B704780B584B000AFF860B9607A6013
:10342000BB68012B02D87B68642B01D9062318E006
:10343000FB6893F85130002B06D0002002F044FBCB
:10344000FB68002283F851207968B86802F02AFCF2
:103450007B68D9B2FA68BB6813444D330A461A70C8
:10346000002318461037BD4680BD80B485B000AF3C
:10347000786039603B68002B02D00123FB6001E0DB
:103480000023FB607A68FB6813444D331B781846B1
:103490001437BD465DF8047B704780B582B000AF3D
:1034A000786039603B68232B01D9062314E07B68E0
:1034B00093F85130012B06D0012002F005FB7B6808
:1034C000012283F85120386802F078FB3B68DAB2B9
:1034D0007B6883F84F20002318460837BD4680BD1F
:1034E00080B582B000AF78607B6893F85130012BD3
:1034F00006D0012002F0E8FA7B68012283F851200F
:1035000002F06CFB7B68FF2283F84F2000231846F3
:103510000837BD4680BD80B582B000AF78603960A5
:103520003B68072B01D9062314E07B6893F85130E0
:10353000012B06D0012002F0C7FA7B68012283F834
:103540005120386802F054FB3B68DAB27B6883F89C
:103550005020002318460837BD4680BD80B582B094
:1035600000AF78607B6893F85130012B06D00120C2
:1035700002F0AAFA7B68012283F8512002F048FB8E
:103580007B68FF2283F85020002318460837BD4689
:1035900080BD80B582B000AF786039603B68232B76
:1035A00001D9062313E07B6893F85630012B05D030
:1035B00002F070FF7B68012283F85620386802F021
:1035C00095FF3B68DAB27B6883F8522000231846E7
:1035D0000837BD4680BD80B582B000AF78607B689B
:1035E00093F85630002B05D002F06AFF7B6800226A
:1035F00083F85620002318460837BD4680BDB0B476
:1036000083B000AF786039603B681B88002B04D022
:103610003B681B88B3F57A7F01D9062328E03B6815
:103620009B78002B03D03B689B78242B01D9062381
:103630001EE03B68DB78642B01D9062318E03B6869
:103640001B69B3F5006F01D9062311E03B685B6984
:10365000002B01D106230BE07B683A6803F12804B4
:1036600015460FCD0FC495E8030084E8030000233E
:1036700018460C37BD46B0BC7047B0B483B000AF3D
:10368000786039603A687B68154603F128040FCCEE
:103690000FC594E8030085E8030000BF0C37BD4662
:1036A000B0BC704780B584B000AF78607B682833C9
:1036B000FB60FB681B88002B04D0FB681B88B3F5FC
:1036C0007A7F01D906231CE0FB689B78002B03D08E
:1036D000FB689B78242B01D9062312E0FB68DB787A
:1036E000642B01D906230CE0FB681B69B3F5006F5E
:1036F00001D9062305E07B680449184607F0E6F97E
:10370000002318461037BD4680BD00BF5423010872
:1037100080B400AFBFF34F8F00BF064BDB6803F4EC
:10372000E0620449044B1343CB60BFF34F8F00BFEB
:1037300000BFFDE700ED00E00400FA0580B588B0A9
:1037400000AFF860B9607A6007F11403074A0A21F4
:1037500018460BF067F907F114031946F86805F0ED
:10376000D9F900BF2037BD4680BD00BF5C160108F7
:1037700080B584B000AFF860B9607A60FFF7C8FF29
:1037800080B588B000AFF860B9607A600023BB6193
:103790000023FB82B86805F0B5FA03467B757B7D94
:1037A000012B04D02449F86806F032FC40E00121E6
:1037B000B86805F071FA38613B691B78612B16D146
:1037C0000023FB770FE0FB7F184602F059F8034611
:1037D000FB82FA7FB7F916301849F86806F018FC32
:1037E000FB7F0133FB77FB7F072BECD920E03B69A4
:1037F0001B782F2B18D93B691B78372B14D83869C5
:103800000AF036FB0346BB61B86902F039F803469B
:10381000FB820B4804F0B6FFB7F91630BA690749C6
:10382000F86806F0F5FB03E00649F86806F0F0FBDF
:103830002037BD4680BD00BF64160108841601080C
:1038400074E100209416010880B588B000AFF860DC
:10385000B9607A60B86805F055FA0346FB61FB6908
:10386000012B04D01549F86806F0D2FB23E0144B75
:103870001B68184601F09AFD034683F00103DBB292
:10388000002B04D00F49F86806F0C2FB13E00121B9
:10389000B86805F001FAB861B8690AF0E9FA0346B8
:1038A0007B61074B1B687969184601F034FF0649B4
:1038B000F86806F0ADFB2037BD4680BD64160108F0
:1038C00004000020A8160108F416010880B584B091
:1038D00000AFF860B9607A600A4B1B68184601F0C7
:1038E00033FF0346002B04D00749F86806F090FB2D
:1038F00003E00649F86806F08BFB00BF1037BD46B1
:1039000080BD00BF04000020FC1601080C17010850
:1039100080B588B000AFF860B9607A60B86805F02B
:10392000F1F90346BB61BB69012B04D03849F86843
:1039300006F06EFB69E0374B1B68184601F036FD58
:10394000034683F00103DBB2002B04D03249F86850
:1039500006F05EFB59E00121B86805F09DF9786139
:1039600000233B617B691B78612B25D10023FB6120
:103970001EE0284B1B68F969184601F0D2FC38613B
:103980003B69002B0CD1234B1B680022F9691846B8
:1039900001F0E7FCFA692149F86806F039FB04E018
:1039A000FA691F49F86806F033FBFB690133FB61D4
:1039B000FB69032BDDD928E07B691B782F2B24D9E9
:1039C0007B691B78332B20D878690AF051FA0346BB
:1039D000FB61104B1B68F969184601F0A2FC3861C5
:1039E0003B69002B0CD10B4B1B680022F969184670
:1039F00001F0B7FCFA690949F86806F009FB04E030
:103A0000FA690749F86806F003FB2037BD4680BD18
:103A100064160108040000201C170108641701083F
:103A20007817010880B588B000AFF860B9607A6097
:103A3000B86805F067F90346FB61FB69012B04D008
:103A40001549F86806F0E4FA22E00121B86805F0AB
:103A500023F9B861B8690AF00BFA0346FB82FB8AC6
:103A6000B3F5FA7F04D3FB8A40F6B832934204D907
:103A70000A49F86806F0CCFA0AE0094B1B68FA8A92
:103A80001146184601F0F7FC0649F86806F0C0FA3E
:103A90002037BD4680BD00BF90170108B817010848
:103AA00004000020EC17010880B586B000AFF86074
:103AB000B9607A60084B1B68184601F022FB034688
:103AC000FB82FB8A1A460549F86806F0A1FA00BF96
:103AD0001837BD4680BD00BF04000020F417010860
:103AE00080B588B000AFF860B9607A60B86805F05A
:103AF00009F90346BB61BB69042B04D02449F8686B
:103B000006F086FA41E00023FB613BE0FB699BB2D3
:103B100001339BB21946B86805F0BEF80346184653
:103B20000AF0A6F90346D9B207F11402FB6913445F
:103B30000A461A7007F11402FB6913441B78012B23
:103B400005D9FA691349F86806F062FA1DE007F131
:103B50001402FB6913441B78002B08D10E4B1B6821
:103B6000FA69D2B21146184601F055FC07E00A4B3B
:103B70001B68FA69D2B21146184601F02BFCFB69AA
:103B80000133FB61FB69032BC0D92037BD4680BDE3
:103B900014180108381801080400002080B586B008
:103BA00000AFF860B9607A60154B1B68184601F0E9
:103BB00055FC0346FB7400237B6115E0FA7C7B69AE
:103BC00042FA03F303F00103002B05D07A690D4993
:103BD000F86806F01DFA04E07A690B49F86806F007
:103BE00017FA7B6901337B617B69032BE6D90749AF
:103BF000F86806F00DFA00BF1837BD4680BD00BF5B
:103C00000400002060180108741801088C180108CD
:103C100080B58CB000AFF860B9607A60364B1B6835
:103C2000184601F0C3FB034683F00103DBB2002B0F
:103C300004D03249F86806F0EBF95AE0B86805F0AC
:103C400061F80346BB62BB6A032B04D02C49F868B9
:103C500006F0DEF94DE00121B86805F01DF8786244
:103C6000786A0AF005F903463B623B6A032B04D9E4
:103C70002449F86806F0CCF93BE00221B86805F069
:103C80000BF8F861F8690AF0F3F80346FB62FB6A87
:103C9000012B02D90123FB6201E00023FB62032117
:103CA000B86804F0F9FFB861B8690AF0E1F80346B2
:103CB000FB82FB8A40F6B832934204D91249F86875
:103CC00006F0A6F915E00C4B1868FB8AFA6A396A07
:103CD00001F0A1FC38613B69002B04D00B49F86866
:103CE00006F096F905E0FB8A3A6A0949F86806F099
:103CF0008FF93037BD4680BD0400002090180108C0
:103D0000B4180108E0180108041901083019010865
:103D10004419010880B58AB000AFF860B9607A60D4
:103D20002F4B1B68184601F041FB034683F001034B
:103D3000DBB2002B04D02B49F86806F069F94CE09F
:103D4000B86804F0DFFF03467B627B6A022B04D075
:103D50002549F86806F05CF93FE00121B86804F0F5
:103D60009BFF3862386A0AF083F80346FB61FB69FF
:103D7000032B04D91D49F86806F04AF92DE0022109
:103D8000B86804F089FFB861B8690AF071F80346B1
:103D90007B61134B18687B69002B14BF0123002340
:103DA000DBB21A46F96901F0DCFA38613B69002B95
:103DB00005D0FA690E49F86806F02AF90DE07B692A
:103DC000002B05D0FA690B49F86806F021F904E0E8
:103DD000FA690949F86806F01BF92837BD4680BD25
:103DE00004000020901801085C190108E01801087F
:103DF0007C190108A0190108BC19010880B588B018
:103E000000AFF860B9607A60B86804F07BFF0346E1
:103E1000FB61FB69012B04D01249F86806F0F8F841
:103E20001CE00121B86804F037FFB861B8690AF0F6
:103E30001FF80346FB75FB7D642B04D90A49F8681B
:103E400006F0E6F80AE0094B1B68FA7D11461846B1
:103E500001F02DFB0649F86806F0DAF82037BD4678
:103E600080BD00BFD8190108FC190108040000201A
:103E7000EC17010880B586B000AFF860B9607A60D1
:103E8000084B1B68184601F028FB0346FB75FB7DB9
:103E90001A460549F86806F0BBF800BF1837BD465A
:103EA00080BD00BF04000020201A010880B588B042
:103EB00000AFF860B9607A60B86804F023FF034689
:103EC000BB61BB69042B04D02449F86806F0A0F854
:103ED00041E00023FB613BE0FB699BB201339BB2F5
:103EE0001946B86804F0D8FE0346184609F0C0FF2A
:103EF0000346D9B207F11402FB6913440A461A704B
:103F000007F11402FB6913441B78012B05D9FA69E8
:103F10001349F86806F07CF81DE007F11402FB690C
:103F200013441B78002B08D10E4B1B68FA69D2B2E0
:103F30001146184601F0FFFA07E00A4B1B68FA69C0
:103F4000D2B21146184601F0D5FAFB690133FB6184
:103F5000FB69032BC0D92037BD4680BD3C1A010840
:103F6000381801080400002080B586B000AFF86062
:103F7000B9607A60144B1B68184601F0FFFA0346DB
:103F8000FB7400237B6113E0FA7C7B6942FA03F344
:103F900003F00103002B04D00C49F86806F038F850
:103FA00003E00B49F86806F033F87B6901337B6165
:103FB0007B69032BE8D90749F86806F029F800BFA8
:103FC0001837BD4680BD00BF04000020641A0108F8
:103FD0007C1A01088C18010880B588B000AFF86021
:103FE000B9607A60B86804F08DFE0346FB61FB6936
:103FF000012B04D01549F86806F00AF823E00121E6
:10400000B86804F049FEB861B86909F031FF0346A9
:10401000FB820F4B1B68B7F916201146184601F0BA
:10402000D0FAB7F9163007EE903AB8EEE77AF2EE2A
:10403000046AC7EE267AB7EEE77A53EC172B0549E8
:10404000F86805F0E5FF2037BD4680BD981A0108E5
:1040500004000020C01A010880B586B000AFF860E7
:10406000B9607A600E4B1B68184601F0BAFA034635
:10407000FB82B7F9163007EE903AB8EEE77AF2EE27
:10408000046AC7EE267AB7EEE77A53EC172B054998
:10409000F86805F0BDFF00BF1837BD4680BD00BF02
:1040A00004000020E01A010880B588B000AFF86075
:1040B000B9607A60B86804F025FE0346FB61FB69CD
:1040C000012B04D01049F86805F0A2FF19E0012186
:1040D000B86804F0E1FDB861B86909F0C9FE0346AB
:1040E0007B617B69072B04D90849F86805F090FFCC
:1040F00007E0074B1B687A69D2B21146184601F0F7
:104100004AFA2037BD4680BD001B0108181B010874
:104110000400002080B586B000AFF860B9607A6016
:104120000023FB75084B1B68184601F067FA03462D
:10413000FB75FB7D1A460549F86805F069FF00BF6D
:104140001837BD4680BD00BF04000020341B0108A5
:1041500080B584B000AFF860B9607A60064B1B6828
:10416000184600F0DBFF0549F86805F051FF00BF75
:104170001037BD4680BD00BF04000020441B01086D
:1041800080B584B000AFF860B9607A60064B1B68F8
:10419000184600F0DFFF0549F86805F039FF00BF59
:1041A0001037BD4680BD00BF04000020581B010829
:1041B00080B588B000AFF860B9607A60B86804F084
:1041C000A1FD0346FB61FB69012B04D01449F8688B
:1041D00005F01EFF21E00121B86804F05DFDB86123
:1041E000B86909F045FE0346FB82B7F91630642B27
:1041F00004DD0C49F86805F00BFF0EE00A4B1B6864
:10420000B7F9162000211846FFF704F9B7F9163060
:104210001A460649F86805F0FBFE2037BD4680BD0A
:104220006C1B0108941B010808000020B81B010842
:1042300080B588B000AFF860B9607A60B86804F003
:1042400061FD0346FB61FB69012B04D01449F8684A
:1042500005F0DEFE21E00121B86804F01DFDB86123
:10426000B86909F005FE0346FB82B7F91630642BE6
:1042700004DD0C49F86805F0CBFE0EE00A4B1B6824
:10428000B7F9162001211846FFF7C4F8B7F9163020
:104290001A460649F86805F0BBFE2037BD4680BDCA
:1042A000DC1B0108941B010808000020B81B010852
:1042B00080B586B000AFF860B9607A600B4B1B68C0
:1042C00000211846FFF7D1F87861084B1B680121DF
:1042D0001846FFF7CAF838613B697A690449F868FB
:1042E00005F096FE00BF1837BD4680BD08000020CF
:1042F000241C010880B588B000AFF860B9607A600E
:10430000B86804F0FFFC0346FB61FB69012B04D095
:104310001249F86805F07CFE1CE00121B86804F041
:10432000BBFCB861B86909F0A3FD78617B69232BF8
:1043300004DD0B49F86805F06BFE0BE0094B1B68C8
:104340007A6911461846FFF7A8F87A690649F868AD
:1043500005F05EFE2037BD4680BD00BF641C01082D
:10436000881C010808000020AC1C010880B588B03A
:1043700000AFF860B9607A60B86804F0C3FC034627
:10438000FB61FB69012B04D01249F86805F040FE7F
:104390001CE00121B86804F07FFCB861B86909F03D
:1043A00067FD78617B69072B04DD0B49F86805F030
:1043B0002FFE0BE0094B1B687A6911461846FFF780
:1043C000AAF87A690649F86805F022FE2037BD464A
:1043D00080BD00BFC81C0108EC1C010808000020BB
:1043E0000C1D010880B584B000AFF860B9607A6038
:1043F000044B1B681846FFF773F800BF1037BD4623
:1044000080BD00BF0800002080B584B000AFF86018
:10441000B9607A60044B1B681846FFF79FF800BF2D
:104420001037BD4680BD00BF0800002080B598B0A1
:1044300006AFF860B9607A60B86804F063FC0346C0
:104440007B647B6C062B04D06049F86805F0E0FDC6
:10445000B8E00121B86804F01FFC0346184609F0D3
:1044600007FD03463B643B6C002B03D03B6CB3F56C
:104470007A7F04D95649F86805F0CAFDA2E0022106
:10448000B86804F009FC0346184609F0F1FC03463D
:10449000FB63FB6B002B02D0FB6B242B04D94D4933
:1044A000F86805F0B5FD8DE00321B86804F0F4FB71
:1044B0000346184609F0DCFC0346BB63BB6B642B68
:1044C00004D94549F86805F0A3FD7BE00421B868EC
:1044D00004F0E2FB0346184609F0CAFC03467B637E
:1044E0007B6B002B04D13D49F86805F091FD69E034
:1044F0000521B86804F0D0FB0346184609F0B8FC63
:1045000003463B633B6B002B04D13549F86805F04B
:104510007FFD57E00621B86804F0BEFB034618464D
:1045200009F0A6FC0346FB62FB6A002B04D12D496F
:10453000F86805F06DFD45E07A6B3B6B1A44FB6A49
:1045400013443A6C02FB03F3274AA2FB03239B0CA0
:10455000BB62BB6AB3F5006F04D92449F86805F063
:1045600057FD2FE03B6C9BB23B82FB6BDBB2BB7415
:10457000BB6BDBB2FB747B6B7B613B6BBB61FB6A30
:10458000FB61BB6A3B621A4A3B6CB2FBF3F37B6292
:10459000184B1B6807F1100211461846FFF72FF859
:1045A0007B6A0593BB6A0493FB6A03933B6B02939C
:1045B0007B6B0193BB6B0093FB6B3A6C0E49F86805
:1045C00005F026FD4837BD4680BD00BF281D010807
:1045D000881D0108B01D0108D01D0108F01D01084B
:1045E000141E01083C1E010883DE1B43601E0108E7
:1045F00040420F0008000020881E0108F0B591B06D
:1046000006AFF860B9607A60114B1B6807F11002C1
:1046100011461846FFF731F83B8A1E46BB7C9C4684
:10462000FB7C1D467B69BA69F969386A7C6A059426
:104630000490039102920193009563463246054926
:10464000F86805F0E5FC00BF2C37BD46F0BD00BFA3
:10465000080000200C1F010880B584B000AFF8608E
:10466000B9607A600A4B1B681846FFF71BF80346CF
:10467000002B04D00749F86805F0CAFC03E006499E
:10468000F86805F0C5FC00BF1037BD4680BD00BF0F
:1046900008000020841F0108A41F010880B400AF97
:1046A000024B1846BD465DF8047B7047682301083D
:1046B00080B400AF21231846BD465DF8047B7047E7
:1046C00080B483B000AF78607B68DB6903F00203DD
:1046D000022B01D1012300E0002318460C37BD4610
:1046E0005DF8047B704780B483B000AF78607B686E
:1046F000DB6903F00403042B01D1012300E0002354
:1047000018460C37BD465DF8047B704780B483B013
:1047100000AF78607B68DB6903F00803082B01D1E8
:10472000012300E0002318460C37BD465DF8047BEA
:10473000704780B483B000AF78607B68DB6903F0BA
:104740002003202B01D1012300E0002318460C3761
:10475000BD465DF8047B704780B483B000AF7860DD
:104760007B6802221A6200BF0C37BD465DF8047BED
:10477000704780B483B000AF78607B6804221A620F
:1047800000BF0C37BD465DF8047B704780B483B032
:1047900000AF78607B6808221A6200BF0C37BD4604
:1047A0005DF8047B704780B483B000AF78607B68AD
:1047B0005B6ADBB218460C37BD465DF8047B704778
:1047C00080B500AF4FF480720A490B4805F0B4FF82
:1047D0004FF4006209490A4805F0AEFF084B064A4B
:1047E0000849094805F0F9FC074805F012FD00BF2B
:1047F00080BD00BFB046002088460020B0470020A2
:104800009C4600200014014078460020B0B588B0D6
:1048100000AF154B3C1D1D460FCD0FC495E807009A
:1048200084E80700FFF73AFF0346BB61FFF740FF4C
:104830000346BB833B1D184604F029F803460B4A88
:1048400013600A4B1B68002B05D10121084801F0B9
:1048500041F8012304E0054B1B68064A1A60002357
:1048600018462037BD46B0BDC41F0108B04F002018
:10487000802601087948000880B582B000AF7860D2
:104880000B46FB70FB781946034805F029FD00BF75
:104890000837BD4680BD00BF7846002080B584B093
:1048A00002AF786039607B68002B03D10021154886
:1048B00001F010F878683B68DA683B681B69009380
:1048C0001346114A114906F0BDF87B6820337A6817
:1048D0000921184606F018F93B685A687B68DA61C6
:1048E0003B689A687B689A613B681A687B685A6182
:1048F0007B682033184606F03FF900BF0837BD46F5
:1049000080BD00BF80260108C949000895490008FC
:1049100080B588B002AFFFF753FF02230093022354
:1049200004220D490D4805F0ADFDFFF76FFF0C4B5C
:104930007B600C4B1B68BB600B4BFB600B4B3B6104
:10494000064B7B613B1D19460948FFF7A7FF00BFD7
:104950001837BD4680BD00BF584600205C46002089
:10496000C9490008B04F0020784600205446002076
:104970002446002080B582B000AF0346FB71FB796E
:104980001946034806F078F800BF0837BD4680BDD9
:104990002446002080B582B000AF786039607B6823
:1049A000002B03D10721074800F094FF7B682033D8
:1049B0000A220A21184606F0C9F800BF0837BD468A
:1049C00080BD00BF8026010880B582B000AF78604E
:1049D00039607B68002B03D103210D4800F07AFF7A
:1049E0003B68002B03D10421094800F073FF3B68AA
:1049F0001B88092B06D1074B1B68184603F0F9FFEB
:104A0000012300E0022318460837BD4680BD00BFE1
:104A100080260108B04F002080B582B000AF184852
:104A2000FFF787FE0346002B0BD01548FFF7BBFEB0
:104A30000346FB71134B1B68FA791146184603F0C5
:104A4000B5FF0F48FFF762FE0346002B02D00C486B
:104A5000FFF79CFE0A48FFF733FE0346002B02D007
:104A60000748FFF779FE0648FFF73DFE0346002B97
:104A700002D00348FFF77DFE00BF0837BD4680BD6A
:104A800000140140B04F002080B500AFFFF7C4FF15
:104A9000024805F0BAFC00BF80BD00BF7846002088
:104AA00080B586B002AF78603960114BFB6031236E
:104AB0000093104BFA681049104805F071FC02F0A1
:104AC0003BF87B68012283F83020786800F00EFC08
:104AD000786800F0EFFB786800F0FDFA7B6820331F
:104AE000184606F049F800BF1037BD4680BD00BF2C
:104AF000E01F0108E81F0108202001087846002077
:104B000080B584B000AF786039607B685B69FB601A
:104B10007B685B693968786898470346FB72FB7A63
:104B2000002B08D1FB680649786898477B685B6969
:104B300004497868984700BF1037BD4680BD00BF64
:104B4000A82601089426010880B586B002AF7860D7
:104B500039607B68002B03D10021234800F0BAFEA6
:104B600078683B685A683B689B68009313461F4A05
:104B70001F4905F067FF7B6820337A680A211846D1
:104B800005F0C2FF3B681A687B685A617B680022A7
:104B900083F830207B68002283F844207B68002261
:104BA00083F847207B68002283F848200023FB60BD
:104BB0000EE03A68FB6802339B0013445A68796838
:104BC000FB680C339B000B445A60FB680133FB60AD
:104BD000FB68032BEDD97B682033184605F0CCFF2A
:104BE00000BF1037BD4680BD88260108014B000874
:104BF000A14A0008B0B58AB002AF12230093022385
:104C000024220B490B4805F03DFC0B4B3C1D1D4677
:104C10000FCD0FC495E8070084E807003B1D194637
:104C20000648FFF791FF00BF2037BD46B0BD00BF6B
:104C3000186000203C60002034200108B45F002090
:104C400080B586B002AF786039603B681B88012B65
:104C500002D00B2B18D04BE0284BFB606C23009349
:104C6000274BFA682749284805F09AFB7B682033D0
:104C7000184605F081FF786800F01CFB786800F0AA
:104C80002AFA7B6801229A613B689B78042B2DD11C
:104C90007B6893F83030002B09D10121786800F04F
:104CA0003AFD786800F022FB786800F003FB7B682F
:104CB00093F84630184600F0E3FD03467B817B689D
:104CC000B3F94A30B7F90A209A4203DD7B680F4AEC
:104CD0005A6102E07B680E4A5A617B682033642285
:104CE0006421184605F032FF002302E0022300E0B1
:104CF000012318461037BD4680BD00BFE01F0108E4
:104D0000E81F01085020010878460020154D0008D2
:104D1000C54D000880B586B002AF786039603B6849
:104D20001B880B2B32D00B2B3BDC012B02D00A2B28
:104D300016D036E01D4BBB60952300931C4BBA6820
:104D40001C491D4805F02CFB7B680022DA6100211C
:104D5000786800F01BFA786800F05CF9012321E024
:104D60007B6893F84630184600F08AFD0346FB81C5
:104D70007B68B3F94A30B7F90E209A4201DD01236E
:104D800010E07B680D4A5A6100230BE03B689B787A
:104D9000052B04D17B680A4A5A61002302E00223F2
:104DA00000E0022318461037BD4680BDE01F010811
:104DB000E81F01088C20010878460020C54D000836
:104DC000414C000880B586B002AF786039603B681E
:104DD0001B880B2B46D00B2B4FDC012B02D00A2B50
:104DE00015D04AE0274BBB60BA230093264BBA6824
:104DF0002649274805F0D4FA7B680022DA617868F2
:104E000000F058FA786800F066F9012336E07B6814
:104E100093F84630184600F033FD0346FB817B686B
:104E2000B3F94A30B7F90E209A4204DD7B68194A7B
:104E30005A61002322E07B68DB695A1C7B68DA61D7
:104E40007B68DB691D2B08D87B68B3F94A301A46AA
:104E5000B7F90E30D31A0A2B04DD7B680E4A5A616B
:104E600000230BE03B689B78052B04D17B680B4A41
:104E70005A61002302E0022300E0022318461037A3
:104E8000BD4680BDE01F0108E81F0108C8200108D9
:104E900078460020154D0008A14E0008414C00083E
:104EA00080B586B002AF786039603B681B880B2BF9
:104EB0002ED00B2B37DC012B02D00A2B12D032E084
:104EC0001B4BBB60E02300931A4BBA681A491B487E
:104ED00005F066FA7B680022DA61786800F0CDF8A8
:104EE000012321E07B6893F84630184600F0C8FCA7
:104EF0000346FB817B68B3F94A30B7F90E209A422A
:104F000001DA012310E07B680D4A5A6100230BE0AF
:104F10003B689B78052B04D17B680A4A5A610023C1
:104F200002E0022300E0022318461037BD4680BD90
:104F3000E01F0108E81F01080C2101087846002045
:104F4000494F0008414C000880B586B002AF786038
:104F500039603B681B880B2B3DD00B2B46DC012BAB
:104F600002D00A2B13D041E0234BBB604FF4817376
:104F70000093224BBA682249224805F011FA78685A
:104F800000F098F9786800F0A6F801232FE07B681C
:104F900093F84630184600F073FC0346FB817B68AB
:104FA000B3F94A30B7F90E209A4204DA7B68164A00
:104FB0005A6100231BE07B68DB695A1C7B68DA615D
:104FC0007B68DB691D2B04D97B68104A5A6100237A
:104FD0000DE001230BE03B689B78052B04D17B6837
:104FE0000B4A5A61002302E0022300E00223184624
:104FF0001037BD4680BD00BFE01F0108E81F010853
:105000005021010878460020A14E0008154D0008E7
:10501000414C000880B584B000AF78607B6893F89D
:105020004730BB730023FB731FE0BA7BFB7B42FA64
:1050300003F303F00103002B0AD0FB7B7A680C33E7
:105040009B0013445B680121184602F0F5FE09E05D
:10505000FB7B7A680C339B0013445B680021184685
:1050600002F0EAFEFB7B0133FB73FB7B032BDCD9F5
:1050700000BF00BF1037BD4680BD80B584B000AF13
:1050800078607B6893F84930BB737B6893F848304D
:105090007B730023FB7316E07A7BFB7B42FA03F3FE
:1050A00003F00103002B07D0FB7BBA7B92B21146C1
:1050B000184600F053FC03E0FB7B184600F090FC20
:1050C000FB7B0133FB73FB7B032BE5D900BF00BFE8
:1050D0001037BD4680BD80B584B000AF7860002336
:1050E000FB7306E0FB7B184600F07AFCFB7B013388
:1050F000FB73FB7B032BF5D900BF00BF1037BD4608
:1051000080BD80B483B000AF78607B68B3F84C306A
:1051100018460C37BD465DF8047B704780B588B0F3
:1051200000AF786007F10C0300221A605A609A60A1
:10513000DA601A820B23BB810423BB737B6807F1FF
:105140000C021146184605F0C1FC00231846203712
:10515000BD4680BD80B588B000AF786007F10C0314
:1051600000221A605A609A60DA601A820B23BB81AF
:105170000523BB737B6807F10C021146184605F046
:10518000A5FC002318462037BD4680BD2DE9F04F11
:105190008DB000AFF861B961FB6993F8473087F8CB
:1051A0002B30FB69B3F84C303B850023FB6278E081
:1051B00097F82B20FB6A42FA03F303F00103002B5C
:1051C0006CD0FA69FB6A0C339B0013445B689B7ECE
:1051D00087F8273097F82730DBB203F00103002B64
:1051E00008D1FA69FB6A0C339B0013445B681846CC
:1051F00002F087FEFA69FB6A0C339B0013445B687C
:105200009B7E87F82730FA69FB6A0C339B001344B6
:105210005B687B60BB69DEB23B8D00229A46934699
:1052200052465B464FF000004FF00001590141EA41
:10523000D261500102460B46B2EB0A0463EB0B0548
:105240004FF000024FF000036B0243EAD4536202B6
:1052500014461D4614EB0A0845EB0B094FF00002FB
:105260004FF000034FEA891343EA98634FEA88122C
:10527000B2EB0801B96063EB0902FA60D7E90201F9
:10528000024612EB0A023A610A4642EB0B027A61CD
:10529000D7E904233146786802F012FFFB6A013334
:1052A000FB62FB6A032B83D900BF00BF3437BD46C6
:1052B000BDE8F08F80B584B000AF78600023FB605C
:1052C0000CE07A68FB680C339B0013445B68002198
:1052D000184602F0B1FDFB680133FB60FB68032B4D
:1052E000EFD900BF00BF1037BD4680BD80B584B088
:1052F00000AF78600023FB600BE07A68FB680C333A
:105300009B0013445B68184602F0FBFDFB68013309
:10531000FB60FB68032BF0D900BF00BF1037BD4610
:1053200080BD80B584B000AF786039603B68032BE6
:1053300001D9062311E07A683B680C339B001344C3
:105340005B68184602F0DDFD0346FB7397F90F30EA
:10535000002B01D0012300E0002318461037BD4682
:1053600080BD80B586B000AFF860B9601346FB71B0
:10537000BB68032B01D9062313E0FA68BB680C3322
:105380009B0013445B68FA791146184602F054FDFD
:105390000346FB7597F91730002B01D0012300E07D
:1053A000002318461837BD4680BD000080B483B086
:1053B00000AF78607B685B69054A93420CBF0123AC
:1053C0000023DBB218460C37BD465DF8047B7047FE
:1053D000414C000880B483B000AF78600B46FB708E
:1053E000FB78032B01D906230FE07B6893F8473045
:1053F0005AB2FB78012101FA03F35BB213435BB2AB
:10540000DAB27B6883F84720002318460C37BD4684
:105410005DF8047B704780B483B000AF78600B46C2
:10542000FB70FB78032B01D9062311E07B6893F80E
:1054300047305AB2FB78012101FA03F35BB2DB4338
:105440005BB213405BB2DAB27B6883F8472000237B
:1054500018460C37BD465DF8047B704780B483B0B6
:1054600000AF78607B6893F8473018460C37BD462C
:105470005DF8047B704780B483B000AF78600B4662
:105480007B807B88B3F5FA7F04D37B8840F6B83203
:10549000934201D9062304E07B687A88A3F84C2064
:1054A000002318460C37BD465DF8047B704780B476
:1054B00083B000AF78600B46FB70FB78642B01D99A
:1054C000062304E07B68FA7883F849200023184615
:1054D0000C37BD465DF8047B704780B483B000AFE5
:1054E00078607B6893F8493018460C37BD465DF804
:1054F000047B704780B483B000AF78600B46FB70CC
:10550000FB78032B01D906230FE07B6893F8483022
:105510005AB2FB78012101FA03F35BB213435BB289
:10552000DAB27B6883F84820002318460C37BD4662
:105530005DF8047B704780B483B000AF78600B46A1
:10554000FB70FB78032B01D9062311E07B6893F8ED
:1055500048305AB2FB78012101FA03F35BB2DB4316
:105560005BB213405BB2DAB27B6883F84820002359
:1055700018460C37BD465DF8047B704780B483B095
:1055800000AF78607B6893F8483018460C37BD460A
:105590005DF8047B704780B483B000AF78600B4641
:1055A000FB70FB78072B01D9062304E07B68FA78AF
:1055B00083F84620002318460C37BD465DF8047B6F
:1055C000704780B483B000AF78600B467B807B6807
:1055D0007A88A3F84A2000BF0C37BD465DF8047BEB
:1055E000704780B483B000AF78607B68B3F94A300D
:1055F00018460C37BD465DF8047B704780B483B015
:1056000000AF78607B6893F8463018460C37BD468B
:105610005DF8047B70472DE9F04F8BB000AFF86167
:10562000B9617A617B82BB69032B01D906236DE0E6
:10563000FA69BB690C339B0013445B689B7E87F857
:10564000273097F8273003F00103002B0DD0FA69BB
:10565000BB690C339B0013445B68184602F051FC95
:105660000346002B01D0012350E0FA69BB690C33DB
:105670009B0013445E687B695FFA83FC7B8A00228F
:105680009A46934652465B464FF000004FF00001A9
:10569000590141EAD261500102460B46B2EB0A04BD
:1056A00063EB0B054FF000024FF000036B0243EA7F
:1056B000D453620214461D4614EB0A0845EB0B094D
:1056C0004FF000024FF000034FEA891343EA98635A
:1056D0004FEA8812B2EB0801396063EB09037B6083
:1056E000D7E900120B4613EB0A03BB60134643EBEA
:1056F0000B03FB60D7E902236146304602F0E0FC71
:105700000346002B01D0012300E0002318462C376C
:10571000BD46BDE8F08F80B582B000AF78603960DB
:105720003B68002B06D001F007FA7B68012283F862
:10573000302005E001F00CFA7B68002283F830206D
:1057400000BF0837BD4680BD80B483B000AF78602D
:105750007B6893F83030002B14BF01230023DBB2A9
:1057600018460C37BD465DF8047B704780B582B0A3
:1057700000AF786039607B6814330A220A2118462A
:1057800005F0E4F900BF0837BD4680BD80B584B0A0
:1057900002AF786039607B68002B03D100210E488E
:1057A00000F098F878683B685A683B689B680093FB
:1057B00013460A4A0A4905F045F97B6814337A68AA
:1057C0000D21184605F0A0F93B681A687B685A62FB
:1057D00000BF0837BD4680BDBC2601082958000817
:1057E0006D57000880B586B002AF022300930423F2
:1057F00008220949094804F045FE094A3B1D07CA29
:1058000083E807003B1D19460648FFF7BFFF00BFAE
:105810001037BD4680BD00BF946000209C60002012
:10582000902101085860002090B585B000AF7860E5
:1058300039603B681B880C2B02D00D2B17D01AE067
:105840000023FB730EE0FB7BFC7B184600F04CFA58
:10585000034619467B6804F1140223F81210FB7BFF
:105860000133FB73FB7B072BEDD9012304E000F030
:105870002DFA012300E0022318461437BD4690BDDF
:1058800080B483B000AF7860054A7B68143332F986
:10589000133018460C37BD465DF8047B704700BFD7
:1058A0005860002080B400AF054B1B68044A43F0E9
:1058B0000203136000BFBD465DF8047B704700BF64
:1058C00010E000E080B400AF62B600BFBD465DF8F6
:1058D000047B704780B483B000AF7860396072B6E3
:1058E00000BF0C37BD465DF8047B704780B483B0C1
:1058F00000AF786039607B683A685A6300BF0C3744
:10590000BD465DF8047B704780B483B000AF78601B
:1059100039607B683A689A6300BF0C37BD465DF812
:10592000047B704780B483B000AF786039607B68D7
:105930003A68DA6300BF0C37BD465DF8047B7047F8
:1059400080B483B000AF786039607B683A681A64CD
:1059500000BF0C37BD465DF8047B704780B584B04E
:1059600000AF78600B467B807B88642B01D9642371
:105970007B807B881A465201D21A920013449B0006
:10598000FB817B68032B23D801A252F823F000BFD0
:10599000A1590008AD590008B9590008C5590008B7
:1059A000FB8919460D48FFF7A1FF12E0FB89194654
:1059B0000A48FFF7A9FF0CE0FB8919460748FFF7E3
:1059C000B1FF06E0FB8919460448FFF7B9FF00E084
:1059D00000BF00BF1037BD4680BD00BF00080040BB
:1059E00080B582B000AF78607B68032B1ED801A21F
:1059F00052F823F0055A00080F5A0008195A0008F7
:105A0000235A000800210C48FFF770FF0FE0002127
:105A10000948FFF779FF0AE000210748FFF782FFF6
:105A200005E000210448FFF78BFF00E000BF00BF46
:105A30000837BD4680BD00BF0008004080B483B079
:105A400000AF78607B681B6843F040027B681A6097
:105A500000BF0C37BD465DF8047B704780B483B04F
:105A600000AF78607B681B6823F040027B681A6097
:105A700000BF0C37BD465DF8047B704780B483B02F
:105A800000AF786039607B681B6823F001023B68D7
:105A90001A437B681A6000BF0C37BD465DF8047B73
:105AA000704780B483B000AF786039607B681B6852
:105AB00023F002023B681A437B681A6000BF0C3770
:105AC000BD465DF8047B704780B582B000AF0346E9
:105AD000FB711E48FFF7C2FFFB79032B2ED801A2F2
