:020000040800F2
:1000000000000820612E00081D2C0008252C000887
:100010002D2C0008352C00083D2C000800000000A5
:10002000000000000000000000000000452C000857
:10003000532C000800000000612C00086F2C000801
:10004000B12E0008B12E0008B12E0008B12E000814
:10005000B12E0008B12E0008B12E0008B12E000804
:10006000B12E0008B12E0008B12E0008B12E0008F4
:1000700085660008B12E0008B12E0008B12E0008D8
:10008000B12E0008B12E0008B12E0008B12E0008D4
:10009000B12E0008B12E0008B12E0008B12E0008C4
:1000A000B12E0008C1670008B12E0008B12E00086B
:1000B0000D680008B12E0008B12E0008B12E00080E
:1000C000B12E0008B12E0008B12E0008B12E000894
:1000D000B12E0008B12E0008B12E0008B12E000884
:1000E000B12E0008B12E0008B12E0008B12E000874
:1000F000B12E0008B12E0008B12E0008B12E000864
:10010000B12E0008B12E0008B12E0008B12E000853
:10011000B12E0008B12E0008B12E0008B12E000843
:10012000812C0008B12E0008B12E0008B12E000865
:10013000B12E0008B12E0008B12E0008B12E000823
:10014000B12E0008B12E0008B12E0008B12E000813
:10015000952C0008A9690008B12E0008A32C0008FE
:10016000B12E0008B12E0008B12E0008B12E0008F3
:10017000B12E0008B12E0008B12E000800000000CA
:10018000B12E0008B12E0008B12E0008B12E0008D3
:10019000B12E0008B12E0008B12E0008B12E0008C3
:1001A0000000000000000000B12E0008B12E000881
:1001B000B12E0008B12E0008B12E0008B12E0008A3
:1001C000B12E0008B12E000800000000B12E00087A
:1001D000B12E0008B12E0008B12E0008B12E000883
:1001E000B12E0008B12E0008B12E0008B12E000873
:0801F00000000000B12E000820
:1002000010B5054C237833B9044B13B10448AFF350
:1002100000800123237010BD8843002000000000EF
:100220006406010808B5034B1BB103490348AFF34B
:10023000008008BD000000008C4300206406010817
:1002400010F8012B11F8013B012A28BF9A42F7D080
:10025000D01A7047000000000000000000000000FD
:1002600001F0FF01102A2BDB10F0070F08D010F867
:10027000013B013A8B422DD010F0070F42B3F6D16B
:10028000F0B441EA012141EA014122F007047FF084
:1002900000070023F0E80256083C85EA010586EADB
:1002A000010685FA47F5A3FA87F586FA47F6A5FA17
:1002B00087F68EB9EED1F0BC01F0FF0102F0070223
:1002C00032B110F8013B013A83EA010313B1F8D1CE
:1002D0000020704701387047002D06BF35460338AF
:1002E000073815F0010F07D1013015F4807F02BFE8
:1002F000013015F4C03F0130F0BC0138704700BF39
:10030000034613F8012B002AFBD1181A0138704755
:100310007BB972B90029BEBF00204FF0004106E052
:1003200008BF00281CBF6FF000414FF0FF3000F005
:10033000BBB9ADF1080C6DE904CE002909DB002B37
:100340001ADB00F035F8DDF804E0DDE9022304B043
:100350007047404261EB4101002B1BDB00F028F8A5
:10036000DDF804E0DDE9022304B0404261EB410125
:10037000524263EB43037047524263EB430300F086
:1003800017F8DDF804E0DDE9022304B0404261EB38
:1003900041017047524263EB430300F009F8DDF876
:1003A00004E0DDE9022304B0524263EB43037047EB
:1003B0002DE9F047089D8E4604468846002B4AD119
:1003C0008A42174662D9B2FA82F64EB1C6F12003CC
:1003D00001FA06F820FA03F3B74043EA0808B440EC
:1003E0004FEA174E1FFA87FCB8FBFEF1230C0EFBF9
:1003F000118843EA084301FB0CF29A4209D9FB1821
:1004000001F1FF3080F0EA809A4240F2E780023941
:100410003B449A1AA3B2B2FBFEF00EFB102243EA51
:10042000024300FB0CFC9C4509D9FB1800F1FF328C
:1004300080F0D6809C4540F2D3803B44023840EAAD
:100440000140A3EB0C0300211DB1F3400022C5E9DC
:100450000032BDE8F0878B4205D90DB1C5E9000136
:1004600000210846F5E7B3FA83F1002946D1734528
:1004700002D3824200F20581841A6EEB030201204E
:100480009046002DE5D0C5E90048E2E7002A00F0DB
:100490009080B2FA82F6002E40F0A4808A1A030CF3
:1004A0004FEA174E80B2BCB20121B2FBFEFC0EFB3C
:1004B0001C2243EA024304FB0CF29A4207D9FB18C0
:1004C0000CF1FF3802D29A4200F2E080C4469B1A37
:1004D000B3FBFEF20EFB123340EA034302FB04F4CB
:1004E0009C4207D9FB1802F1FF3002D29C4200F275
:1004F000CA8002461B1B42EA0C40A5E7C1F1200658
:100500008B4022FA06F71F430EFA01F420FA06F395
:100510002EFA06FE4FEA1749234300FA01F81FFAA4
:1005200087FCBEFBF9F01C0C09FB10EE44EA0E44FC
:1005300000FB0CFEA64502FA01F209D93C1900F1B4
:10054000FF3A80F09C80A64540F2998002383C44F6
:10055000A4EB0E041FFA83FEB4FBF9F309FB13446A
:100560004EEA044403FB0CFCA44508D93C1903F1F2
:10057000FF3E80F08280A4457FD9023B3C4443EAA1
:100580000040A4EB0C04A0FB02EC64457346E1467A
:1005900062D35FD05DB1B8EB030264EB090404FAE7
:1005A00006F622FA01F31E43CC40C5E9006400219F
:1005B0004FE7B1FBF2FC010C41EA0E4180B240EA88
:1005C00001423B4638463C46B846BE462026B1FB73
:1005D000F7F1A2EB080241EA0C4166E7014618E791
:1005E00010462CE7C6F120022EFA02F3B740B140C4
:1005F00020FA02F24FEA174E0A43B3FBFEF8BCB2F0
:100600000EFB1833110C41EA034108FB04F9B0401A
:1006100089454FEA104380B23ED9791808F1FF3C72
:1006200001D289451FD8A1EB0901B1FBFEF909FBF5
:1006300004F80EFB191192B242EA0142424529D256
:10064000BA1809F1FF31C4D24245C2D2A9F1020160
:100650003A44BEE7F0459DD2BEEB02036CEB070CBB
:100660000138E14696E7A7EB09094944A8F1020CD5
:10067000B1FBFEF909FB04F8DBE773467FE7504660
:1006800066E70846FDE63B44023A33E7ACF1020C6C
:100690003B441CE749469CE7A1EB0901C446B1FB7A
:1006A000FEF909FB04F8C4E7704700BF80B400AF4F
:1006B000044BDB681B0A03F007031846BD465DF8D0
:1006C000047B704700ED00E080B483B000AF0346C8
:1006D000FB7197F90730002B0BDBFB7903F01F024E
:1006E000074997F907305B09012000FA02F241F847
:1006F000232000BF0C37BD465DF8047B704700BF68
:1007000000E100E080B483B000AF03463960FB71C4
:1007100097F90730002B0ADB3B68DAB20C4997F9EE
:1007200007301201D2B20B4483F800230AE03B6881
:10073000DAB20849FB7903F00F03043B1201D2B28D
:100740000B441A7600BF0C37BD465DF8047B70473A
:1007500000E100E000ED00E080B489B000AFF86097
:10076000B9607A60FB6803F00703FB61FB69C3F1C2
:100770000703042B28BF0423BB61FB690433062B4A
:1007800002D9FB69033B00E000237B614FF0FF329D
:10079000BB6902FA03F3DA43BB681A407B699A40EB
:1007A0004FF0FF317B6901FA03F3D9437B680B40BB
:1007B000134318462437BD465DF8047B704700009C
:1007C00080B485B000AFF860B9607A600D4ABB684C
:1007D00013441B781A46FB6813441B6823F0C002BD
:1007E0000849BB680B441B781946FB680B44194643
:1007F0007B6813430B6000BF1437BD465DF8047B74
:10080000704700BF801D010880B485B000AFF8605C
:10081000B9607A600D4ABB6813441B781A46FB68BE
:1008200013441B6823F490720849BB680B441B787F
:100830001946FB680B4419467B6813430B6000BFE5
:100840001437BD465DF8047B704700BF801D01086A
:1008500080B485B000AFF860B9607A600D4ABB68BB
:1008600013441B781A46FB6813441B6823F4007278
:100870000849BB680B441B781946FB680B441946B2
:100880007B6813430B6000BF1437BD465DF8047BE3
:10089000704700BF801D010880B485B000AFF860CC
:1008A000B9607A600D4ABB6813441B781A46FB682E
:1008B00013441B6823F480620849BB680B441B780F
:1008C0001946FB680B4419467B6813430B6000BF55
:1008D0001437BD465DF8047B704700BF801D0108DA
:1008E00080B485B000AFF860B9607A600D4ABB682B
:1008F00013441B781A46FB6813441B6823F4C05248
:100900000849BB680B441B781946FB680B44194621
:100910007B6813430B6000BF1437BD465DF8047B52
:10092000704700BF801D010880B485B000AFF8603B
:10093000B9607A600D4ABB6813441B781A46FB689D
:1009400013441B6823F4C0420849BB680B441B785E
:100950001946FB680B4419467B6813430B6000BFC4
:100960001437BD465DF8047B704700BF801D010849
:1009700080B485B000AFF860B9607A600D4ABB689A
:1009800013441B781A46FB6813441B6823F4403257
:100990000849BB680B441B781946FB680B44194691
:1009A0007B6813430B6000BF1437BD465DF8047BC2
:1009B000704700BF801D010880B485B000AFF860AB
:1009C000B9607A600D4ABB6813441B781A46FB680D
:1009D00013441B6823F0F0520849BB680B441B7892
:1009E0001946FB680B4419467B6813430B6000BF34
:1009F0001437BD465DF8047B704700BF801D0108B9
:100A000080B483B000AF786039600C4A3B6813440F
:100A10001B781A467B6813445B6908493A680A44A4
:100A2000127811467A680A4423F00403536100BF28
:100A30000C37BD465DF8047B704700BF801D010880
:100A400080B483B000AF78607B681B6843F001021C
:100A50007B681A6000BF0C37BD465DF8047B7047A9
:100A600080B483B000AF78607B681B6823F40032E9
:100A70007B681A6000BF0C37BD465DF8047B704789
:100A800080B483B000AF78607B681B6823F40022D9
:100A90007B681A6000BF0C37BD465DF8047B704769
:100AA00080B485B000AFF860B9607A60FB68DA683E
:100AB000064B1340B9687A680A431A43FB68DA6048
:100AC00000BF1437BD465DF8047B704701F8FFFF97
:100AD00080B483B000AF78607B68DB6823F40042A9
:100AE0007B68DA6000BF0C37BD465DF8047B704759
:100AF00080B483B000AF78607B685B6843F00072BD
:100B00007B685A6000BF0C37BD465DF8047B7047B8
:100B100080B400AF054B1B68044A43F48033136074
:100B200000BFBD465DF8047B704700BF003802403F
:100B300080B400AF074B1B6803F40033B3F5003FEC
:100B40000CBF01230023DBB21846BD465DF8047BD1
:100B5000704700BF0038024080B483B000AF7860B7
:100B6000064B9B6823F0030204497B6813438B60A8
:100B700000BF0C37BD465DF8047B7047003802406B
:100B800080B400AF044B9B6803F00C031846BD46CD
:100B90005DF8047B704700BF0038024080B483B02A
:100BA00000AF7860064B9B6823F0F00204497B6835
:100BB00013438B6000BF0C37BD465DF8047B704764
:100BC0000038024080B483B000AF7860064B9B6869
:100BD00023F4E05204497B6813438B6000BF0C3759
:100BE000BD465DF8047B70470038024080B483B096
:100BF00000AF7860064B9B6823F4604204497B6831
:100C000013438B6000BF0C37BD465DF8047B704713
:100C10000038024080B483B000AF7860094BD3F84D
:100C200090207B681B0CDB431A407B689BB2054914
:100C30001343C1F8903000BF0C37BD465DF8047B0C
:100C4000704700BF0038024080B483B000AF7860C6
:100C5000094BD3F890207B681B0CDB431A407B6860
:100C60009BB205491343C1F8903000BF0C37BD4615
:100C70005DF8047B704700BF0038024080B483B049
:100C800000AF7860094BD3F890207968084B0B408F
:100C9000DB431A407B681B0404491343C1F89030BE
:100CA00000BF0C37BD465DF8047B7047003802403A
:100CB0000000FFFF80B483B000AF7860074BD3F82B
:100CC0008C3023F0807205497B681343C1F88C3067
:100CD00000BF0C37BD465DF8047B7047003802400A
:100CE00080B400AF054B1B68044A43F08073136067
:100CF00000BFBD465DF8047B704700BF003802406E
:100D000080B400AF074B1B6803F00073B3F1007FA2
:100D10000CBF01230023DBB21846BD465DF8047BFF
:100D2000704700BF0038024080B485B000AFF86063
:100D3000B9607A603B600A4B5A680A4B1340F96805
:100D4000BA6811437A68920111433A680A43044928
:100D500013434B6000BF1437BD465DF8047B7047FA
:100D6000003802400080BCFF80B485B000AF7860DE
:100D7000084B1A6B07497B6813430B63054B1A6BCF
:100D80007B681340FB60FB6800BF1437BD465DF80D
:100D9000047B70470038024080B485B000AF7860B3
:100DA000084B1A6C07497B6813430B64054B1A6C9C
:100DB0007B681340FB60FB6800BF1437BD465DF8DD
:100DC000047B70470038024080B485B000AF786083
:100DD000084B5A6C07497B6813434B64054B5A6CAC
:100DE0007B681340FB60FB6800BF1437BD465DF8AD
:100DF000047B70470038024080B483B000AF786055
:100E0000064B1B6823F00F0204497B6813430B60F9
:100E100000BF0C37BD465DF8047B7047003C0240C4
:100E200080B400AF044B1B6803F00F031846BD46A7
:100E30005DF8047B704700BF003C024080B400AF07
:100E4000054B1B68044A43F48033136000BFBD4662
:100E50005DF8047B704700BF0070004080B483B031
:100E600000AF7860064B1B6823F4404204497B685E
:100E700013430B6000BF0C37BD465DF8047B704721
:100E80000070004080B400AF074B5B6803F4804300
:100E9000B3F5804F0CBF01230023DBB21846BD46DB
:100EA0005DF8047B704700BF0070004080B483B0E1
:100EB00000AF78607B681B6843F040027B681A6073
:100EC00000BF0C37BD465DF8047B704780B483B02B
:100ED00000AF786039607B685B6823F010023B6884
:100EE0001A437B685A6000BF0C37BD465DF8047B2F
:100EF000704780B483B000AF78607B685B6843F074
:100F000008027B685A6000BF0C37BD465DF8047B61
:100F1000704780B483B000AF78607B685B6823F073
:100F200008027B685A6000BF0C37BD465DF8047B41
:100F3000704780B483B000AF78607B681B6823F093
:100F400080027B681A6000BF0C37BD465DF8047BE9
:100F50007047000080B485B000AF786039603B68AE
:100F6000012B28D03B68042B23D03B68102B1ED0CC
:100F70003B68402B19D03B68B3F5807F13D03B68AA
:100F8000B3F5806F0DD03B68B3F5805F07D03B6849
:100F9000B3F5803F01D107230EE008230CE00623C0
:100FA0000AE0052308E0042306E0032304E002230B
:100FB00002E0012300E00023FB737B68183319462D
:100FC000FB7B0B4AD35C0B44BB60BB681A68FB7BA2
:100FD0000849CB5C194604238B40DB431A40BB68AD
:100FE0001A6000BF1437BD465DF8047B704700BF30
:100FF000881D0108941D010880B485B000AF786099
:1010000039603B68012B28D03B68042B23D03B6818
:10101000102B1ED03B68402B19D03B68B3F5807F66
:1010200013D03B68B3F5806F0DD03B68B3F5805F9C
:1010300007D03B68B3F5803F01D107230EE00823BA
:101040000CE006230AE0052308E0042306E003235E
:1010500004E0022302E0012300E00023FB737B682D
:1010600018331946FB7B0A4AD35C0B44BB60BB6850
:101070001A68FB7B0749CB5C194608238B401A434F
:10108000BB681A6000BF1437BD465DF8047B70472B
:10109000881D0108941D010880B483B000AF7860FA
:1010A00039607B689A68064B13403A681A437B683C
:1010B0009A6000BF0C37BD465DF8047B704700BFE7
:1010C000F8BFFEFF80B483B000AF786039607B6802
:1010D0005B6823F070023B681A437B685A6000BF6C
:1010E0000C37BD465DF8047B704780B483B000AF19
:1010F000786039607B685B6823F470023B681A4350
:101100007B685A6000BF0C37BD465DF8047B7047B2
:1011100080B483B000AF78607B689B6823F0800266
:101120007B689A6000BF0C37BD465DF8047B704752
:1011300080B483B000AF78607B681B6843F0010225
:101140007B681A6000BF0C37BD465DF8047B7047B2
:1011500080B483B000AF786039607B681B6823F48B
:10116000F8123B681B041A437B681A6000BF0C37F7
:10117000BD465DF8047B704780B483B000AF7860F3
:1011800039607B681B6823F078723B685B051A4303
:101190007B681A6000BF0C37BD465DF8047B704762
:1011A00080B483B000AF78607B689B6843F4804272
:1011B0007B689A6000BF0C37BD465DF8047B7047C2
:1011C00080B483B000AF786039607B689B6823F49B
:1011D00000423B681A437B689A6000BF0C37BD46EB
:1011E0005DF8047B704780B483B000AF78607B68A3
:1011F0005B6823F490427B685A607B689B6823F0AD
:101200002A027B689A6000BF0C37BD465DF8047BFC
:10121000704780B483B000AF786039607B683A680B
:101220009A6100BF0C37BD465DF8047B704780B4FF
:1012300083B000AF786039603B681A047B689A61BC
:1012400000BF0C37BD465DF8047B704780B5E8B041
:1012500000AF09F0B5FC00F067F801F017F901F0F4
:10126000D1F800F00DFA00F07FFA00F0F1FA00F08A
:101270007BFB00F02BFC00F0ABF800F0A5FC00F0CD
:1012800085FE00F05DFF00F01DFD00F0BFFF01F0E6
:1012900045F800F051F900F0A1F900F0EFFD00F081
:1012A00033FE05F03BFB07F5CA7300221A605A6053
:1012B00007F5CA73184605F05FFB07F5CA731846B1
:1012C00005F05AFB07F1CC03C822002118460DF0A7
:1012D0000FFA0023C7F89C310EE007F5D073A3F591
:1012E000CE73D7F89C2141F2342123F81210D7F89D
:1012F0009C310133C7F89C31D7F89C31092BECD9CC
:101300003B1D1A460A21002005F012FB00BF05F024
:1013100041FB0346002BFAD001F0CBFD01F0D5FDD7
:1013200001F0DDFD00BFFDE780B500AF0620FFF74F
:1013300063FD00BFFFF774FD0346062BFAD14FF49F
:101340004040FFF78BFDFFF779FDFFF7E1FB00BFA2
:10135000FFF7EEFB0346012BFAD10023C0220C213C
:101360004FF48000FFF7E0FCFFF7BAFC00BFFFF787
:10137000C7FC0346012BFAD100BFFFF783FD0346EC
:10138000002BFAD00020FFF709FC4FF4A050FFF724
:1013900019FC4FF40040FFF729FC0220FFF7DCFBAB
:1013A00000BFFFF7EDFB0346082BFAD107480CF00E
:1013B0002FFA0F2009F012FC0346002B01D001F098
:1013C0001BFB0020FFF776FC00BF80BD00C2EB0BCB
:1013D00080B584B000AF3B4600221A605A609A6024
:1013E000DA60524B524A1A60504B4FF480325A60C6
:1013F0004E4B00229A604D4B01221A614B4B00224A
:101400009A614A4B002283F82020484B0022DA627E
:10141000464B484A9A62454B0022DA60434B082209
:10142000DA61424B012283F83020404B00225A619E
:101430003E4809F023FC0346002B01D001F0DCFA02
:101440000A233B6001237B600123BB603B461946B6
:10145000364809F069FD0346002B01D001F0CCFAB3
:101460000B233B6002237B603B4619462F4809F063
:101470005BFD0346002B01D001F0BEFA0C233B605C
:1014800003237B603B461946284809F04DFD03467F
:10149000002B01D001F0B0FA0D233B6004237B60E8
:1014A0003B461946214809F03FFD0346002B01D079
:1014B00001F0A2FA0E233B6005237B603B461946F0
:1014C0001A4809F031FD0346002B01D001F094FACF
:1014D0000F233B6006237B603B461946134809F007
:1014E00023FD0346002B01D001F086FA08233B6060
:1014F00007237B603B4619460C4809F015FD03465F
:10150000002B01D001F078FA09233B6008237B60AF
:101510003B461946054809F007FD0346002B01D05C
:1015200001F06AFA00BF1037BD4680BDA443002019
:10153000002001400100000F80B584B000AF3B46A1
:1015400000221A605A609A60DA60214B214A1A60C0
:101550001F4B4FF480325A601D4B00229A601C4B87
:1015600000221A611A4B00229A61194B002283F85B
:101570002020174B0022DA62154B174A9A62144B4F
:101580000022DA60124B0122DA61114B002283F84B
:1015900030200F4B01225A610D4809F06FFB0346C2
:1015A000002B01D001F028FA02233B6001237B606D
:1015B0000023BB603B461946054809F0B5FC0346CD
:1015C000002B01D001F018FA00BF1037BD4680BDD6
:1015D000EC430020002101400100000F80B584B0E1
:1015E00000AF3B4600221A605A609A60DA60214BD5
:1015F000214A1A601F4B4FF480325A601D4B002263
:101600009A601C4B00221A611A4B00229A61194BF6
:10161000002283F82020174B0022DA62154B174A6C
:101620009A62144B0022DA60124B0122DA61114BEC
:10163000002283F830200F4B01225A610D4809F037
:101640001DFB0346002B01D001F0D6F901233B60BE
:1016500001237B600023BB603B461946054809F027
:1016600063FC0346002B01D001F0C6F900BF103720
:10167000BD4680BD34440020002201400100000F1F
:1016800080B58EB000AF07F11C0300221A605A60CB
:101690009A60DA601A615A619A613B1D00221A60F1
:1016A0005A609A60DA601A615A614FF44030FFF76D
:1016B000E5FA0220FFF758FB40237B600223BB6062
:1016C0000323FB6001233B6100237B610423BB6197
:1016D0003B1D194621480AF038FE80237B60022317
:1016E000BB600323FB6001233B6100237B61042378
:1016F000BB613B1D194619480AF027FE4FF4001044
:10170000FFF74AFB1648FFF7F3F9002200211448BF
:10171000FFF7C6F91248FFF7DBF91148FFF7B0F9F8
:101720000F48FFF79DF90023FB610E4B3B6200233E
:101730007B620023BB620023FB6200233B63002328
:101740007B6307F11C03194605480AF015FF04489E
:10175000FFF776F900BF3837BD4680BD0004024070
:1017600000540040FF63106080B58EB000AF07F1F9
:101770001C0300221A605A609A60DA601A615A618A
:101780009A613B1D00221A605A609A60DA601A6101
:101790005A614FF44020FFF771FA0220FFF7E4FA94
:1017A0004FF480637B600223BB600323FB60012353
:1017B0003B6100237B610423BB613B1D194621482B
:1017C0000AF0C3FD4FF400637B600223BB60032378
:1017D000FB6001233B6100237B610423BB613B1D54
:1017E000194618480AF0B1FD4FF48000FFF7D4FA0B
:1017F0001548FFF77DF9002200211348FFF750F943
:101800001148FFF765F91048FFF73AF90E48FFF75E
:1018100027F90023FB610D4B3B6200237B62002311
:10182000BB620023FB6200233B6300237B6307F161
:101830001C03194604480AF09FFE00BF3837BD4616
:1018400080BD00BF0004024000580040FFEAC00015
:1018500080B590B000AF07F1180328220021184688
:101860000CF046FF3B4600221A605A609A60DA602C
:101870001A615A614FF48050FFF7A6FA0120FFF772
:1018800073FA10233B6002237B600323BB600023B9
:10189000FB6000233B6105237B613B4619463048D2
:1018A0000AF053FD20233B6002237B600323BB60CF
:1018B0000023FB6000233B6105237B613B46194607
:1018C00027480AF042FD40233B6002237B6003234C
:1018D000BB600023FB6000233B6105237B613B462B
:1018E00019461F480AF031FD80233B6002237B60CC
:1018F0000323BB600023FB6000233B6105237B6166
:101900003B46194616480AF020FD0023BB614FF400
:101910008273FB614FF4E0633B6200237B62002330
:10192000BB620023FB6200233B6300237B63002335
:10193000BB630723FB6307F11803194609480BF043
:10194000F3F900210748FFF7C1FA0648FFF7D1FA7B
:101950000448FFF7ABFA00BF4037BD4680BD00BF6B
:10196000000002400030014080B590B000AF07F1A8
:1019700018032822002118460CF0BAFE3B4600222C
:101980001A605A609A60DA601A615A614FF48040B6
:10199000FFF702FA0220FFF7E7F94FF400533B602C
:1019A00002237B600323BB600023FB6000233B61B9
:1019B00005237B613B46194641480AF0C6FC4FF4BB
:1019C00080433B6002237B600323BB600023FB60FA
:1019D00000233B6105237B613B46194638480AF0EA
:1019E000B4FC4FF400433B6002237B600323BB60E5
:1019F0000023FB6000233B6105237B613B461946C6
:101A00002F480AF0A2FC4FF0905201212D48FEF71A
:101A1000D3FF002201212B48FEF7D2FE4FF44032C3
:101A200001212848FEF7A4FF4FF4807201212548C8
:101A3000FEF7EAFE002201212248FEF709FF4FF4DB
:101A4000806201211F48FEF727FF4FF40062012149
:101A50001C48FEF745FF4FF4005201211948FEF7DC
:101A600063FF01211748FEF7CBFF0023BB614FF452
:101A70008273FB614FF470633B6200237B6200233F
:101A8000BB624FF40073FB6200233B6300237B6364
:101A90000023BB630723FB6307F1180319460A48B9
:101AA0000BF042F900210848FFF710FA0648FFF74B
:101AB00020FA0548FFF7FAF900BF4037BD4680BD60
:101AC00000040240006002400038004080B590B041
:101AD00000AF07F118032822002118460CF008FE79
:101AE0003B4600221A605A609A60DA601A615A61B5
:101AF0004FF40040FFF750F90420FFF735F94FF499
:101B000080633B6002237B600323BB600023FB6098
:101B100000233B6106237B613B46194628480AF0B7
:101B200014FC4FF400633B6002237B600323BB6023
:101B30000023FB6000233B6106237B613B46194683
:101B40001F480AF002FC4FF480533B6002237B6085
:101B50000323BB600023FB6000233B6106237B6102
:101B60003B46194616480AF0F0FB0023BB614FF4D0
:101B70008273FB614FF4E0633B6200237B620023CE
:101B8000BB624FF40073FB6200233B6300237B6363
:101B90000023BB630723FB6307F1180319460948B9
:101BA0000BF0C2F800210748FFF790F90548FFF74E
:101BB000A0F90448FFF77AF900BF4037BD4680BD61
:101BC00000080240003C004080B590B000AF07F133
:101BD00018032822002118460CF08AFD3B460022FB
:101BE0001A605A609A60DA601A615A614FF40050C4
:101BF000FFF7EAF81020FFF7B7F84FF480533B6087
:101C000002237B600323BB600023FB6000233B6156
:101C100005237B613B46194628480AF096FB4FF4A2
:101C200000533B6002237B600323BB600023FB6007
:101C300000233B6105237B613B4619461F480AF0A0
:101C400084FB4FF480433B6002237B600323BB6033
:101C50000023FB6000233B6105237B613B46194663
:101C600016480AF072FB0023BB614FF48273FB61DC
:101C70004FF4E0633B6200237B620123BB624FF4BD
:101C80000073FB6220233B6300237B630023BB6361
:101C90000723FB6307F11803194609480BF044F8C2
:101CA00000210748FFF712F90548FFF732F9044809
:101CB000FFF7FCF800BF4037BD4680BD0010024072
:101CC0000034014080B590B000AF07F1180328221E
:101CD000002118460CF00CFD3B4600221A605A60A9
:101CE0009A60DA601A615A614FF40010FFF76CF8DD
:101CF0000220FFF739F808233B6002237B600323AF
:101D0000BB600023FB6000233B6108237B613B46F3
:101D1000194657480AF019FB10233B6002237B60E9
:101D20000323BB600023FB6000233B6108237B612E
:101D30003B4619464E480AF008FB20233B6002232D
:101D40007B600323BB600023FB6000233B6108230F
:101D50007B613B46194646480AF0F7FA4FF000729D
:101D600005214448FEF728FE402205214148FEF7A0
:101D700027FD4FF4403205213E48FEF7F9FD0022D1
:101D800005213C48FEF740FD002205213948FEF7B9
:101D90005FFD4FF4806205213648FEF77DFD00228D
:101DA00005213448FEF79CFD002205213148FEF74D
:101DB000BBFD05212F48FEF723FE4FF000720621E0
:101DC0002C48FEF7F9FD002206212A48FEF7F8FC10
:101DD0004FF4403206212748FEF7CAFD00220621B3
:101DE0002448FEF711FD002206212248FEF730FDAF
:101DF0004FF4806206211F48FEF74EFD00220621A7
:101E00001C48FEF76DFD002206211A48FEF78CFDE6
:101E100006211848FEF7F4FD0023BB614FF48273DE
:101E2000FB614FF4E0633B6200237B620023BB62F3
:101E30004FF40073FB6200233B6300237B630023AA
:101E4000BB630723FB6307F1180319460A480AF02E
:101E50006BFF00210848FFF739F80748FFF749F8FA
:101E60000548FFF723F800BF4037BD4680BD00BFDF
:101E700000040240006402400054014080B586B076
:101E800000AF3B1D00221A605A609A60DA601A6146
:101E90000120FEF799FFFEF709FC0346002200210E
:101EA0001846FEF759FC034619461920FEF72AFC8E
:101EB0001920FEF709FC0023BB800023BB604FF60E
:101EC000FF73FB6000233B6100237B613B1D1946D0
:101ED0000C480BF01DF80B48FFF72BF800210948C0
:101EE000FFF7DAF800210748FFF7ECF80021054872
:101EF000FFF7FBF80348FFF70BF900BF1837BD46A3
:101F000080BD00BF0000014080B586B000AF3B1D22
:101F100000221A605A609A60DA601A610120FEF7A6
:101F20003BFFFEF7C3FB0346002202211846FEF7E3
:101F300013FC034619461C20FEF7E4FB1C20FEF7A9
:101F4000C3FB0023BB800023BB604FF0FF33FB606B
:101F500000233B613B1D19464FF080400AF0D8FF3B
:101F60004FF08040FEF7E5FF00214FF08040FFF783
:101F700093F800214FF08040FFF7A4F84FF0804025
:101F8000FFF7C6F800BF1837BD4680BD80B594B0D6
:101F900000AF07F13C0300221A605A609A60DA60D1
:101FA0001A6107F11C032022002118460CF0A0FB47
:101FB0003B1D00221A605A609A60DA601A615A6109
:101FC0000420FEF7E9FE0A23BB8700233B644CF2A2
:101FD00050337B644FF40073BB6407F13C03194634
:101FE00055480AF095FF5448FEF7A3FF00215248D8
:101FF000FFF752F801215048FEF7FEFF6023FB6116
:1020000000233B6200237B620023BB620023FB6250
:1020100007F11C031A46012147480BF013F8012170
:102020004548FEF797FF10214348FEF7E5FF07F10B
:102030001C031A46102140480BF004F810213E48BA
:10204000FEF788FF4FF480713B48FEF7D5FF07F19C
:102050001C031A464FF4807137480AF0F3FF4FF41F
:1020600080713548FEF776FF4FF480513248FEF715
:10207000C3FF07F11C031A464FF480512E480AF0A3
:10208000E1FF4FF480512C48FEF764FF00212A48FD
:10209000FFF718F82848FFF73BF80820FEF764FE22
:1020A0004FF480537B600223BB600023FB6000235E
:1020B0003B6100237B610223BB613B1D19461F4826
:1020C0000AF043F94FF400537B600223BB60002306
:1020D000FB6000233B6100237B610223BB613B1D4E
:1020E000194616480AF031F94FF480437B60022309
:1020F000BB600023FB6000233B6100237B61022364
:10210000BB613B1D19460D480AF01FF94FF400430F
:102110007B600223BB600023FB6000233B61002344
:102120007B610223BB613B1D194604480AF00DF98F
:1021300000BF5037BD4680BD00080040000C024083
:1021400080B58EB000AF07F11C0300221A605A6000
:102150009A60DA601A615A619A613B1D00221A6026
:102160005A609A60DA601A615A614FF04050FEF787
:102170006BFD4FF08040FEF70FFE1020FEF7F4FDE0
:1021800080237B600223BB600323FB6000233B6151
:1021900000237B610823BB613B1D194619480AF0E7
:1021A000D4F84FF480737B600223BB600323FB6091
:1021B00000233B6100237B610823BB613B1D194663
:1021C00010480AF0C2F84FF4E133FB6100233B6290
:1021D00000237B620023BB620C23FB6200233B6372
:1021E00000237B6307F11C03194607480BF04AFAEA
:1021F0000548FEF7F8FF0448FEF79AFF00BF38379E
:10220000BD4680BD001002400078004080B58EB011
:1022100000AF07F11C0300221A605A609A60DA606E
:102220001A615A619A613B1D00221A605A609A60D5
:10223000DA601A615A614FF44030FEF7EBFC10206F
:10224000FEF7C2FD0120FEF78FFD4FF400737B60A7
:102250000223BB600323FB6000233B6100237B61FF
:102260000723BB613B1D19462A480AF06EF84FF45C
:1022700080637B600223BB600323FB6000233B6120
:1022800000237B610723BB613B1D194621480AF0EF
:102290005CF84FF480537B600223BB600323FB6038
:1022A00000233B6100237B610723BB613B1D194673
:1022B00018480AF04AF84FF4E133FB6100233B620F
:1022C00000237B620023BB620C23FB6200233B6381
:1022D00000237B6307F11C0319460F480BF0D2F96A
:1022E0000D48FEF75DFF00210B48FEF769FF002156
:1022F0000948FEF741FF00210748FEF729FF06487D
:10230000FEF771FF0448FEF713FF00BF3837BD46E4
:1023100080BD00BF000002400010014080B58EB0BB
:1023200000AF07F11C0300221A605A609A60DA605D
:102330001A615A619A613B1D00221A605A609A60C4
:10234000DA601A615A614FF04060FEF763FC2020AA
:10235000FEF73AFD0420FEF707FD40237B600223D1
:10236000BB600323FB6000233B6100237B610823E8
:10237000BB613B1D1946214809F0E7FF80237B60C4
:102380000223BB600323FB6000233B6100237B61CE
:102390000823BB613B1D1946184809F0D6FFFEF71C
:1023A00085F9034600220B211846FEF7D5F90346AE
:1023B00019464720FEF7A6F94720FEF785F94FF4A6
:1023C000E133FB6100233B6200237B620023BB629D
:1023D0000C23FB6200233B6300237B6307F11C0398
:1023E000194607480BF04EF90548FEF7FCFE044875
:1023F000FEF79EFE00BF3837BD4680BD0008024094
:102400000014014080B500AF4FF48000FEF7ACFC33
:102410004FF40010FEF7A8FCFEF748F9034600222F
:1024200000211846FEF798F9034619460C20FEF7DE
:1024300069F90C20FEF748F900220A21382009F03A
:1024400024F9382009F03DF9FEF730F9034600225F
:102450000A211846FEF780F9034619464420FEF784
:1024600051F94420FEF730F9FEF720F90346002227
:1024700001211846FEF770F9034619464520FEF77C
:1024800041F94520FEF720F900BF80BD80B586B038
:1024900000AF3B4600221A605A609A60DA601A6107
:1024A0005A611020FEF760FC0420FEF75DFC8020DE
:1024B000FEF75AFC0120FEF757FC0220FEF754FC01
:1024C0000820FEF751FC0421BF48FEF7B0FE0821AA
:1024D000BD48FEF7ACFE1021BB48FEF7A8FE202148
:1024E000B948FEF7A4FE4021B748FEF7A0FE4FF41E
:1024F0000051B648FEF79BFE4FF48041B348FEF70B
:1025000096FE4FF40041B148FEF791FE4FF4006192
:10251000AD48FEF78CFE4FF40061AD48FEF787FE34
:102520004FF40041AA48FEF782FE0121A948FEF7B8
:102530007EFE0221A748FEF77AFE1021A548FEF78D
:1025400076FE2021A348FEF772FE4021A148FEF747
:102550006EFE0421A048FEF75CFE4FF480619A48AD
:10256000FEF757FE4FF400419748FEF752FE4FF436
:1025700080519948FEF74DFE4FF480719548FEF763
:1025800048FE4FF400719348FEF743FE4FF480611C
:102590009048FEF73EFE04218E48FEF73AFE802169
:1025A0008C48FEF736FE4FF480718B48FEF731FE03
:1025B0004FF400718848FEF72CFE01218248FEF797
:1025C00028FE02218048FEF724FE04233B600123FD
:1025D0007B600023BB600023FB6000233B613B4624
:1025E0001946794809F0B1FE08233B6001237B605E
:1025F0000023BB600023FB6000233B613B46194680
:10260000714809F0A2FE10233B6001237B60002388
:10261000BB600023FB6000233B613B4619466A48D0
:1026200009F093FE20233B6001237B600023BB6005
:102630000023FB6000233B613B461946624809F0DA
:1026400084FE40233B6001237B600023BB600023AA
:10265000FB6000233B613B4619465B4809F075FE71
:102660004FF400533B6001237B600023BB600023D9
:10267000FB6000233B613B461946544809F065FE68
:102680004FF480433B6001237B600023BB60002349
:10269000FB6000233B613B4619464C4809F055FE60
:1026A0004FF400433B6001237B600023BB600023A9
:1026B000FB6000233B613B461946444809F045FE58
:1026C00004233B6001237B600023BB600023FB608D
:1026D00000233B613B4619463F4809F036FE4FF464
:1026E00080633B6001237B600023BB600023FB60B1
:1026F00000233B613B461946334809F026FE4FF460
:1027000000633B6001237B600023BB600023FB6010
:1027100000233B613B4619462B4809F016FE4FF457
:1027200000433B6001237B600023BB600023FB6010
:1027300000233B613B461946234809F006FE4FF44F
:1027400080533B6001237B600023BB600023FB6060
:1027500000233B613B4619461F4809F0F6FD4FF444
:1027600080733B6001237B600323BB600023FB601D
:1027700000233B613B461946164809F0E6FD4FF43D
:1027800000733B6001237B600323BB600023FB607D
:1027900000233B613B4619460E4809F0D6FD4FF435
:1027A00080633B6001237B600323BB600023FB60ED
:1027B00000233B613B461946064809F0C6FD4FF42D
:1027C00000633B600AE000BF0010024000080240C6
:1027D00000000240000C02400004024000237B6025
:1027E00000233B613B4619467E4809F0AEFD4FF49D
:1027F00080733B6000237B6000233B613B461946AE
:10280000794809F0A2FD4FF400733B6000237B6020
:1028100000233B613B461946734809F096FD4FF48F
:1028200080733B6000237B6000233B613B4619467D
:102830006E4809F08AFD4FF400633B6001237B6022
:102840000023BB600023FB6000233B613B4619462D
:10285000664809F07AFD4FF400433B6001237B603A
:102860000023BB600023FB6000233B613B4619460D
:102870005E4809F06AFD01233B6001237B60002371
:10288000BB600023FB6000233B613B461946554873
:1028900009F05BFD02233B6001237B600023BB60EA
:1028A0000023FB6000233B613B4619464D4809F07D
:1028B0004CFD04233B6001237B600023BB600023AD
:1028C000FB6000233B613B461946464809F03DFD4D
:1028D00008233B6000237B6000233B613B46194695
:1028E000404809F032FD10233B6001237B60002348
:1028F000BB600023FB6000233B613B46194639481F
:1029000009F023FD20233B6001237B600023BB6093
:102910000023FB6000233B613B461946314809F028
:1029200014FD40233B6001237B600023BB60002338
:10293000FB6000233B613B4619462A4809F005FD30
:1029400080233B6001237B600023BB600023FB608E
:1029500000233B613B461946224809F0F6FC4FF440
:1029600080733B6001237B600023BB600023FB601E
:1029700000233B613B4619461D4809F0E6FC4FF435
:1029800000733B6001237B600023BB600023FB607E
:1029900000233B613B461946154809F0D6FC01234C
:1029A0003B6001237B600023BB600023FB600023AE
:1029B0003B613B4619460F4809F0C7FC02233B60C8
:1029C00001237B600023BB600023FB6000233B618D
:1029D0003B461946074809F0B8FC00BF1837BD460A
:1029E00080BD00BF000C0240000802400000024011
:1029F000000402400010024080B400AF72B600BF75
:102A000000BFFDE780B483B000AF0F4B1B6C0E4AD4
:102A100043F0805313640C4B1B6C03F080537B60BA
:102A20007B68094B5B6C084A43F480435364064B54
:102A30005B6C03F480433B603B6800BF0C37BD46D2
:102A40005DF8047B704700BF0038024080B58EB04F
:102A500000AF786007F1240300221A605A609A6080
:102A6000DA601A617B681B68634A93426CD1634BDE
:102A70005B6C624A43F480735364604B5B6C03F499
:102A800080733B623B6A5D4B1B6B5C4A43F0040303
:102A900013635A4B1B6B03F00403FB61FB69574B39
:102AA0001B6B564A43F002031363544B1B6B03F03A
:102AB0000203BB61BB693F237B620323BB6200232C
:102AC000FB6207F1240319464D4809F08DF90323F1
:102AD0007B620323BB620023FB6207F124031946D8
:102AE000484809F081F9484B484A1A60464B002291
:102AF0005A60454B00229A60434B0022DA60424BF9
:102B00004FF480621A61404B4FF400625A613E4BB1
:102B10004FF400529A613C4B4FF48072DA613A4BA9
:102B200000221A62384B00225A62374808F0E4FD4E
:102B30000346002B01D0FFF75FFF7B68324A9A63A0
:102B4000314A7B68936352E07B681B68304A93424A
:102B500024D12A4B5B6C294A43F400735364274BFE
:102B60005B6C03F400737B617B69244B1B6B234A12
:102B700043F001031363214B1B6B03F001033B6123
:102B80003B690C237B620323BB620023FB6207F1DA
:102B9000240319461F4809F027F928E07B681B68C1
:102BA0001D4A934223D1154B5B6C144A43F4806356
:102BB0005364124B5B6C03F48063FB60FB680F4B48
:102BC0001B6B0E4A43F0010313630C4B1B6B03F0AA
:102BD0000103BB60BB6802237B620323BB6200234B
:102BE000FB6207F1240319460A4809F0FDF800BF0B
:102BF0003837BD4680BD00BF00200140003802408C
:102C000000080240000402407C440020106402409E
:102C100000210140000002400022014080B400AFCA
:102C200000BFFDE780B400AF00BFFDE780B400AF98
:102C300000BFFDE780B400AF00BFFDE780B400AF88
:102C400000BFFDE780B400AF00BFBD465DF8047B68
:102C5000704780B400AF00BFBD465DF8047B70478D
:102C600080B400AF00BFBD465DF8047B704780B5FF
:102C700000AF07F06BFF07F0E1FF00BF80BD000071
:102C800080B500AF024808F045FE00BF80BD00BF20
:102C90007C44002080B400AF00BFBD465DF8047BDB
:102CA000704780B500AF01F017FF00BF80BD80B452
:102CB00000AF01231846BD465DF8047B704780B520
:102CC00082B000AF786039600BF072FD03461622C7
:102CD0001A604FF0FF3318460837BD4680BD80B5F7
:102CE00082B000AF78604FF0FF317868FFF7E7FF00
:102CF00000BFFDE780B586B000AFF860B9607A60CC
:102D000000237B610AE0AFF300800146BB685A1CD8
:102D1000BA60CAB21A707B6901337B617A697B68D9
:102D20009A42F0DB7B6818461837BD4680BD80B5F7
:102D300086B000AFF860B9607A6000237B6109E07B
:102D4000BB685A1CBA601B781846AFF300807B69D9
:102D500001337B617A697B689A42F1DB7B681846B4
:102D60001837BD4680BD80B483B000AF78604FF0A7
:102D7000FF3318460C37BD465DF8047B704780B4BE
:102D800083B000AF786039603B684FF400525A60FE
:102D9000002318460C37BD465DF8047B704780B4AD
:102DA00083B000AF7860012318460C37BD465DF84C
:102DB000047B704780B485B000AFF860B9607A607A
:102DC000002318461437BD465DF8047B70470000A9
:102DD00080B586B000AF7860144A154BD31A7B617A
:102DE0007B693B61134B1B68002B02D1114B124ACC
:102DF0001A60104B1A687B6813443A699A4207D2EA
:102E00000BF0D6FC03460C221A604FF0FF3309E0AA
:102E1000084B1B68FB60074B1A687B681344054A24
:102E20001360FB6818461837BD4680BD00000820B7
:102E300000040000DC440020D8E2002080B400AF91
:102E4000064BD3F88830054A43F47003C2F8883043
:102E500000BFBD465DF8047B704700BF00ED00E099
:102E6000DFF834D0FFF7EAFF0C480D490D4A002384
:102E700002E0D458C4500433C4188C42F9D30A4A2F
:102E80000A4C002301E013600432A242FBD30BF092
:102E900095FCFEF7DBF970470000082000000020D9
:102EA000884300209825010888430020D4E20020B0
:102EB000FEE780B500AF01F065FD01F0C3FE02F052
:102EC000B9FC00F097F800BF80BD80B500AF0120CD
:102ED00000F0B2F8042001F087FD00BF80BD80B58E
:102EE00000AF07F031FD00BF80BD000080B586B0A7
:102EF00002AF786039600E4BFB60292300930D4BC5
:102F0000FA680D490D4807F01BFA02F049FE03F07C
:102F100005FD03F0C3F97B68012283F851207B682B
:102F2000002283F8562000BF1037BD4680BD00BF89
:102F30008006010888060108B0060108E045002067
:102F400080B584B000AF786039607B685B69FB60F6
:102F50007B685B693968786898470346FB72FB7A3F
:102F6000002B08D1FB680649786898477B685B6945
:102F700004497868984700BF1037BD4680BD00BF40
:102F8000DC1D0108C81D010880B584B002AF78605F
:102F900039607B68002B03D10021134802F0C2FC8A
:102FA00078683B685A683B689B68009313460F4AF1
:102FB0000F4907F017FD3B681A687B685A617B6808
:102FC00018337A680E21184607F06EFD7B681833B7
:102FD000184607F0A1FD3B681A7B7B6883F84C20FC
:102FE00000BF0837BD4680BDB81D0108412F00084D
:102FF000ED2E000890B587B002AF12230093022394
:1030000024220949094807F00DFA094B3C460FCB29
:1030100084E80F003B4619460648FFF7B5FF00BF9E
:103020001437BD4690BD00BF4C45002070450020C0
:10303000D4060108E044002080B582B000AF03460A
:10304000FB71FB791946034807F0E6FC00BF08371F
:10305000BD4680BDE044002080B586B002AF7860F8
:1030600039603B681B88102B1CD0102B28DC012BEF
:1030700002D00F2B11D023E0144BFB605A23009396
:10308000134BFA681349144807F05AF97B68183350
:10309000184607F041FD012313E07B680F4A5A618F
:1030A00000230EE07B6803F140003B6802330C22F2
:1030B00019460BF0AAFB7B68094A5A61002300E01D
:1030C000022318461037BD4680BD00BF80060108A8
:1030D00088060108E4060108E0450020E530000804
:1030E0001133000880B590B002AF786039603B685A
:1030F0001B88013B122B00F2EF8001A252F823F053
:103100004D310008D932000803320008D9320008D6
:10311000D9320008D9320008D9320008D932000863
:10312000D9320008D9320008D9320008D932000853
:10313000D9320008C7320008D9320008D932000855
:1031400025320008593200088D320008654B7B6239
:1031500079230093644B7A6A6449654807F0F0F874
:103160007B681833002242F21071184607F0BEFC4B
:103170007B6893F82A301946786800F094F9594B27
:103180003B627B6893F82A3001937D230093564B72
:103190003A6A5849564807F0D3F8786800F0A5F91C
:1031A000504BFB617B6893F82A3001938023009396
:1031B0004D4BFA6950494E4807F0C2F87B68DB6A0C
:1031C000BB607B681B6BFB607B685B6B3B617B68F8
:1031D0001B8D7B617B6893F82A30BB617B6893F819
:1031E0002B30184602F046FD07F10803184603F09D
:1031F0001DF803F007FA7B68002283F84C200123B6
:103200006BE0384BBB6290230093374BBA6A3B4963
:10321000374807F095F87B681833184607F07CFCB0
:1032200001235AE02F4BFB62962300932E4BFA6A40
:1032300033492F4807F084F87B6893F84C30002B13
:1032400004D17B68012283F84C2003E07B680322D1
:1032500083F84C20012340E0224B3B63A1230093E1
:10326000214B3A6B2749224807F06AF87B6893F8AC
:103270004C30012B04D17B68022283F84C2003E000
:103280007B68032283F84C20012326E07B6893F8B7
:103290004C30022B04D17B68052283F84C2003E0DC
:1032A0007B68032283F84C200E4B7B63B023009392
:1032B0000D4B7A6B14490E4807F042F87B68134AAD
:1032C0005A61002309E07B68042283F84C207B6864
:1032D0000E4A5A61002300E0022318463837BD46E3
:1032E00080BD00BF80060108880601081C07010890
:1032F000E04500205807010878070108B0070108D9
:10330000EC070108180801084008010859300008B6
:1033100080B483B000AF78603960022318460C3760
:10332000BD465DF8047B704780B584B000AFF8609F
:10333000B9607A60BB68012B02D87B68642B01D925
:10334000062318E0FB6893F85130002B06D00020CC
:1033500002F0E2FBFB68002283F851207968B8682C
:1033600002F0C8FC7B68D9B2FA68BB6813444D33DD
:103370000A461A70002318461037BD4680BD80B437
:1033800085B000AF786039603B68002B02D0012324
:10339000FB6001E00023FB607A68FB6813444D3357
:1033A0001B7818461437BD465DF8047B704780B51E
:1033B00082B000AF786039603B68232B01D90623C7
:1033C00014E07B6893F85130012B06D0012002F005
:1033D000A3FB7B68012283F85120386802F016FCB9
:1033E0003B68DAB27B6883F84F2000231846083721
:1033F000BD4680BD80B582B000AF78607B6893F831
:103400005130012B06D0012002F086FB7B6801229F
:1034100083F8512002F00AFC7B68FF2283F84F20DA
:10342000002318460837BD4680BD80B582B000AF86
:10343000786039603B68072B01D9062314E07B686C
:1034400093F85130012B06D0012002F065FB7B6818
:10345000012283F85120386802F0F2FB3B68DAB2AF
:103460007B6883F85020002318460837BD4680BD8E
:1034700080B582B000AF78607B6893F85130012B43
:1034800006D0012002F048FB7B68012283F851201E
:1034900002F0E6FB7B68FF2283F8502000231846E9
:1034A0000837BD4680BD80B582B000AF7860396016
:1034B0003B68232B01D9062313E07B6893F8563031
:1034C000012B05D002F07AFF7B68012283F8562099
:1034D000386802F09BFF3B68DAB27B6883F85220C1
:1034E000002318460837BD4680BD80B582B000AFC6
:1034F00078607B6893F85630002B05D002F072FF9D
:103500007B68002283F85620002318460837BD4602
:1035100080BDB0B483B000AF786039603B681B8871
:10352000002B04D03B681B88B3F57A7F01D90623B2
:1035300028E03B689B78002B03D03B689B78242BCA
:1035400001D906231EE03B68DB78642B01D90623F2
:1035500018E03B681B69B3F5006F01D9062311E041
:103560003B685B69002B01D106230BE07B683A685E
:1035700003F1280415460FCD0FC495E8030084E835
:103580000300002318460C37BD46B0BC7047B0B4EA
:1035900083B000AF786039603A687B68154603F104
:1035A00028040FCC0FC594E8030085E8030000BF92
:1035B0000C37BD46B0BC704780B584B000AF7860B2
:1035C0007B682833FB60FB681B88002B04D0FB68FA
:1035D0001B88B3F57A7F01D906231CE0FB689B7832
:1035E000002B03D0FB689B78242B01D9062312E023
:1035F000FB68DB78642B01D906230CE0FB681B69B0
:10360000B3F5006F01D9062305E07B68044918462D
:1036100007F02CFA002318461037BD4680BD00BFC6
:10362000F01D010880B584B000AFF860B9607A6021
:10363000BB681B685800BB685B685B007A6819460A
:1036400003F088F900BF03F0A5F90346002BFAD078
:1036500000BF00BF1037BD4680BD000080B400AF82
:10366000BFF34F8F00BF064BDB6803F4E0620449F1
:10367000044B1343CB60BFF34F8F00BF00BFFDE788
:1036800000ED00E00400FA0580B588B000AFF860F6
:10369000B9607A6007F11403074A0A2118460AF054
:1036A000A1FE07F114031946F86805F00AFA00BFF5
:1036B0002037BD4680BD00BF5810010880B584B0DA
:1036C00000AFF860B9607A60FFF7C8FF80B588B0D6
:1036D00000AFF860B9607A600023BB610023FB8211
:1036E000B86805F0DFFA03467B757B7D012B04D0BB
:1036F0002449F86806F05CFC40E00121B86805F058
:103700009BFA38613B691B78612B16D10023FB774C
:103710000FE0FB7F184602F0DBF80346FB82FA7FDE
:10372000B7F916301849F86806F042FCFB7F013300
:10373000FB77FB7F072BECD920E03B691B782F2B15
:1037400018D93B691B78372B14D838690AF070F800
:103750000346BB61B86902F0BBF80346FB820B4825
:1037600004F0E8FFB7F91630BA690749F86806F0BF
:103770001FFC03E00649F86806F01AFC2037BD4636
:1037800080BD00BF6010010880100108DCE000204F
:103790009010010880B588B000AFF860B9607A6019
:1037A000B86805F07FFA0346FB61FB69012B04D082
:1037B0001549F86806F0FCFB23E0144B1B6818461B
:1037C00001F01CFE034683F00103DBB2002B04D0A2
:1037D0000F49F86806F0ECFB13E00121B86805F02A
:1037E0002BFAB861B8690AF023F803467B61074BEE
:1037F0001B687969184601F0B6FF0649F86806F0BB
:10380000D7FB2037BD4680BD6010010804000020B2
:10381000A4100108F010010880B584B000AFF86072
:10382000B9607A600A4B1B68184601F0B5FF034681
:10383000002B04D00749F86806F0BAFB03E00649FC
:10384000F86806F0B5FB00BF1037BD4680BD00BF6D
:1038500004000020F81001080811010880B588B0A4
:1038600000AFF860B9607A60B86805F01BFA0346EB
:10387000BB61BB69012B04D03849F86806F098FB9E
:1038800069E0374B1B68184601F0B8FD034683F02A
:103890000103DBB2002B04D03249F86806F088FB44
:1038A00059E00121B86805F0C7F9786100233B6150
:1038B0007B691B78612B25D10023FB611EE0284B1F
:1038C0001B68F969184601F054FD38613B69002B0B
:1038D0000CD1234B1B680022F969184601F069FDE1
:1038E000FA692149F86806F063FB04E0FA691F49A8
:1038F000F86806F05DFBFB690133FB61FB69032B94
:10390000DDD928E07B691B782F2B24D97B691B78B4
:10391000332B20D8786909F08BFF0346FB61104BED
:103920001B68F969184601F024FD38613B69002BDA
:103930000CD10B4B1B680022F969184601F039FDC8
:10394000FA690949F86806F033FB04E0FA690749A7
:10395000F86806F02DFB2037BD4680BD60100108D9
:1039600004000020181101086011010874110108F9
:1039700080B588B000AFF860B9607A60B86805F0CB
:1039800091F90346FB61FB69012B04D01549F868E6
:1039900006F00EFB22E00121B86805F04DF9B86190
:1039A000B86909F045FF0346FB82FB8AB3F5FA7F4D
:1039B00004D3FB8A40F6B832934204D90A49F86826
:1039C00006F0F6FA0AE0094B1B68FA8A1146184617
:1039D00001F079FD0649F86806F0EAFA2037BD469D
:1039E00080BD00BF8C110108B41101080400002043
:1039F000E811010880B586B000AFF860B9607A6060
:103A0000084B1B68184601F0A4FB0346FB82FB8AA7
:103A10001A460549F86806F0CBFA00BF1837BD46CC
:103A200080BD00BF04000020F011010880B588B0FF
:103A300000AFF860B9607A60B86805F033F9034602
:103A4000BB61BB69042B04D02449F86806F0B0FAC6
:103A500041E00023FB613BE0FB699BB201339BB279
:103A60001946B86805F0E8F80346184609F0E0FE84
:103A70000346D9B207F11402FB6913440A461A70CF
:103A800007F11402FB6913441B78012B05D9FA696D
:103A90001349F86806F08CFA1DE007F11402FB697F
:103AA00013441B78002B08D10E4B1B68FA69D2B265
:103AB0001146184601F0D7FC07E00A4B1B68FA696B
:103AC000D2B21146184601F0ADFCFB690133FB612F
:103AD000FB69032BC0D92037BD4680BD14120108F5
:103AE000381201080400002080B586B000AFF860ED
:103AF000B9607A60154B1B68184601F0D7FC034685
:103B0000FB7400237B6115E0FA7C7B6942FA03F3C6
:103B100003F00103002B05D07A690D49F86806F01F
:103B200047FA04E07A690B49F86806F041FA7B69C4
:103B300001337B617B69032BE6D90749F86806F0FE
:103B400037FA00BF1837BD4680BD00BF0400002013
:103B500060120108781201089012010880B58CB03B
:103B600000AFF860B9607A60364B1B68184601F008
:103B700045FC034683F00103DBB2002B04D032493D
:103B8000F86806F015FA5AE0B86805F08BF80346B5
:103B9000BB62BB6A032B04D02C49F86806F008FA14
:103BA0004DE00121B86805F047F87862786A09F0BD
:103BB0003FFE03463B623B6A032B04D92449F86865
:103BC00006F0F6F93BE00221B86805F035F8F86137
:103BD000F86909F02DFE0346FB62FB6A012B02D94E
:103BE0000123FB6201E00023FB620321B86805F0BA
:103BF00023F8B861B86909F01BFE0346FB82FB8A13
:103C000040F6B832934204D91249F86806F0D0F968
:103C100015E00C4B1868FB8AFA6A396A01F023FD3B
:103C200038613B69002B04D00B49F86806F0C0F9F5
:103C300005E0FB8A3A6A0949F86806F0B9F93037B5
:103C4000BD4680BD0400002094120108B81201088E
:103C5000E41201080813010834130108481301088D
:103C600080B58AB000AFF860B9607A602F4B1B68EE
:103C7000184601F0C3FB034683F00103DBB2002BBF
:103C800004D02B49F86806F093F94CE0B86805F0C9
:103C900009F803467B627B6A022B04D02549F86849
:103CA00006F086F93FE00121B86804F0C5FF3862EC
:103CB000386A09F0BDFD0346FB61FB69032B04D99B
:103CC0001D49F86806F074F92DE00221B86804F087
:103CD000B3FFB861B86909F0ABFD03467B61134BD4
:103CE00018687B69002B14BF01230023DBB21A463E
:103CF000F96901F05EFB38613B69002B05D0FA6978
:103D00000E49F86806F054F90DE07B69002B05D0E8
:103D1000FA690B49F86806F04BF904E0FA690949B9
:103D2000F86806F045F92837BD4680BD040000203C
:103D30009412010860130108E412010880130108BD
:103D4000A4130108C013010880B588B000AFF86063
:103D5000B9607A60B86804F0A5FF0346FB61FB69AF
:103D6000012B04D01249F86806F022F91CE0012169
:103D7000B86804F061FFB861B86909F059FD0346FD
:103D8000FB75FB7D642B04D90A49F86806F010F92D
:103D90000AE0094B1B68FA7D1146184601F0AFFB9B
:103DA0000649F86806F004F92037BD4680BD00BF1B
:103DB000DC1301080014010804000020E8110108C8
:103DC00080B586B000AFF860B9607A60084B1B68B8
:103DD000184601F0AAFB0346FB75FB7D1A46054910
:103DE000F86806F0E5F800BF1837BD4680BD00BF93
:103DF000040000202414010880B588B000AFF860EA
:103E0000B9607A60B86804F04DFF0346BB61BB69D6
:103E1000042B04D02449F86806F0CAF841E00023D6
:103E2000FB613BE0FB699BB201339BB21946B8686A
:103E300004F002FF0346184609F0FAFC0346D9B223
:103E400007F11402FB6913440A461A7007F11402C1
:103E5000FB6913441B78012B05D9FA691349F868EB
:103E600006F0A6F81DE007F11402FB6913441B7865
:103E7000002B08D10E4B1B68FA69D2B211461846C6
:103E800001F081FB07E00A4B1B68FA69D2B21146C8
:103E9000184601F057FBFB690133FB61FB69032BFB
:103EA000C0D92037BD4680BD401401083812010832
:103EB0000400002080B586B000AFF860B9607A6079
:103EC000144B1B68184601F081FB0346FB7400236A
:103ED0007B6113E0FA7C7B6942FA03F303F0010390
:103EE000002B04D00C49F86806F062F803E00B4997
:103EF000F86806F05DF87B6901337B617B69032B11
:103F0000E8D90749F86806F053F800BF1837BD46EE
:103F100080BD00BF0400002068140108801401085F
:103F20009012010880B588B000AFF860B9607A607F
:103F3000B86804F0B7FE0346FB61FB69012B04D0AF
:103F40001549F86806F034F823E00121B86804F058
:103F500073FEB861B86909F06BFC0346FB820F4B36
:103F60001B68B7F916201146184601F052FBB7F945
:103F7000163007EE903AB8EEE77AF2EE046AC7EE32
:103F8000267AB7EEE77A53EC172B0549F86806F066
:103F90000FF82037BD4680BD9C14010804000020A6
:103FA000C414010880B586B000AFF860B9607A60CB
:103FB0000E4B1B68184601F03CFB0346FB82B7F929
:103FC000163007EE903AB8EEE77AF2EE046AC7EEE2
:103FD000267AB7EEE77A53EC172B0549F86805F017
:103FE000E7FF00BF1837BD4680BD00BF04000020BA
:103FF000E414010880B588B000AFF860B9607A6059
:10400000B86804F04FFE0346FB61FB69012B04D046
:104010001049F86805F0CCFF19E00121B86804F0F8
:104020000BFEB861B86909F003FC03467B617B694C
:10403000072B04D90849F86805F0BAFF07E0074BD9
:104040001B687A69D2B21146184601F0CCFA2037C3
:10405000BD4680BD08150108201501080400002098
:1040600080B586B000AFF860B9607A600023FB7558
:10407000084B1B68184601F0E9FA0346FB75FB7D07
:104080001A460549F86805F093FF00BF1837BD468A
:1040900080BD00BF040000204015010880B584B039
:1040A00000AFF860B9607A60064B1B68184601F0F3
:1040B0005DF80549F86805F07BFF00BF1037BD4685
:1040C00080BD00BF040000205015010880B584B0F9
:1040D00000AFF860B9607A60064B1B68184601F0C3
:1040E00061F80549F86805F063FF00BF1037BD4669
:1040F00080BD00BF040000206415010880B588B0B1
:1041000000AFF860B9607A60B86804F0CBFD034690
:10411000FB61FB69012B04D01449F86805F048FFE6
:1041200021E00121B86804F087FDB861B86909F0A1
:104130007FFB0346FB82B7F91630642B04DD0C4984
:10414000F86805F035FF0EE00A4B1B68B7F916203A
:1041500000211846FFF7E8F8B7F916301A46064965
:10416000F86805F025FF2037BD4680BD78150108A9
:10417000A015010808000020C415010880B588B00A
:1041800000AFF860B9607A60B86804F08BFD034650
:10419000FB61FB69012B04D01449F86805F008FFA6
:1041A00021E00121B86804F047FDB861B86909F061
:1041B0003FFB0346FB82B7F91630642B04DD0C4944
:1041C000F86805F0F5FE0EE00A4B1B68B7F91620FB
:1041D00001211846FFF7A8F8B7F916301A46064924
:1041E000F86805F0E5FE2037BD4680BDE8150108FA
:1041F000A015010808000020C415010880B586B08C
:1042000000AFF860B9607A600B4B1B68002118465C
:10421000FFF7B5F87861084B1B6801211846FFF7D6
:10422000AEF838613B697A690449F86805F0C0FE68
:1042300000BF1837BD4680BD0800002030160108B9
:1042400080B588B000AFF860B9607A60B86804F0F3
:1042500029FD0346FB61FB69012B04D01249F86874
:1042600005F0A6FE1CE00121B86804F0E5FCB86189
:10427000B86909F0DDFA78617B69232B04DD0B490D
:10428000F86805F095FE0BE0094B1B687A6911464A
:104290001846FFF78CF87A690649F86805F088FE39
:1042A0002037BD4680BD00BF701601089416010876
:1042B00008000020B816010880B588B000AFF8608B
:1042C000B9607A60B86804F0EDFC0346FB61FB69F5
:1042D000012B04D01249F86805F06AFE1CE00121A8
:1042E000B86804F0A9FCB861B86909F0A1FA78616E
:1042F0007B69072B04DD0B49F86805F059FE0BE0DC
:10430000094B1B687A6911461846FFF78EF87A69DF
:104310000649F86805F04CFE2037BD4680BD00BF59
:10432000D4160108F8160108080000201817010823
:1043300080B584B000AFF860B9607A60044B1B6848
:104340001846FFF757F800BF1037BD4680BD00BFC5
:104350000800002080B584B000AFF860B9607A60D2
:10436000044B1B681846FFF783F800BF1037BD46A3
:1043700080BD00BF0800002080B598B006AFF8608F
:10438000B9607A60B86804F08DFC03467B647B6C8E
:10439000062B04D06049F86805F00AFEB8E0012158
:1043A000B86804F049FC0346184609F041FA034690
:1043B0003B643B6C002B03D03B6CB3F57A7F04D994
:1043C0005649F86805F0F4FDA2E00221B86804F04F
:1043D00033FC0346184609F02BFA0346FB63FB6BDC
:1043E000002B02D0FB6B242B04D94D49F86805F053
:1043F000DFFD8DE00321B86804F01EFC034618467B
:1044000009F016FA0346BB63BB6B642B04D945491C
:10441000F86805F0CDFD7BE00421B86804F00CFCE1
:104420000346184609F004FA03467B637B6B002BB6
:1044300004D13D49F86805F0BBFD69E00521B86885
:1044400004F0FAFB0346184609F0F2F903463B6311
:104450003B6B002B04D13549F86805F0A9FD57E006
:104460000621B86804F0E8FB0346184609F0E0F9B5
:104470000346FB62FB6A002B04D12D49F86805F066
:1044800097FD45E07A6B3B6B1A44FB6A13443A6C28
:1044900002FB03F3274AA2FB03239B0CBB62BB6A0C
:1044A000B3F5006F04D92449F86805F081FD2FE0C9
:1044B0003B6C9BB23B82FB6BDBB2BB74BB6BDBB276
:1044C000FB747B6B7B613B6BBB61FB6AFB61BB6A13
:1044D0003B621A4A3B6CB2FBF3F37B62184B1B68DE
:1044E00007F1100211461846FFF713F87B6A05938F
:1044F000BB6A0493FB6A03933B6B02937B6B019350
:10450000BB6B0093FB6B3A6C0E49F86805F050FDED
:104510004837BD4680BD00BF341701089417010815
:10452000BC170108DC170108FC1701082018010856
:104530004818010883DE1B436C18010840420F0035
:104540000800002094180108F0B591B006AFF8609B
:10455000B9607A60114B1B6807F1100211461846CA
:10456000FFF715F83B8A1E46BB7C9C46FB7C1D462C
:104570007B69BA69F969386A7C6A05940490039189
:10458000029201930095634632460549F86805F0AA
:104590000FFD00BF2C37BD46F0BD00BF0800002056
:1045A0001819010880B584B000AFF860B9607A606E
:1045B0000A4B1B681846FEF7FFFF0346002B04D08A
:1045C0000749F86805F0F4FC03E00649F86805F0CF
:1045D000EFFC00BF1037BD4680BD00BF08000020C3
:1045E00090190108B019010880B5ADF6080D00AFAB
:1045F00007F60803A3F2FC73186007F60803A3F597
:104600000063196007F60803A3F604031A6007F6AF
:104610000803A3F50063186804F044FB0346C7F8D9
:104620000038D7F80038022B08D007F60803A3F2A9
:10463000FC735149186805F0BBFC98E007F60803C5
:10464000A3F500630121186804F0F6FA0346184642
:1046500009F0EEF80346C7F8F037D7F8F037B3F5AE
:10466000001F08D307F60803A3F2FC734349186838
:1046700005F09EFC7BE007F60803A3F5006302212A
:10468000186804F0D9FA0346184609F0D1F8034631
:10469000C7F8F437D7F8F427D7F8F037C3F5001385
:1046A0009A420CD9D7F8F037C3F5001207F6080381
:1046B000A3F2FC733249186805F07AFC57E0D7F88A
:1046C000F437C7F8E837D7F8F037C7F8E43742E0EF
:1046D000D7F8E837B3F57A7F28BF4FF47A73C7F875
:1046E000FC37284B1B6807F1140207F2E4711846E7
:1046F000FEF798FF0023C7F8043818E007F6080310
:10470000A3F2F473D7F8042833F812301A4607F6E8
:104710000803A3F2FC731C49186805F049FC01204A
:1047200009F050F8D7F804380133C7F80438D7F83F
:104730000428D7F8FC379A42E0D3D7F8E827D7F80F
:10474000FC37D31AC7F8E837D7F8E427D7F8FC378F
:104750001344C7F8E437D7F8E837002BB8D107F689
:104760000803A3F2FC730949186805F021FC07F659
:104770000807BD4680BD00BFC8190108F819010827
:10478000241A010808000020501A0108901201089C
:1047900080B400AF024B1846BD465DF8047B7047FD
:1047A000041E010880B400AF22231846BD465DF800
:1047B000047B704780B483B000AF78607B68DB69AE
:1047C00003F00803082B01D1012300E00023184661
:1047D0000C37BD465DF8047B704780B483B000AFF2
:1047E00078607B68DB6903F02003202B01D1012373
:1047F00000E0002318460C37BD465DF8047B704787
:1048000080B483B000AF78607B6808221A6200BF72
:104810000C37BD465DF8047B704780B483B000AFB1
:1048200078607B685B6ADBB218460C37BD465DF882
:10483000047B704780B500AF4FF480720A490B4883
:1048400005F04AFF4FF4006209490A4805F044FFA9
:10485000084B064A0849094805F08FFC074805F04F
:10486000A8FC00BF80BD00BF18460020F045002016
:10487000184700200446002000140140E0450020B5
:10488000B0B588B000AF154B3C1D1D460FCD0FC411
:1048900095E8070084E80700FFF77AFF0346BB614D
:1048A000FFF780FF0346BB833B1D184603F0C7FF9D
:1048B00003460B4A13600A4B1B68002B05D10121EC
:1048C000084801F02FF8012304E0054B1B68064A55
:1048D0001A60002318462037BD46B0BD601A010893
:1048E000184F002034210108ED48000880B582B03F
:1048F00000AF78600B46FB70FB781946034805F063
:10490000BFFC00BF0837BD4680BD00BFE0450020AA
:1049100080B584B002AF786039607B68002B03D12A
:104920000021154800F0FEFF78683B68DA683B68B4
:104930001B6900931346114A114906F053F87B682E
:1049400020337A680921184606F0AEF83B685A68A9
:104950007B68DA613B689A687B689A613B681A6891
:104960007B685A617B682033184606F0D5F800BF93
:104970000837BD4680BD00BF342101083D4A00080C
:10498000094A000880B588B002AFFFF753FF022341
:104990000093022304220D490D4805F043FDFFF763
:1049A0006FFF0C4B7B600C4B1B68BB600B4BFB60C1
:1049B0000B4B3B61064B7B613B1D19460948FFF7DA
:1049C000A7FF00BF1837BD4680BD00BFC04500200F
:1049D000C44500203D4A0008184F0020E045002053
:1049E000BC4500208C45002080B582B000AF034656
:1049F000FB71FB791946034806F00EF800BF083733
:104A0000BD4680BD8C45002080B582B000AF786087
:104A100039607B68002B03D10721074800F082FF33
:104A20007B6820330A220A21184606F05FF800BF8F
:104A30000837BD4680BD00BF3421010880B582B073
:104A400000AF786039607B68002B03D103210D48EB
:104A500000F068FF3B68002B03D10421094800F0F7
:104A600061FF3B681B88092B06D1074B1B68184662
:104A700003F097FF012300E0022318460837BD46E4
:104A800080BD00BF34210108184F002080B582B0DE
:104A900000AF0F48FFF7A1FE0346002B0BD00C48D8
:104AA000FFF7BBFE0346FB710A4B1B68FA79114600
:104AB000184603F053FF0648FFF77CFE0346002B21
:104AC00002D00348FFF79CFE00BF0837BD4680BDFB
:104AD00000140140184F002080B500AFFFF7D6FF4B
:104AE000024805F062FC00BF80BD00BFE045002029
:104AF00080B586B002AF78603960114BFB6031231E
:104B00000093104BFA681049104805F019FC01F0A9
:104B10009FFF7B68012283F83020786800F00EFC4C
:104B2000786800F0EFFB786800F0FDFA7B682033CE
:104B3000184605F0F1FF00BF1037BD4680BD00BF2D
:104B40007C1A0108841A0108BC1A0108E0450020FB
:104B500080B584B000AF786039607B685B69FB60CA
:104B60007B685B693968786898470346FB72FB7A13
:104B7000002B08D1FB680649786898477B685B6919
:104B800004497868984700BF1037BD4680BD00BF14
:104B90005C2101084821010880B586B002AF786029
:104BA00039607B68002B03D10021234800F0BAFE56
:104BB00078683B685A683B689B68009313461F4AB5
:104BC0001F4905F00FFF7B6820337A680A211846D9
:104BD00005F06AFF3B681A687B685A617B680022AF
:104BE00083F830207B68002283F844207B68002211
:104BF00083F847207B68002283F848200023FB606D
:104C00000EE03A68FB6802339B0013445A687968E7
:104C1000FB680C339B000B445A60FB680133FB605C
:104C2000FB68032BEDD97B682033184605F074FF31
:104C300000BF1037BD4680BD3C210108514B000824
:104C4000F14A0008B0B58AB002AF122300930223E4
:104C500024220B490B4805F0E5FB0B4B3C1D1D4680
:104C60000FCD0FC495E8070084E807003B1D1946E7
:104C70000648FFF791FF00BF2037BD46B0BD00BF1B
:104C8000805F0020A45F0020D01A01081C5F002074
:104C900080B586B002AF786039603B681B88012B15
:104CA00002D00B2B18D04BE0284BFB606C230093F9
:104CB000274BFA682749284805F042FB7B682033D8
:104CC000184605F029FF786800F01CFB786800F0B2
:104CD0002AFA7B6801229A613B689B78042B2DD1CC
:104CE0007B6893F83030002B09D10121786800F0FF
:104CF0003AFD786800F022FB786800F003FB7B68DF
:104D000093F84630184600F0E3FD03467B817B684C
:104D1000B3F94A30B7F90A209A4203DD7B680F4A9B
:104D20005A6102E07B680E4A5A617B682033642234
:104D30006421184605F0DAFE002302E0022300E0B9
:104D4000012318461037BD4680BD00BF7C1A0108FC
:104D5000841A0108EC1A0108E0450020654D00089E
:104D6000154E000880B586B002AF786039603B68A8
:104D70001B880B2B32D00B2B3BDC012B02D00A2BD8
:104D800016D036E01D4BBB60952300931C4BBA68D0
:104D90001C491D4805F0D4FA7B680022DA61002125
:104DA000786800F01BFA786800F05CF9012321E0D4
:104DB0007B6893F84630184600F08AFD0346FB8175
:104DC0007B68B3F94A30B7F90E209A4201DD01231E
:104DD00010E07B680D4A5A6100230BE03B689B782A
:104DE000052B04D17B680A4A5A61002302E00223A2
:104DF00000E0022318461037BD4680BD7C1A01082A
:104E0000841A0108281B0108E0450020154E0008FF
:104E1000914C000880B586B002AF786039603B687D
:104E20001B880B2B46D00B2B4FDC012B02D00A2BFF
:104E300015D04AE0274BBB60BA230093264BBA68D3
:104E40002649274805F07CFA7B680022DA617868F9
:104E500000F058FA786800F066F9012336E07B68C4
:104E600093F84630184600F033FD0346FB817B681B
:104E7000B3F94A30B7F90E209A4204DD7B68194A2B
:104E80005A61002322E07B68DB695A1C7B68DA6187
:104E90007B68DB691D2B08D87B68B3F94A301A465A
:104EA000B7F90E30D31A0A2B04DD7B680E4A5A611B
:104EB00000230BE03B689B78052B04D17B680B4AF1
:104EC0005A61002302E0022300E002231846103753
:104ED000BD4680BD7C1A0108841A0108641B0108C4
:104EE000E0450020654D0008F14E0008914C000897
:104EF00080B586B002AF786039603B681B880B2BA9
:104F00002ED00B2B37DC012B02D00A2B12D032E033
:104F10001B4BBB60E02300931A4BBA681A491B482D
:104F200005F00EFA7B680022DA61786800F0CDF8AF
:104F3000012321E07B6893F84630184600F0C8FC56
:104F40000346FB817B68B3F94A30B7F90E209A42D9
:104F500001DA012310E07B680D4A5A6100230BE05F
:104F60003B689B78052B04D17B680A4A5A61002371
:104F700002E0022300E0022318461037BD4680BD40
:104F80007C1A0108841A0108A81B0108E0450020CA
:104F9000994F0008914C000880B586B002AF786048
:104FA00039603B681B880B2B3DD00B2B46DC012B5B
:104FB00002D00A2B13D041E0234BBB604FF4817326
:104FC0000093224BBA682249224805F0B9F9786863
:104FD00000F098F9786800F0A6F801232FE07B68CC
:104FE00093F84630184600F073FC0346FB817B685B
:104FF000B3F94A30B7F90E209A4204DA7B68164AB0
:105000005A6100231BE07B68DB695A1C7B68DA610C
:105010007B68DB691D2B04D97B68104A5A61002329
:105020000DE001230BE03B689B78052B04D17B68E6
:105030000B4A5A61002302E0022300E002231846D3
:105040001037BD4680BD00BF7C1A0108841A0108D4
:10505000EC1B0108E0450020F14E0008654D0008FA
:10506000914C000880B584B000AF78607B6893F8FD
:105070004730BB730023FB731FE0BA7BFB7B42FA14
:1050800003F303F00103002B0AD0FB7B7A680C3397
:105090009B0013445B680121184602F0A5FE09E05D
:1050A000FB7B7A680C339B0013445B680021184635
:1050B00002F09AFEFB7B0133FB73FB7B032BDCD9F5
:1050C00000BF00BF1037BD4680BD80B584B000AFC3
:1050D00078607B6893F84930BB737B6893F84830FD
:1050E0007B730023FB7316E07A7BFB7B42FA03F3AE
:1050F00003F00103002B07D0FB7BBA7B92B2114671
:10510000184600F053FC03E0FB7B184600F090FCCF
:10511000FB7B0133FB73FB7B032BE5D900BF00BF97
:105120001037BD4680BD80B584B000AF78600023E5
:10513000FB7306E0FB7B184600F07AFCFB7B013337
:10514000FB73FB7B032BF5D900BF00BF1037BD46B7
:1051500080BD80B483B000AF78607B68B3F84C301A
:1051600018460C37BD465DF8047B704780B588B0A3
:1051700000AF786007F10C0300221A605A609A6051
:10518000DA601A820B23BB810423BB737B6807F1AF
:105190000C021146184605F069FC0023184620371A
:1051A000BD4680BD80B588B000AF786007F10C03C4
:1051B00000221A605A609A60DA601A820B23BB815F
:1051C0000523BB737B6807F10C021146184605F0F6
:1051D0004DFC002318462037BD4680BD2DE9F04F19
:1051E0008DB000AFF861B961FB6993F8473087F87B
:1051F0002B30FB69B3F84C303B850023FB6278E031
:1052000097F82B20FB6A42FA03F303F00103002B0B
:105210006CD0FA69FB6A0C339B0013445B689B7E7D
:1052200087F8273097F82730DBB203F00103002B13
:1052300008D1FA69FB6A0C339B0013445B6818467B
:1052400002F037FEFA69FB6A0C339B0013445B687B
:105250009B7E87F82730FA69FB6A0C339B00134466
:105260005B687B60BB69DEB23B8D00229A46934649
:1052700052465B464FF000004FF00001590141EAF1
:10528000D261500102460B46B2EB0A0463EB0B05F8
:105290004FF000024FF000036B0243EAD453620266
:1052A00014461D4614EB0A0845EB0B094FF00002AB
:1052B0004FF000034FEA891343EA98634FEA8812DC
:1052C000B2EB0801B96063EB0902FA60D7E90201A9
:1052D000024612EB0A023A610A4642EB0B027A617D
:1052E000D7E904233146786802F0C2FEFB6A013335
:1052F000FB62FB6A032B83D900BF00BF3437BD4676
:10530000BDE8F08F80B584B000AF78600023FB600B
:105310000CE07A68FB680C339B0013445B68002147
:10532000184602F061FDFB680133FB60FB68032B4C
:10533000EFD900BF00BF1037BD4680BD80B584B037
:1053400000AF78600023FB600BE07A68FB680C33E9
:105350009B0013445B68184602F0ABFDFB68013309
:10536000FB60FB68032BF0D900BF00BF1037BD46C0
:1053700080BD80B584B000AF786039603B68032B96
:1053800001D9062311E07A683B680C339B00134473
:105390005B68184602F08DFD0346FB7397F90F30EA
:1053A000002B01D0012300E0002318461037BD4632
:1053B00080BD80B586B000AFF860B9601346FB7160
:1053C000BB68032B01D9062313E0FA68BB680C33D2
:1053D0009B0013445B68FA791146184602F004FDFD
:1053E0000346FB7597F91730002B01D0012300E02D
:1053F000002318461837BD4680BD000080B483B036
:1054000000AF78607B685B69054A93420CBF01235B
:105410000023DBB218460C37BD465DF8047B7047AD
:10542000914C000880B483B000AF78600B46FB70ED
:10543000FB78032B01D906230FE07B6893F84730F4
:105440005AB2FB78012101FA03F35BB213435BB25A
:10545000DAB27B6883F84720002318460C37BD4634
:105460005DF8047B704780B483B000AF78600B4672
:10547000FB70FB78032B01D9062311E07B6893F8BE
:1054800047305AB2FB78012101FA03F35BB2DB43E8
:105490005BB213405BB2DAB27B6883F8472000232B
:1054A00018460C37BD465DF8047B704780B483B066
:1054B00000AF78607B6893F8473018460C37BD46DC
:1054C0005DF8047B704780B483B000AF78600B4612
:1054D0007B807B88B3F5FA7F04D37B8840F6B832B3
:1054E000934201D9062304E07B687A88A3F84C2014
:1054F000002318460C37BD465DF8047B704780B426
:1055000083B000AF78600B46FB70FB78642B01D949
:10551000062304E07B68FA7883F8492000231846C4
:105520000C37BD465DF8047B704780B483B000AF94
:1055300078607B6893F8493018460C37BD465DF8B3
:10554000047B704780B483B000AF78600B46FB707B
:10555000FB78032B01D906230FE07B6893F84830D2
:105560005AB2FB78012101FA03F35BB213435BB239
:10557000DAB27B6883F84820002318460C37BD4612
:105580005DF8047B704780B483B000AF78600B4651
:10559000FB70FB78032B01D9062311E07B6893F89D
:1055A00048305AB2FB78012101FA03F35BB2DB43C6
:1055B0005BB213405BB2DAB27B6883F84820002309
:1055C00018460C37BD465DF8047B704780B483B045
:1055D00000AF78607B6893F8483018460C37BD46BA
:1055E0005DF8047B704780B483B000AF78600B46F1
:1055F000FB70FB78072B01D9062304E07B68FA785F
:1056000083F84620002318460C37BD465DF8047B1E
:10561000704780B483B000AF78600B467B807B68B6
:105620007A88A3F84A2000BF0C37BD465DF8047B9A
:10563000704780B483B000AF78607B68B3F94A30BC
:1056400018460C37BD465DF8047B704780B483B0C4
:1056500000AF78607B6893F8463018460C37BD463B
:105660005DF8047B70472DE9F04F8BB000AFF86117
:10567000B9617A617B82BB69032B01D906236DE096
:10568000FA69BB690C339B0013445B689B7E87F807
:10569000273097F8273003F00103002B0DD0FA696B
:1056A000BB690C339B0013445B68184602F001FC95
:1056B0000346002B01D0012350E0FA69BB690C338B
:1056C0009B0013445E687B695FFA83FC7B8A00223F
:1056D0009A46934652465B464FF000004FF0000159
:1056E000590141EAD261500102460B46B2EB0A046D
:1056F00063EB0B054FF000024FF000036B0243EA2F
:10570000D453620214461D4614EB0A0845EB0B09FC
:105710004FF000024FF000034FEA891343EA986309
:105720004FEA8812B2EB0801396063EB09037B6032
:10573000D7E900120B4613EB0A03BB60134643EB99
:105740000B03FB60D7E902236146304602F090FC70
:105750000346002B01D0012300E0002318462C371C
:10576000BD46BDE8F08F80B582B000AF786039608B
:105770003B68002B06D001F06BF97B68012283F8AF
:10578000302005E001F070F97B68002283F83020BA
:1057900000BF0837BD4680BD80B483B000AF7860DD
:1057A0007B6893F83030002B14BF01230023DBB259
:1057B00018460C37BD465DF8047B704780B582B053
:1057C00000AF786039607B6814330A220A211846DA
:1057D00005F08CF900BF0837BD4680BD80B584B0A8
:1057E00002AF786039607B68002B03D100210E483E
:1057F00000F098F878683B685A683B689B680093AB
:1058000013460A4A0A4905F0EDF87B6814337A68B2
:105810000D21184605F048F93B681A687B685A6202
:1058200000BF0837BD4680BD7021010879580008C7
:10583000BD57000880B586B002AF02230093042351
:1058400008220949094804F0EDFD094A3B1D07CA31
:1058500083E807003B1D19460648FFF7BFFF00BF5E
:105860001037BD4680BD00BFFC5F002004600020F3
:105870002C1C0108C05F002090B585B000AF786097
:1058800039603B681B880C2B02D00D2B17D01AE017
:105890000023FB730EE0FB7BFC7B184600F04CFA08
:1058A000034619467B6804F1140223F81210FB7BAF
:1058B0000133FB73FB7B072BEDD9012304E000F0E0
:1058C0002DFA012300E0022318461437BD4690BD8F
:1058D00080B483B000AF7860054A7B68143332F936
:1058E000133018460C37BD465DF8047B704700BF87
:1058F000C05F002080B400AF054B1B68044A43F032
:105900000203136000BFBD465DF8047B704700BF13
:1059100010E000E080B400AF62B600BFBD465DF8A5
:10592000047B704780B483B000AF7860396072B692
:1059300000BF0C37BD465DF8047B704780B483B070
:1059400000AF786039607B683A685A6300BF0C37F3
:10595000BD465DF8047B704780B483B000AF7860CB
:1059600039607B683A689A6300BF0C37BD465DF8C2
:10597000047B704780B483B000AF786039607B6887
:105980003A68DA6300BF0C37BD465DF8047B7047A8
:1059900080B483B000AF786039607B683A681A647D
:1059A00000BF0C37BD465DF8047B704780B584B0FE
:1059B00000AF78600B467B807B88642B01D9642321
:1059C0007B807B881A465201D21A920013449B00B6
:1059D000FB817B68032B23D801A252F823F000BF80
:1059E000F1590008FD590008095A0008155A000825
:1059F000FB8919460D48FFF7A1FF12E0FB89194604
:105A00000A48FFF7A9FF0CE0FB8919460748FFF792
:105A1000B1FF06E0FB8919460448FFF7B9FF00E033
:105A200000BF00BF1037BD4680BD00BF000800406A
:105A300080B582B000AF78607B68032B1ED801A2CE
:105A400052F823F0555A00085F5A0008695A0008B6
:105A5000735A000800210C48FFF770FF0FE0002187
:105A60000948FFF779FF0AE000210748FFF782FFA6
:105A700005E000210448FFF78BFF00E000BF00BFF6
:105A80000837BD4680BD00BF0008004080B483B029
:105A900000AF78607B681B6843F040027B681A6047
:105AA00000BF0C37BD465DF8047B704780B483B0FF
:105AB00000AF78607B681B6823F040027B681A6047
:105AC00000BF0C37BD465DF8047B704780B483B0DF
:105AD00000AF786039607B681B6823F001023B6887
