:020000040800F2
:1000000000000820D1310008952F00089D2F00081E
:10001000A52F0008AD2F0008B52F00080000000034
:10002000000000000000000000000000BD2F0008DC
:10003000CB2F000800000000D92F0008E72F000890
:100040002132000821320008213200082132000844
:100050002132000821320008213200082132000834
:100060002132000821320008213200082132000824
:100070002132000821320008213200082132000814
:100080002132000821320008213200082132000804
:1000900021320008213200082132000821320008F4
:1000A00021320008213200082132000821320008E4
:1000B00021320008213200082132000821320008D4
:1000C00021320008213200082132000821320008C4
:1000D00021320008213200082132000821320008B4
:1000E00021320008213200082132000821320008A4
:1000F0002132000821320008213200082132000894
:100100002132000821320008213200082132000883
:100110002132000821320008213200082132000873
:10012000F72F000821320008213200082132000890
:100130002132000821320008213200082132000853
:100140002132000821320008213200082132000843
:100150002132000821320008213200080530000851
:100160002132000821320008213200082132000823
:10017000213200082132000821320008000000006E
:100180002132000821320008213200082132000803
:1001900021320008213200082132000821320008F3
:1001A0000000000000000000213200082132000899
:1001B00021320008213200082132000821320008D3
:1001C000213200082132000800000000213200081E
:1001D00021320008213200082132000821320008B3
:1001E00021320008213200082132000821320008A3
:0801F0000000000021320008AC
:1002000010B5054C237833B9044B13B10448AFF350
:1002100000800123237010BDEC430020000000008B
:100220007C2E010808B5034B1BB103490348AFF30B
:10023000008008BD00000000F04300207C2E010873
:1002400010F8012B11F8013B012A28BF9A42F7D080
:10025000D01A7047000000000000000000000000FD
:1002600001F0FF01102A2BDB10F0070F08D010F867
:10027000013B013A8B422DD010F0070F42B3F6D16B
:10028000F0B441EA012141EA014122F007047FF084
:1002900000070023F0E80256083C85EA010586EADB
:1002A000010685FA47F5A3FA87F586FA47F6A5FA17
:1002B00087F68EB9EED1F0BC01F0FF0102F0070223
:1002C00032B110F8013B013A83EA010313B1F8D1CE
:1002D0000020704701387047002D06BF35460338AF
:1002E000073815F0010F07D1013015F4807F02BFE8
:1002F000013015F4C03F0130F0BC0138704700BF39
:10030000034613F8012B002AFBD1181A0138704755
:1003100081F0004102E000BF83F0004330B54FEAB6
:1003200041044FEA430594EA050F08BF90EA020F23
:100330001FBF54EA000C55EA020C7FEA645C7FEAB6
:10034000655C00F0E2804FEA5454D4EB5555B8BFD9
:100350006D420CDD2C4480EA020281EA030382EA4A
:10036000000083EA010180EA020281EA0303362DDC
:1003700088BF30BD11F0004F4FEA01314FF4801CAF
:100380004CEA113102D0404261EB410113F0004FC1
:100390004FEA03334CEA133302D0524263EB430378
:1003A00094EA050F00F0A780A4F10104D5F1200E16
:1003B0000DDB02FA0EFC22FA05F2801841F1000171
:1003C00003FA0EF2801843FA05F359410EE0A5F145
:1003D00020050EF1200E012A03FA0EFC28BF4CF076
:1003E000020C43FA05F3C01851EBE37101F000452C
:1003F00007D54FF0000EDCF1000C7EEB00006EEB39
:100400000101B1F5801F1BD3B1F5001F0CD34908C2
:100410005FEA30004FEA3C0C04F101044FEA445219
:1004200012F5800F80F09A80BCF1004F08BF5FEAA0
:10043000500C50F1000041EB045141EA050130BD80
:100440005FEA4C0C404141EB0101013C28BFB1F592
:10045000801FE9D291F0000F04BF01460020B1FADD
:1004600081F308BF2033A3F10B03B3F120020CDAB0
:100470000C3208DD02F1140CC2F10C0201FA0CF08E
:1004800021FA02F10CE002F11402D8BFC2F1200CF3
:1004900001FA02F120FA0CFCDCBF41EA0C019040A9
:1004A000E41AA2BF01EB0451294330BD6FEA0404F2
:1004B0001F3C1CDA0C340EDC04F11404C4F12002DD
:1004C00020FA04F001FA02F340EA030021FA04F3EF
:1004D00045EA030130BDC4F10C04C4F1200220FA46
:1004E00002F001FA04F340EA0300294630BD21FA84
:1004F00004F0294630BD94F0000F83F4801306BF4A
:1005000081F480110134013D4EE77FEA645C18BF3D
:100510007FEA655C29D094EA050F08BF90EA020FD4
:1005200005D054EA000C04BF1946104630BD91EACC
:10053000030F1EBF0021002030BD5FEA545C05D1CF
:100540004000494128BF41F0004130BD14F580040E
:100550003CBF01F5801130BD01F0004545F0FE4182
:1005600041F470014FF0000030BD7FEA645C1ABFB7
:10057000194610467FEA655C1CBF0B46024650EAEE
:10058000013406BF52EA033591EA030F41F400211A
:1005900030BD00BF90F0000F04BF0021704730B5A0
:1005A0004FF4806404F132044FF000054FF0000175
:1005B00050E700BF90F0000F04BF0021704730B536
:1005C0004FF4806404F1320410F0004548BF40420B
:1005D0004FF000013EE700BF42004FEAE2014FEA60
:1005E00031014FEA02701FBF12F07F4393F07F4F3B
:1005F00081F06051704732F07F4208BF704793F03E
:100600007F4F04BF41F40021704730B54FF4607450
:1006100001F0004521F000411CE700BF50EA010253
:1006200008BF704730B54FF000050AE050EA0102FC
:1006300008BF704730B511F0004502D5404261EB6C
:1006400041014FF4806404F132045FEA915C3FF4AD
:10065000D8AE4FF003025FEADC0C18BF03325FEA4A
:10066000DC0C18BF033202EBDC02C2F1200300FAFB
:1006700003FC20FA02F001FA03FE40EA0E0021FA20
:1006800002F11444BDE600BF80F0004002E000BF6C
:1006900081F0004142001FBF5FEA410392EA030F6D
:1006A0007FEA226C7FEA236C6AD04FEA1262D2EBB7
:1006B0001363C1BFD218414048404140B8BF5B42BC
:1006C000192B88BF704710F0004F40F4000020F055
:1006D0007F4018BF404211F0004F41F4000121F06B
:1006E0007F4118BF494292EA030F3FD0A2F10102B5
:1006F00041FA03FC10EB0C00C3F1200301FA03F1F3
:1007000000F0004302D5494260EB4000B0F5000F15
:1007100013D3B0F1807F06D340084FEA310102F1D4
:100720000102FE2A51D2B1F1004F40EBC25008BF86
:1007300020F0010040EA03007047490040EB000050
:10074000013A28BFB0F5000FEDD2B0FA80FCACF151
:10075000080CB2EB0C0200FA0CF0AABF00EBC2507E
:1007600052421843BCBFD0401843704792F0000F6C
:1007700081F4000106BF80F400000132013BB5E7BF
:100780004FEA41037FEA226C18BF7FEA236C21D035
:1007900092EA030F04D092F0000F08BF084670479A
:1007A00090EA010F1CBF0020704712F07F4F04D168
:1007B000400028BF40F00040704712F100723CBF7B
:1007C00000F50000704700F0004343F0FE4040F4A5
:1007D000000070477FEA226216BF08467FEA236363
:1007E0000146420206BF5FEA412390EA010F40F44E
:1007F000800070474FF0000304E000BF10F000439A
:1008000048BF40425FEA000C08BF704743F0964380
:1008100001464FF000001CE050EA010208BF70479B
:100820004FF000030AE000BF50EA010208BF704722
:1008300011F0004302D5404261EB41015FEA010C37
:1008400002BF84460146002043F0B64308BFA3F12F
:100850008053A3F50003BCFA8CF2083AA3EBC25311
:1008600010DB01FA02FC634400FA02FCC2F1200230
:10087000BCF1004F20FA02F243EB020008BF20F067
:100880000100704702F1200201FA02FCC2F12002CD
:1008900050EA4C0021FA02F243EB020008BF20EAC2
:1008A000DC7070477BB972B90029BEBF00204FF0E1
:1008B000004106E008BF00281CBF6FF000414FF068
:1008C000FF3000F00DBAADF1080C6DE904CE00293F
:1008D00009DB002B1ADB00F087F8DDF804E0DDE926
:1008E000022304B07047404261EB4101002B1BDB47
:1008F00000F07AF8DDF804E0DDE9022304B04042BC
:1009000061EB4101524263EB43037047524263EB98
:10091000430300F069F8DDF804E0DDE9022304B0E8
:10092000404261EB41017047524263EB430300F0E8
:100930005BF8DDF804E0DDE9022304B0524263EB2A
:100940004303704753B94AB9002908BF00281CBFA8
:100950004FF0FF314FF0FF3000F0C2B9ADF1080C9D
:100960006DE904CE00F040F8DDF804E0DDE9022393
:1009700004B0704708B502460B4643EC172BB5EEA2
:10098000C07BF1EE10FA03D4BDE8084000F00CB8CB
:10099000B1EE477B51EC170B00F006F8404261EBDB
:1009A000410108BD000000009FED0B6B41EC170BEF
:1009B0009FED0B5B27EE066BBCEEC66BB8EE464BAD
:1009C000A4EE457BFCEEC77B16EE101A17EE900ADC
:1009D000704700BFAFF30080000000000000F03D52
:1009E000000000000000F0412DE9F047089D8E4610
:1009F00004468846002B4AD18A42174662D9B2FA89
:100A000082F64EB1C6F1200301FA06F820FA03F38C
:100A1000B74043EA0808B4404FEA174E1FFA87FC74
:100A2000B8FBFEF1230C0EFB118843EA084301FBDF
:100A30000CF29A4209D9FB1801F1FF3080F0EA80EC
:100A40009A4240F2E78002393B449A1AA3B2B2FBC1
:100A5000FEF00EFB102243EA024300FB0CFC9C4517
:100A600009D9FB1800F1FF3280F0D6809C4540F296
:100A7000D3803B44023840EA0140A3EB0C03002141
:100A80001DB1F3400022C5E90032BDE8F0878B427A
:100A900005D90DB1C5E9000100210846F5E7B3FA13
:100AA00083F1002946D1734502D3824200F20581C9
:100AB000841A6EEB030201209046002DE5D0C5E9B3
:100AC0000048E2E7002A00F09080B2FA82F6002E99
:100AD00040F0A4808A1A030C4FEA174E80B2BCB2D1
:100AE0000121B2FBFEFC0EFB1C2243EA024304FB85
:100AF0000CF29A4207D9FB180CF1FF3802D29A4245
:100B000000F2E080C4469B1AB3FBFEF20EFB1233E8
:100B100040EA034302FB04F49C4207D9FB1802F1AC
:100B2000FF3002D29C4200F2CA8002461B1B42EAFE
:100B30000C40A5E7C1F120068B4022FA06F71F43BF
:100B40000EFA01F420FA06F32EFA06FE4FEA1749D0
:100B5000234300FA01F81FFA87FCBEFBF9F01C0CD6
:100B600009FB10EE44EA0E4400FB0CFEA64502FA17
:100B700001F209D93C1900F1FF3A80F09C80A645AA
:100B800040F2998002383C44A4EB0E041FFA83FE25
:100B9000B4FBF9F309FB13444EEA044403FB0CFCD9
:100BA000A44508D93C1903F1FF3E80F08280A4459A
:100BB0007FD9023B3C4443EA0040A4EB0C04A0FB79
:100BC00002EC64457346E14662D35FD05DB1B8EB99
:100BD000030264EB090404FA06F622FA01F31E4349
:100BE000CC40C5E9006400214FE7B1FBF2FC010CE9
:100BF00041EA0E4180B240EA01423B4638463C465B
:100C0000B846BE462026B1FBF7F1A2EB080241EA46
:100C10000C4166E7014618E710462CE7C6F12002B2
:100C20002EFA02F3B740B14020FA02F24FEA174E13
:100C30000A43B3FBFEF8BCB20EFB1833110C41EAB9
:100C4000034108FB04F9B04089454FEA104380B2E4
:100C50003ED9791808F1FF3C01D289451FD8A1EB94
:100C60000901B1FBFEF909FB04F80EFB191192B260
:100C700042EA0142424529D2BA1809F1FF31C4D2F1
:100C80004245C2D2A9F102013A44BEE7F0459DD2E5
:100C9000BEEB02036CEB070C0138E14696E7A7EBCD
:100CA00009094944A8F1020CB1FBFEF909FB04F85B
:100CB000DBE773467FE7504666E70846FDE63B44C0
:100CC000023A33E7ACF1020C3B441CE749469CE78F
:100CD000A1EB0901C446B1FBFEF909FB04F8C4E726
:100CE000704700BF80B400AF044BDB681B0A03F001
:100CF00007031846BD465DF8047B704700ED00E031
:100D000080B483B000AF0346FB7197F90730002B26
:100D10000BDBFB7903F01F02074997F907305B09EA
:100D2000012000FA02F241F8232000BF0C37BD4633
:100D30005DF8047B704700BF00E100E080B483B041
:100D400000AF03463960FB7197F90730002B0ADBCF
:100D50003B68DAB20C4997F907301201D2B20B4462
:100D600083F800230AE03B68DAB20849FB7903F014
:100D70000F03043B1201D2B20B441A7600BF0C37AA
:100D8000BD465DF8047B704700E100E000ED00E047
:100D900080B489B000AFF860B9607A60FB6803F096
:100DA0000703FB61FB69C3F10703042B28BF04237E
:100DB000BB61FB690433062B02D9FB69033B00E0EE
:100DC00000237B614FF0FF32BB6902FA03F3DA4381
:100DD000BB681A407B699A404FF0FF317B6901FA8A
:100DE00003F3D9437B680B40134318462437BD46B1
:100DF0005DF8047B704780B489B000AFF860B960DB
:100E00007A60FB682C331946BB6803F440734FF4D7
:100E10004072BA61BA6992FAA2F27A617A69B2FA58
:100E200082F2D2B2D3409B000B44FB61FB691A688B
:100E3000BB6803F01F031F2101FA03F3DB431A40D1
:100E40007B6803F01F01BB6803F01F0301FA03F383
:100E50001A43FB691A6000BF2437BD465DF8047B66
:100E6000704780B483B000AF786039607B689B685E
:100E700023F480623B681A437B689A6000BF0C379A
:100E8000BD465DF8047B704780B48DB000AFF8605C
:100E9000B9607A60FB680C331946BB6803F00073D5
:100EA0004FF00072BA61BA6992FAA2F27A617A6975
:100EB000B2FA82F2D2B2D3409B000B44FB62FB6ACF
:100EC0001A68BB6803F0F8734FF0F8713962396A39
:100ED00091FAA1F1F961F969B1FA81F1C9B2CB4096
:100EE000072101FA03F3DB431A40BB6803F0F873F0
:100EF0004FF0F871B962B96A91FAA1F17962796A31
:100F0000B1FA81F1C9B2CB40796801FA03F31A430F
:100F1000FB6A1A6000BF3437BD465DF8047B70473A
:100F200080B485B000AFF860B9607A600D4ABB68E4
:100F300013441B781A46FB6813441B6823F0C00255
:100F40000849BB680B441B781946FB680B441946DB
:100F50007B6813430B6000BF1437BD465DF8047B0C
:100F6000704700BF8041010880B485B000AFF860D1
:100F7000B9607A600D4ABB6813441B781A46FB6857
:100F800013441B6823F490720849BB680B441B7818
:100F90001946FB680B4419467B6813430B6000BF7E
:100FA0001437BD465DF8047B704700BF80410108DF
:100FB00080B485B000AFF860B9607A600D4ABB6854
:100FC00013441B781A46FB6813441B6823F4007211
:100FD0000849BB680B441B781946FB680B4419464B
:100FE0007B6813430B6000BF1437BD465DF8047B7C
:100FF000704700BF8041010880B485B000AFF86041
:10100000B9607A600D4ABB6813441B781A46FB68C6
:1010100013441B6823F480620849BB680B441B78A7
:101020001946FB680B4419467B6813430B6000BFED
:101030001437BD465DF8047B704700BF804101084E
:1010400080B485B000AFF860B9607A600D4ABB68C3
:1010500013441B781A46FB6813441B6823F4C052E0
:101060000849BB680B441B781946FB680B441946BA
:101070007B6813430B6000BF1437BD465DF8047BEB
:10108000704700BF8041010880B485B000AFF860B0
:10109000B9607A600D4ABB6813441B781A46FB6836
:1010A00013441B6823F4C0420849BB680B441B78F7
:1010B0001946FB680B4419467B6813430B6000BF5D
:1010C0001437BD465DF8047B704700BF80410108BE
:1010D00080B485B000AFF860B9607A600D4ABB6833
:1010E00013441B781A46FB6813441B6823F44032F0
:1010F0000849BB680B441B781946FB680B4419462A
:101100007B6813430B6000BF1437BD465DF8047B5A
:10111000704700BF8041010880B485B000AFF8601F
:10112000B9607A600D4ABB6813441B781A46FB68A5
:1011300013441B6823F0F0520849BB680B441B782A
:101140001946FB680B4419467B6813430B6000BFCC
:101150001437BD465DF8047B704700BF804101082D
:1011600080B483B000AF786039600C4A3B681344A8
:101170001B781A467B6813445B6908493A680A443D
:10118000127811467A680A4423F00403536100BFC1
:101190000C37BD465DF8047B704700BF80410108F5
:1011A00080B483B000AF78607B681B6843F00102B5
:1011B0007B681A6000BF0C37BD465DF8047B704742
:1011C00080B483B000AF78607B681B6823F4003282
:1011D0007B681A6000BF0C37BD465DF8047B704722
:1011E00080B483B000AF78607B681B6823F4002272
:1011F0007B681A6000BF0C37BD465DF8047B704702
:1012000080B485B000AFF860B9607A60FB68DA68D6
:10121000064B1340B9687A680A431A43FB68DA60E0
:1012200000BF1437BD465DF8047B704701F8FFFF2F
:1012300080B483B000AF78607B68DB6823F4004241
:101240007B68DA6000BF0C37BD465DF8047B7047F1
:1012500080B483B000AF78607B685B6843F0007255
:101260007B685A6000BF0C37BD465DF8047B704751
:1012700080B400AF054B1B68044A43F4803313600D
:1012800000BFBD465DF8047B704700BF00380240D8
:1012900080B400AF074B1B6803F40033B3F5003F85
:1012A0000CBF01230023DBB21846BD465DF8047B6A
:1012B000704700BF0038024080B483B000AF786050
:1012C000064B9B6823F0030204497B6813438B6041
:1012D00000BF0C37BD465DF8047B70470038024004
:1012E00080B400AF044B9B6803F00C031846BD4666
:1012F0005DF8047B704700BF0038024080B483B0C3
:1013000000AF7860064B9B6823F0F00204497B68CD
:1013100013438B6000BF0C37BD465DF8047B7047FC
:101320000038024080B483B000AF7860064B9B6801
:1013300023F4E05204497B6813438B6000BF0C37F1
:10134000BD465DF8047B70470038024080B483B02E
:1013500000AF7860064B9B6823F4604204497B68C9
:1013600013438B6000BF0C37BD465DF8047B7047AC
:101370000038024080B483B000AF7860094BD3F8E6
:1013800090207B681B0CDB431A407B689BB20549AD
:101390001343C1F8903000BF0C37BD465DF8047BA5
:1013A000704700BF0038024080B483B000AF78605F
:1013B000094BD3F890207B681B0CDB431A407B68F9
:1013C0009BB205491343C1F8903000BF0C37BD46AE
:1013D0005DF8047B704700BF0038024080B483B0E2
:1013E00000AF7860094BD3F890207968084B0B4028
:1013F000DB431A407B681B0404491343C1F8903057
:1014000000BF0C37BD465DF8047B704700380240D2
:101410000000FFFF80B483B000AF7860074BD3F8C3
:101420008C3023F0807205497B681343C1F88C30FF
:1014300000BF0C37BD465DF8047B704700380240A2
:1014400080B400AF054B1B68044A43F080731360FF
:1014500000BFBD465DF8047B704700BF0038024006
:1014600080B400AF074B1B6803F00073B3F1007F3B
:101470000CBF01230023DBB21846BD465DF8047B98
:10148000704700BF0038024080B485B000AFF860FC
:10149000B9607A603B600A4B5A680A4B1340F9689E
:1014A000BA6811437A68920111433A680A430449C1
:1014B00013434B6000BF1437BD465DF8047B704793
:1014C000003802400080BCFF80B485B000AF786077
:1014D000084B1A6B07497B6813430B63054B1A6B68
:1014E0007B681340FB60FB6800BF1437BD465DF8A6
:1014F000047B70470038024080B485B000AF78604C
:10150000084B1A6C07497B6813430B64054B1A6C34
:101510007B681340FB60FB6800BF1437BD465DF875
:10152000047B70470038024080B485B000AF78601B
:10153000084B5A6C07497B6813434B64054B5A6C44
:101540007B681340FB60FB6800BF1437BD465DF845
:10155000047B70470038024080B483B000AF7860ED
:10156000064B1B6823F00F0204497B6813430B6092
:1015700000BF0C37BD465DF8047B7047003C02405D
:1015800080B400AF044B1B6803F00F031846BD4640
:101590005DF8047B704700BF003C024080B400AFA0
:1015A000054B1B68044A43F48033136000BFBD46FB
:1015B0005DF8047B704700BF0070004080B483B0CA
:1015C00000AF7860064B1B6823F4404204497B68F7
:1015D00013430B6000BF0C37BD465DF8047B7047BA
:1015E0000070004080B400AF074B5B6803F4804399
:1015F000B3F5804F0CBF01230023DBB21846BD4674
:101600005DF8047B704700BF0070004080B483B079
:1016100000AF78607B681B6843F040027B681A600B
:1016200000BF0C37BD465DF8047B704780B483B0C3
:1016300000AF786039607B685B6823F010023B681C
:101640001A437B685A6000BF0C37BD465DF8047BC7
:10165000704780B483B000AF78607B685B6843F00C
:1016600008027B685A6000BF0C37BD465DF8047BFA
:10167000704780B483B000AF78607B685B6823F00C
:1016800008027B685A6000BF0C37BD465DF8047BDA
:10169000704780B483B000AF78607B681B6823F02C
:1016A00080027B681A6000BF0C37BD465DF8047B82
:1016B0007047000080B485B000AF786039603B6847
:1016C000012B28D03B68042B23D03B68102B1ED065
:1016D0003B68402B19D03B68B3F5807F13D03B6843
:1016E000B3F5806F0DD03B68B3F5805F07D03B68E2
:1016F000B3F5803F01D107230EE008230CE0062359
:101700000AE0052308E0042306E0032304E00223A3
:1017100002E0012300E00023FB737B6818331946C5
:10172000FB7B0B4AD35C0B44BB60BB681A68FB7B3A
:101730000849CB5C194604238B40DB431A40BB6845
:101740001A6000BF1437BD465DF8047B704700BFC8
:10175000884101089441010880B485B000AF7860E9
:1017600039603B68012B28D03B68042B23D03B68B1
:10177000102B1ED03B68402B19D03B68B3F5807FFF
:1017800013D03B68B3F5806F0DD03B68B3F5805F35
:1017900007D03B68B3F5803F01D107230EE0082353
:1017A0000CE006230AE0052308E0042306E00323F7
:1017B00004E0022302E0012300E00023FB737B68C6
:1017C00018331946FB7B0A4AD35C0B44BB60BB68E9
:1017D0001A68FB7B0749CB5C194608238B401A43E8
:1017E000BB681A6000BF1437BD465DF8047B7047C4
:1017F000884101089441010880B483B000AF78604B
:1018000039607B685B6823F070023B681A437B6831
:101810005A6000BF0C37BD465DF8047B704780B44A
:1018200083B000AF78607B689B6823F080027B68A0
:101830009A6000BF0C37BD465DF8047B704780B4EA
:1018400083B000AF78607B681B6843F001027B685F
:101850001A6000BF0C37BD465DF8047B704780B44A
:1018600083B000AF786039607B681B6823F4F8129E
:101870003B681B041A437B681A6000BF0C37BD46E7
:101880005DF8047B704780B483B000AF7860396046
:101890007B681B6823F078723B685B051A437B68A2
:1018A0001A6000BF0C37BD465DF8047B704780B4FA
:1018B00083B000AF78607B689B6843F480427B68AC
:1018C0009A6000BF0C37BD465DF8047B704780B45A
:1018D00083B000AF786039607B689B6823F4004276
:1018E0003B681A437B689A6000BF0C37BD465DF8C1
:1018F000047B704780B483B000AF78607B685B681E
:1019000023F490427B685A607B689B6823F02A022C
:101910007B689A6000BF0C37BD465DF8047B70475A
:1019200080B483B000AF786039607B683A689A61B0
:1019300000BF0C37BD465DF8047B704780B483B0B0
:1019400000AF786039603B681A047B689A6100BF19
:101950000C37BD465DF8047B7047000080B584B04D
:1019600004AF0AF087F800F085F800F0C9FF00F036
:10197000AFFF00F04FFA00F0C1FA00F033FB00F0C7
:10198000BDFB00F039FC00F0C9F800F0B3FC00F03A
:10199000ABFD00F07FFE00F02BFD00F0E1FE00F05B
:1019A00067FF0AF01DF806F041FF02F0BDF8264877
:1019B00002F0F8FA09F04EFB08F056FC4FF48053A1
:1019C0000193224B00930423204A2149214806F029
:1019D0009DFE062300934FF480631F4A1C491F4855
:1019E00006F0F7F8012300934FF400431A4A184910
:1019F0001B4806F0EEF8062300934FF48073194A53
:101A000019491A4806F0E5F84FF400630393154BA3
:101A100002934FF480630193124B00934FF40073D1
:101A2000104A1149124806F0ACFC07F023F809F0FF
:101A3000E3FF07F013F802F0C5FA09F015FD07F00F
:101A400043F907F047F9FCE70014014000040240A5
:101A500000340140944C002000100240AC4C0020A7
:101A6000CC4C0020000C024000380040EC4C002020
:101A70000C4D002080B500AF0620FFF76DFD00BFC4
:101A8000FFF77EFD0346062BFAD14FF44040FFF7E7
:101A900095FDFFF783FDFFF7EBFB00BFFFF7F8FBBA
:101AA0000346012BFAD10023C0220C214FF4800001
:101AB000FFF7EAFCFFF7C4FC00BFFFF7D1FC0346C9
:101AC000012BFAD100BFFFF78DFD0346002BFAD0A2
:101AD0000020FFF713FC4FF4A050FFF723FC4FF456
:101AE0000040FFF733FC0220FFF7E6FB00BFFFF7E3
:101AF000F7FB0346082BFAD107480DF0C7F80F2073
:101B000009F0C6FF0346002B01D001F0AFF9002019
:101B1000FFF780FC00BF80BD00C2EB0B80B592B028
:101B200000AF07F13C0300221A605A609A6007F187
:101B3000280300221A605A609A60DA601A6107F17D
:101B4000180300221A605A609A60DA603B4600224D
:101B50001A605A609A60DA601A615A614FF48070B4
:101B6000FFF7E2FC0420FFF7AFFC0120FFF7ACFC1D
:101B70000220FFF7A9FC01233B6003237B600023C5
:101B80003B613B46194696480BF023FE02233B601F
:101B900003237B6000233B613B46194690480BF0D2
:101BA00018FE04233B6003237B6000233B613B461C
:101BB00019468B480BF00DFE08233B6003237B6026
:101BC00000233B613B46194685480BF002FE022389
:101BD0003B6003237B6000233B613B461946814801
:101BE0000BF0F7FD04233B6003237B6000233B6184
:101BF0003B4619467B480BF0ECFD08233B60032372
:101C00007B6000233B613B46194676480BF0E1FDC3
:101C100010233B6003237B6000233B613B46194656
:101C20006F480BF0D6FD20233B6003237B6000232D
:101C30003B613B4619466A480BF0CBFD01233B60F4
:101C400003237B6000233B613B46194666480BF04B
:101C5000C0FD02233B6003237B6000233B613B46C6
:101C6000194661480BF0B5FD002200215F48FFF7DF
:101C700053FA002200215D48FFF752F94FF4003279
:101C800000215A48FFF724FA4FF480720021574888
:101C9000FFF76AF9002200215448FFF789F94FF451
:101CA000806200215148FFF7A7F94FF480520021CC
:101CB0004E48FFF7C5F94FF4804200214B48FFF72B
:101CC000E3F900214948FFF74BFA0023FB630023A7
:101CD0003B644FF480737B6407F13C03194644482E
:101CE0000BF0FEFB0023BB624FF4E003FB6200231A
:101CF0003B6302237B634FF44073BB6307F128030C
:101D000019463B480BF018FC4FF480613848FFF748
:101D1000A8F84FF48033BB610023FB6107F118037F
:101D2000194634480BF094FB0A224FF400713048F6
:101D3000FFF761F801220A212D48FFF7A5F82E4A86
:101D400040F205212A48FFF756F801222A4928487F
:101D5000FFF79AF8294A40F20A212548FFF74BF885
:101D6000012226492248FFF78FF8254A40F20F2129
:101D70001F48FFF740F8012221491D48FFF784F86A
:101D8000204A4FF405711A48FFF735F801221D4922
:101D90001748FFF779F81C4A40F219211448FFF759
:101DA0002AF8012218491248FFF76EF8174A4FF433
:101DB00080710F48FFF71FF8012214490C48FFF704
:101DC00063F8134A40F205110948FFF714F801229D
:101DD0000F490748FFF758F800BF4837BD4680BD98
:101DE000000802400000024000040240006402407B
:101DF00000200140002301400B0030000C00600077
:101E00000D0090000E00C0000F00F00008008003DD
:101E10000900B00380B58EB000AF07F11C030022AB
:101E20001A605A609A60DA601A615A619A613B1DC1
:101E300000221A605A609A60DA601A615A614FF49F
:101E40004030FFF7CBFA0220FFF73EFB40237B60D8
:101E50000223BB600323FB6001233B6100237B6102
:101E60000423BB613B1D194621480BF0B2FC8023C3
:101E70007B600223BB600323FB6001233B610023E3
:101E80007B610423BB613B1D194619480BF0A1FC83
:101E90004FF40010FFF730FB1648FFF7D9F9002286
:101EA00000211448FFF7ACF91248FFF7C1F91148B7
:101EB000FFF796F90F48FFF783F90023FB610E4BFC
:101EC0003B6200237B620023BB620023FB62002392
:101ED0003B6300237B6307F11C03194605480BF0A5
:101EE0008FFD0448FFF75CF900BF3837BD4680BD61
:101EF0000004024000540040FF63106080B58EB0C3
:101F000000AF07F11C0300221A605A609A60DA6081
:101F10001A615A619A613B1D00221A605A609A60E8
:101F2000DA601A615A614FF44020FFF757FA022035
:101F3000FFF7CAFA4FF480637B600223BB60032380
:101F4000FB6001233B6100237B610423BB613B1DDC
:101F5000194621480BF03DFC4FF400637B600223DF
:101F6000BB600323FB6001233B6100237B610423EF
:101F7000BB613B1D194618480BF02BFC4FF4800049
:101F8000FFF7BAFA1548FFF763F90022002113485A
:101F9000FFF736F91148FFF74BF91048FFF720F922
:101FA0000E48FFF70DF90023FB610D4B3B62002348
:101FB0007B620023BB620023FB6200233B630023A0
:101FC0007B6307F11C03194604480BF019FD00BFA1
:101FD0003837BD4680BD00BF0004024000580040B5
:101FE000FFEAC00080B590B000AF07F118032822C7
:101FF000002118460EF051FA3B4600221A605A6042
:102000009A60DA601A615A614FF48050FFF78CFAD7
:102010000120FFF759FA10233B6002237B60032362
:10202000BB600023FB6000233B6105237B613B46D3
:10203000194630480BF0CDFB20233B6002237B6028
:102040000323BB600023FB6000233B6105237B610E
:102050003B46194627480BF0BCFB40233B6002235C
:102060007B600323BB600023FB6000233B610523EF
:102070007B613B4619461F480BF0ABFB80233B605E
:1020800002237B600323BB600023FB6000233B61D2
:1020900005237B613B46194616480BF09AFB00234B
:1020A000BB614FF48273FB614FF4E0633B6200233A
:1020B0007B620023BB620023FB6200233B6300239F
:1020C0007B630023BB630723FB6307F118031946F7
:1020D00009480CF06DF800210748FFF7A7FA0648F9
:1020E000FFF7B7FA0448FFF791FA00BF4037BD4643
:1020F00080BD00BF000002400030014080B590B0BC
:1021000000AF07F118032822002118460EF0C5F988
:102110003B4600221A605A609A60DA601A615A617E
:102120004FF48040FFF7E8F90220FFF7CDF94FF4B4
:1021300000533B6002237B600323BB600023FB60F2
:1021400000233B6105237B613B46194628480BF081
:1021500040FB4FF480433B6002237B600323BB6062
:102160000023FB6000233B6105237B613B4619464E
:102170001F480BF02EFB4FF400433B6002237B60B3
:102180000323BB600023FB6000233B6105237B61CD
:102190003B46194616480BF01CFB0023BB614FF46D
:1021A0008273FB614FF4E0633B6200237B62012397
:1021B000BB624FF40073FB6218233B6300237B6315
:1021C0000023BB630723FB6307F118031946094883
:1021D0000BF0EEFF00210748FFF728FA0548FFF74C
:1021E00048FA0448FFF712FA00BF4037BD4680BDE9
:1021F000000402400038004080B590B000AF07F105
:1022000018032822002118460EF047F93B46002209
:102210001A605A609A60DA601A615A614FF400409D
:10222000FFF76AF90420FFF74FF94FF480633B6032
:1022300002237B600323BB600023FB6000233B6120
:1022400006237B613B46194628480BF0C2FA4FF43F
:1022500000633B6002237B600323BB600023FB60C1
:1022600000233B6106237B613B4619461F480BF068
:10227000B0FA4FF480533B6002237B600323BB60C2
:102280000023FB6000233B6106237B613B4619462C
:1022900016480BF09EFA0023BB614FF48273FB617A
:1022A0004FF4E0633B6200237B620023BB624FF488
:1022B0000073FB6200233B6300237B630023BB634B
:1022C0000723FB6307F11803194609480BF070FF59
:1022D00000210748FFF7AAF90548FFF7BAF90448B3
:1022E000FFF794F900BF4037BD4680BD00080240AB
:1022F000003C004080B590B000AF07F118032822E1
:10230000002118460EF0C9F83B4600221A605A60B8
:102310009A60DA601A615A614FF40050FFF704F9CD
:102320001020FFF7D1F84FF480533B6002237B600D
:102330000323BB600023FB6000233B6105237B611B
:102340003B46194628480BF044FA4FF400533B60D3
:1023500002237B600323BB600023FB6000233B61FF
:1023600005237B613B4619461F480BF032FA4FF4B8
:1023700080433B6002237B600323BB600023FB6040
:1023800000233B6105237B613B46194616480BF051
:1023900020FA0023BB614FF48273FB614FF4E063CA
:1023A0003B6200237B620123BB624FF40073FB623C
:1023B00028233B6300237B630023BB630723FB636A
:1023C00007F11803194609480BF0F2FE00210748EF
:1023D000FFF72CF90548FFF74CF90448FFF716F909
:1023E00000BF4037BD4680BD0010024000340140B0
:1023F00080B590B000AF07F11803282200211846DD
:102400000EF04BF83B4600221A605A609A60DA6080
:102410001A615A614FF40010FFF786F80220FFF7A7
:1024200053F808233B6002237B600323BB60002337
:10243000FB6000233B6108237B613B46194628482B
:102440000BF0C7F910233B6002237B600323BB60C2
:102450000023FB6000233B6108237B613B46194658
:102460001F480BF0B6F920233B6002237B60032357
:10247000BB600023FB6000233B6108237B613B467C
:10248000194617480BF0A5F90023BB614FF482737E
:10249000FB614FF4E0633B6200237B620023BB627D
:1024A0004FF40073FB6200233B6300237B63002334
:1024B000BB630723FB6307F11803194609480BF0B8
:1024C00077FE00210748FFF7B1F80648FFF7C1F88B
:1024D0000448FFF79BF800BF4037BD4680BD00BFF2
:1024E000000402400054014080B594B000AF07F1F1
:1024F0003C0300221A605A609A60DA601A6107F1A0
:102500001C032022002118460DF0C7FF3B1D0022AE
:102510001A605A609A60DA601A615A610420FEF704
:10252000EBFF0023BB8700233B644FF6FF737B6404
:102530000023BB6407F13C03194654480BF026FF07
:102540005248FFF7A6F801215048FFF705F960232C
:10255000FB6100233B6200237B620023BB620023FC
:10256000FB6207F11C031A46012148480BF0A8FF43
:1025700001214648FFF79EF810214448FFF7ECF888
:1025800007F11C031A46102140480BF099FF102157
:102590003E48FFF78FF84FF480713C48FFF7DCF8B6
:1025A00007F11C031A464FF4807138480BF088FF7E
:1025B0004FF480713548FFF77DF84FF48051334870
:1025C000FFF7CAF807F11C031A464FF480512F4851
:1025D0000BF076FF4FF480512C48FFF76BF8002189
:1025E0002A48FFF709F92948FFF719F90820FEF7EB
:1025F0006BFF4FF480537B600223BB600023FB60C2
:1026000000233B6100237B610223BB613B1D194614
:102610001F480BF0DEF84FF400537B600223BB60D1
:102620000023FB6000233B6100237B610223BB612D
:102630003B1D194616480BF0CCF84FF480437B60E5
:102640000223BB600023FB6000233B6100237B610E
:102650000223BB613B1D19460D480BF0BAF84FF43D
:1026600000437B600223BB600023FB6000233B61CF
:1026700000237B610223BB613B1D194604480BF01C
:10268000A8F800BF5037BD4680BD00BF000800401D
:10269000000C024080B58EB000AF07F11C03002291
:1026A0001A605A609A60DA601A615A619A613B1D39
:1026B00000221A605A609A60DA601A615A614FF01B
:1026C0004050FEF771FE4FF08040FEF715FF1020DE
:1026D000FEF7FAFE80237B600223BB600323FB60CE
:1026E00000233B6100237B610823BB613B1D19462E
:1026F00019480BF06EF84FF480737B600223BB60C7
:102700000323FB6000233B6100237B610823BB6143
:102710003B1D194610480BF05CF84FF4E133FB61A8
:1027200000233B6200237B620023BB620C23FB621D
:1027300000233B6300237B6307F11C031946074812
:102740000CF0DEF90548FFF7D5F80448FFF777F8F5
:1027500000BF3837BD4680BD001002400078004001
:1027600080B58EB000AF07F11C0300221A605A60DA
:102770009A60DA601A615A619A613B1D00221A6000
:102780005A609A60DA601A615A614FF44030FEF77D
:10279000F1FD1020FEF7C8FE0120FEF795FE4FF474
:1027A00000737B600223BB600323FB6000233B615B
:1027B00000237B610723BB613B1D19462A480BF0B0
:1027C00008F84FF480637B600223BB600323FB6047
:1027D00000233B6100237B610723BB613B1D19463E
:1027E00021480AF0F6FF4FF480537B600223BB6060
:1027F0000323FB6000233B6100237B610723BB6154
:102800003B1D194618480AF0E4FF4FF4E133FB6121
:1028100000233B6200237B620023BB620C23FB622C
:1028200000233B6300237B6307F11C0319460F4819
:102830000CF066F90D48FFF73AF800210B48FFF756
:1028400046F800210948FFF71EF800210748FFF766
:1028500006F80648FFF74EF80448FEF7F0FF00BF01
:102860003837BD4680BD00BF000002400010014067
:1028700080B500AF144B154A1A60134B4FF4E13288
:102880005A60114B00229A600F4B0022DA600E4B07
:1028900000221A610C4B0C225A610B4B00229A61E8
:1028A000094B0022DA61084B00221A62064B002213
:1028B0005A62054809F086FD0346002B01D000F05E
:1028C000D5FA00BF80BD00BF0844002000140140BD
:1028D00080B500AF4FF48000FEF7F6FDFEF702FA78
:1028E0000346002200211846FEF752FA0346194615
:1028F0003820FEF723FA3820FEF702FA00BF80BD29
:1029000080B586B000AF3B4600221A605A609A60DC
:10291000DA601A615A611020FEF7D6FD0420FEF736
:10292000D3FD8020FEF7D0FD0120FEF7CDFD022073
:10293000FEF7CAFD0820FEF7C7FD0421BF48FEF7D9
:10294000FDFF0821BD48FEF7F9FF1021BB48FEF747
:10295000F5FF2021B948FEF7F1FF4021B748FEF707
:10296000EDFF4FF40051B648FEF7E8FF4FF4804109
:10297000B348FEF7E3FF4FF40041B148FEF7DEFF36
:102980000421B048FEF7DAFF4FF48061AB48FEF750
:10299000D5FF4FF40061A948FEF7D0FF4FF4004186
:1029A000A648FEF7CBFF4FF48051A648FEF7C6FFBE
:1029B0004FF48071A448FEF7C1FF4FF40071A248A4
:1029C000FEF7BCFF4FF480619F48FEF7B7FF4FF45E
:1029D00000619E48FEF7B2FF4FF400419B48FEF7AE
:1029E000ADFF01219848FEF7A9FF02219648FEF7A6
:1029F000A5FF04219448FEF7A1FF10219248FEF79D
:102A00009DFF20219048FEF799FF40218E48FEF758
:102A100095FF80218C48FEF791FF4FF48071894823
:102A2000FEF77EFF4FF400718648FEF779FF012123
:102A30008248FEF775FF02218048FEF771FF0423EC
:102A40003B6001237B600023BB600023FB6000230D
:102A50003B613B46194679480AF0BBFE08233B60C0
:102A600001237B600023BB600023FB6000233B61EC
:102A70003B46194671480AF0ACFE10233B60012327
:102A80007B600023BB600023FB6000233B613B466F
:102A900019466A480AF09DFE20233B6001237B60B3
:102AA0000023BB600023FB6000233B613B461946CB
:102AB00062480AF08EFE40233B6001237B600023C6
:102AC000BB600023FB6000233B613B4619465B482B
:102AD0000AF07FFE4FF400533B6001237B6000232C
:102AE000BB600023FB6000233B613B461946544812
:102AF0000AF06FFE4FF480433B6001237B600023AC
:102B0000BB600023FB6000233B613B4619464C48F9
:102B10000AF05FFE4FF400433B6001237B6000231B
:102B2000BB600023FB6000233B613B4619464448E1
:102B30000AF04FFE04233B6001237B600023BB604F
:102B40000023FB6000233B613B4619463D480AF0E9
:102B500040FE4FF480633B6001237B600023BB6039
:102B60000023FB6000233B613B46194633480AF0D3
:102B700030FE4FF400633B6001237B600023BB60A9
:102B80000023FB6000233B613B4619462B480AF0BB
:102B900020FE4FF400433B6001237B600023BB60B9
:102BA0000023FB6000233B613B46194623480AF0A3
:102BB00010FE4FF480533B6001237B600023BB6019
:102BC0000023FB6000233B613B4619461D480AF089
:102BD00000FE4FF480733B6001237B600023BB60E9
:102BE0000023FB6000233B613B46194616480AF070
:102BF000F0FD4FF400733B6001237B600023BB605A
:102C00000023FB6000233B613B4619460E480AF057
:102C1000E0FD4FF480633B6001237B600023BB60D9
:102C20000023FB6000233B613B46194606480AF03F
:102C3000D0FD4FF400633B600AE000BF001002408B
:102C40000008024000040240000C02400000024064
:102C500000237B6000233B613B4619467E480AF017
:102C6000B8FD4FF480733B6000237B6000233B6121
:102C70003B46194679480AF0ACFD4FF400733B60BF
:102C800000237B6000233B613B46194673480AF0F2
:102C9000A0FD4FF480733B6000237B6000233B6109
:102CA0003B4619466E480AF094FD4FF400633B60C2
:102CB00001237B600023BB600023FB6000233B619A
:102CC0003B46194666480AF084FD4FF400433B60DA
:102CD00001237B600023BB600023FB6000233B617A
:102CE0003B4619465E480AF074FD01233B60012310
:102CF0007B600023BB600023FB6000233B613B46FD
:102D0000194655480AF065FD02233B6001237B60AC
:102D10000023BB600023FB6000233B613B46194658
:102D20004D480AF056FD04233B6001237B600023DD
:102D3000BB600023FB6000233B613B4619464648CD
:102D40000AF047FD08233B6000237B6000233B61C2
:102D50003B46194640480AF03CFD10233B600123E6
:102D60007B600023BB600023FB6000233B613B468C
:102D7000194639480AF02DFD20233B6001237B6072
:102D80000023BB600023FB6000233B613B461946E8
:102D900031480AF01EFD40233B6001237B60002385
:102DA000BB600023FB6000233B613B4619462A4879
:102DB0000AF00FFD80233B6001237B600023BB6092
:102DC0000023FB6000233B613B46194622480AF082
:102DD00000FD4FF480733B6001237B600023BB60E8
:102DE0000023FB6000233B613B4619461D480AF067
:102DF000F0FC4FF400733B6001237B600023BB6059
:102E00000023FB6000233B613B46194615480AF04E
:102E1000E0FC01233B6001237B600023BB600023B7
:102E2000FB6000233B613B4619460F480AF0D1FC8A
:102E300002233B6001237B600023BB600023FB6017
:102E400000233B613B46194607480AF0C2FC00BF1D
:102E50001837BD4680BD00BF000C0240000802408C
:102E600000000240000402400010024080B400AFA5
:102E700072B600BF00BFFDE780B483B000AF7860DA
:102E8000094BD3F890207B681B0CDB431A407B680E
:102E90009BB205491343C1F8903000BF0C37BD46C3
:102EA0005DF8047B704700BF0038024080B483B0F7
:102EB00000AF0F4B1B6C0E4A43F0805313640C4B56
:102EC0001B6C03F080537B607B68094B5B6C084A8A
:102ED00043F480435364064B5B6C03F480433B60D4
:102EE0003B6800BF0C37BD465DF8047B704700BFF0
:102EF0000038024080B58AB000AF786007F1140353
:102F000000221A605A609A60DA601A617B681B6856
:102F10001D4A934233D14FF04060FFF7ADFF1B4B8A
:102F20005B6C1A4A43F020035364184B5B6C03F04C
:102F300020033B613B69154B1B6B144A43F00403B0
:102F40001363124B1B6B03F00403FB60FB68C0238D
:102F50007B610223BB610023FB6103233B620823E7
:102F60007B6207F114031946094808F085FF002227
:102F70000021472008F0B7FE472008F0D0FE00BF30
:102F80002837BD4680BD00BF001401400038024014
:102F90000008024080B400AF00BFFDE780B400AF7E
:102FA00000BFFDE780B400AF00BFFDE780B400AF15
:102FB00000BFFDE780B400AF00BFFDE780B400AF05
:102FC00000BFBD465DF8047B704780B400AF00BF12
:102FD000BD465DF8047B704780B400AF00BFBD46BE
:102FE0005DF8047B704780B500AF05F0D9FD08F0AF
:102FF0007FFD00BF80BD80B400AF00BFBD465DF85F
:10300000047B704780B500AF034800F02AFE0348F8
:1030100009F026FA00BF80BD0014014008440020DA
:1030200080B400AF01231846BD465DF8047B7047AD
:1030300080B582B000AF786039600DF0C1FA034608
:1030400016221A604FF0FF3318460837BD4680BD80
:1030500080B582B000AF78604FF0FF317868FFF73D
:10306000E7FF00BFFDE780B586B000AFF860B9604C
:103070007A6000237B610AE0AFF300800146BB6801
:103080005A1CBA60CAB21A707B6901337B617A69D3
:103090007B689A42F0DB7B6818461837BD4680BDD6
:1030A00080B586B000AFF860B9607A6000237B61BC
:1030B00009E0BB685A1CBA601B781846AFF3008061
:1030C0007B6901337B617A697B689A42F1DB7B68BB
:1030D00018461837BD4680BD80B483B000AF786015
:1030E0004FF0FF3318460C37BD465DF8047B704740
:1030F00080B483B000AF786039603B684FF4005211
:103100005A60002318460C37BD465DF8047B7047B3
:1031100080B483B000AF7860012318460C37BD46F9
:103120005DF8047B704780B485B000AFF860B9608B
:103130007A60002318461437BD465DF8047B70475B
:1031400080B586B000AF7860144A154BD31A7B6106
:103150007B693B61134B1B68002B02D1114B124A58
:103160001A60104B1A687B6813443A699A4207D276
:103170000DF026FA03460C221A604FF0FF3309E0E7
:10318000084B1B68FB60074B1A687B681344054AB1
:103190001360FB6818461837BD4680BD0000082044
:1031A000000400009044002058E0012080B400AFEB
:1031B000064BD3F88830054A43F47003C2F88830D0
:1031C00000BFBD465DF8047B704700BF00ED00E026
:1031D000DFF834D0FFF7EAFF0C480D490D4A002311
:1031E00002E0D458C4500433C4188C42F9D30A4ABC
:1031F0000A4C002301E013600432A242FBD30DF01D
:10320000E5F9FEF7ABFB7047000008200000002046
:10321000EC430020B8490108EC43002054E00120B1
:10322000FEE780B483B000AF78607B689B6903F0F1
:103230000203022B01D1012300E0002318460C37C2
:10324000BD465DF8047B704780B483B000AF786002
:103250007B689B6903F00403042B01D1012300E088
:10326000002318460C37BD465DF8047B704780B4D8
:1032700083B000AF78607B689B6903F02003202B4C
:1032800001D1012300E0002318460C37BD465DF84C
:10329000047B704780B483B000AF78607B689B6923
:1032A00003F04003402B01D1012300E00023184626
:1032B0000C37BD465DF8047B704780B483B000AF27
:1032C00078607B689B6903F40043B3F5004F01D13C
:1032D000012300E0002318460C37BD465DF8047B4F
:1032E000704780B483B000AF78607B68DB6943F0DF
:1032F00020027B68DA6100BF0C37BD465DF8047BB5
:103300007047000080B487B000AFF860B9607A60A1
:103310003B60BB68C3F309027B6803F400631A4394
:103320003B681B0403F47F031A433B6A1A437B6A1E
:10333000134323F000437B61FB685A687B6A5B0D93
:1033400003F48061064B0B43DB431A407B691A434D
:10335000FB685A6000BF1C37BD465DF8047B7047B0
:10336000FF7BFF0380B483B000AF78607B685B6A4B
:10337000DBB218460C37BD465DF8047B704780B45D
:1033800083B000AF78600B46FB70FA787B689A6276
:1033900000BF0C37BD465DF8047B704780B586B032
:1033A00002AF7860084611461A460346FB700B468A
:1033B000BB7013467B7041F28833FB6000BF7868B6
:1033C000FFF77BFF0346002B04D0FB685A1EFA6010
:1033D000002BF4D1FB68002B01D1012355E0FB78D1
:1033E00059002C4B01934FF00073009302230022ED
:1033F0007868FFF787FF41F28833FB6000BF786889
:10340000FFF70FFF0346002B04D1FB685A1EFA603A
:10341000002BF4D1FB68002B01D1012335E0BB78F0
:1034200019467868FFF7ABFF41F28833FB6000BFB5
:103430007868FFF7F6FE0346002B04D1FB685A1E9E
:10344000FA60002BF4D1FB68002B01D101231CE0B2
:103450007B7819467868FFF792FF41F28833FB606A
:1034600000BF7868FFF703FF0346002B04D1FB6819
:103470005A1EFA60002BF4D1FB68002B01D1012306
:1034800003E07868FFF72DFF002318461037BD468C
:1034900080BD00BF0020008090B589B002AFF86009
:1034A0007B600B46FB721346BB7241F288337B6133
:1034B00000BFF868FFF701FF0346002B04D07B69CB
:1034C0005A1E7A61002BF4D17B69002B01D10123B4
:1034D00081E0FB7A5900424B0193002300930123C2
:1034E0000022F868FFF70EFF41F288337B6100BFCE
:1034F000F868FFF796FE0346002B04D17B695A1E3D
:103500007A61002BF4D17B69002B01D1012362E0A9
:10351000BB7A1946F868FFF732FF41F288337B61C6
:1035200000BFF868FFF7B6FE0346002B04D17B69A5
:103530005A1E7A61002BF4D17B69002B01D1012343
:1035400049E0FB7A59003B8D264A01924FF0007208
:1035500000920022F868FFF7D5FE00237B821EE070
:1035600041F288337B6100BFF868FFF76DFE0346C8
:10357000002B04D17B695A1E7A61002BF4D17B6940
:10358000002B01D1012326E07B8A7A68D418F868E1
:10359000FFF7E8FE034623707B8A01337B827A8A39
:1035A0003B8D9A42DCD341F288337B6100BFF868DF
:1035B000FFF75DFE0346002B04D17B695A1E7A613A
:1035C000002BF4D17B69002B01D1012303E0F868C3
:1035D000FFF787FE002318461C37BD4690BD00BF8D
:1035E000002000800024008080B483B000AF034638
:1035F0003960FB7197F90730002B0ADB3B68DAB2C0
:103600000C4997F907301201D2B20B4483F800231A
:103610000AE03B68DAB20849FB7903F00F03043B88
:103620001201D2B20B441A7600BF0C37BD465DF8CA
:10363000047B704700E100E000ED00E080B582B05F
:1036400000AF78607B68013BB3F1807F01D3012339
:103650000FE00A4A7B68013B53600F214FF0FF30B7
:10366000FFF7C2FF054B00229A60044B07221A6045
:10367000002318460837BD4680BD00BF10E000E0BB
:1036800080B400AF054B1B68044A43F0010313608C
:1036900000BFBD465DF8047B704700BF10E000E04E
:1036A00080B500AF054B1B68054AA2FB03239B09AD
:1036B0001846FFF7C3FF00BF80BD00BF0000002019
:1036C000D34D621080B588B000AFF860B9607A6001
:1036D0003B60FB68BA681A60FB6804331F22796894
:1036E00018460CF010FFFB68002283F82320FB68CB
:1036F0003A685A62FB683A8D1A85FB682A33FB6187
:103700000023FB82FA8AFB69BFF35B8F1A80FB6898
:103710002C33BB610023BB82BA8ABB69BFF35B8FCA
:103720001A8000BF2037BD4680BD80B48BB000AF8B
:1037300078600B46FB707B682A333B623B6A1B88D0
:103740009BB2FB81FB890133FB847B681B8DFA8C68
:103750009A4201D10023FB847B682C33FB61FB6917
:103760001B88BFF35B8F9BB2BB81BB897B83FA8CC9
:103770007B8B9A4218D07B685B6A7A682A327A61BE
:103780007A69128892B27A817A891344FA781A7027
:103790007B682A333B61FB8C3B813A893B69BFF3F1
:1037A0005B8F1A80012300E0002318462C37BD46AA
:1037B0005DF8047B704780B48BB000AF78603960EF
:1037C0007B682C333B623B6A1B889BB27B827B8A83
:1037D000FB847B682A33FB61FB691B88BFF35B8F2B
:1037E0009BB23B823B8A7B837A8BFB8C9A421CD0B8
:1037F0007B685A6AFB8C13441A783B681A70FB8CFE
:103800000133FB847B681B8DFA8C9A4201D1002323
:10381000FB847B682C337B61FB8CFB81FA897B69A1
:10382000BFF35B8F1A80012300E0002318462C377A
:10383000BD465DF8047B704780B489B000AF786006
:103840007B682A33FB61FB691B88BFF35B8F9BB2EC
:103850003B823B8A7B837B682C337B617B691B8843
:103860009BB2FB81FB897B827A8B7B8A9A4214BF55
:1038700001230023DBB218462437BD465DF8047BE4
:10388000704780B483B000AF78607B68DB6903F079
:103890000203022B01D1012300E0002318460C375C
:1038A000BD465DF8047B704780B483B000AF78609C
:1038B0007B68DB6903F00403042B01D1012300E0E2
:1038C000002318460C37BD465DF8047B704780B472
:1038D00083B000AF78607B68DB6903F00803082BD6
:1038E00001D1012300E0002318460C37BD465DF8E6
:1038F000047B704780B483B000AF78607B68DB697D
:1039000003F02003202B01D1012300E000231846FF
:103910000C37BD465DF8047B704780B483B000AFC0
:1039200078607B68DB6903F08003802B01D1012381
:1039300000E0002318460C37BD465DF8047B704755
:1039400080B483B000AF78607B6802221A6200BF47
:103950000C37BD465DF8047B704780B483B000AF80
:1039600078607B6804221A6200BF0C37BD465DF8A0
:10397000047B704780B483B000AF78607B68082216
:103980001A6200BF0C37BD465DF8047B704780B4F7
:1039900089B000AF78607B68FB60FB6853E8003F4C
:1039A000BB60BB6843F02003FB617B68FA69BA61C6
:1039B0007B617969BA6941E800233B613B69002B6F
:1039C000E9D100BF00BF2437BD465DF8047B7047D6
:1039D00080B489B000AF78607B68FB60FB6853E817
:1039E000003FBB60BB6843F08003FB617B68FA6902
:1039F000BA617B617969BA6941E800233B613B693F
:103A0000002BE9D100BF00BF2437BD465DF8047B21
:103A1000704780B489B000AF78607B68FB60FB685A
:103A200053E8003FBB60BB6823F08003FB617B6809
:103A3000FA69BA617B617969BA6941E800233B613F
:103A40003B69002BE9D100BF00BF2437BD465DF8BC
:103A5000047B704780B483B000AF78607B681B68DC
:103A600003F02003202B01D1012300E0002318469E
:103A70000C37BD465DF8047B704780B483B000AF5F
:103A800078607B681B6803F08003802B01D10123E1
:103A900000E0002318460C37BD465DF8047B7047F4
:103AA00080B483B000AF78607B685B6ADBB2184695
:103AB0000C37BD465DF8047B704780B483B000AF1F
:103AC00078600B46FB70FA787B689A6200BF0C370F
:103AD000BD465DF8047B704780B485B000AF786068
:103AE0000023FB6013E00F4AFB68642101FB03F332
:103AF00013441B687A689A4206D1FB68642202FB71
:103B000003F3084A134406E0FB680133FB60FB68DB
:103B1000002BE8DD002318461437BD465DF8047B12
:103B2000704700BF0400002080B582B002AF4FF4A0
:103B3000806300930A4B0B4A01210B48FFF7C2FD3B
:103B40004FF480630093094B094A02210948FFF7AB
:103B5000B9FD0948FFF71BFF00231846BD4680BD8D
:103B600094440020982E010808000020944800206A
:103B7000A42E0108380000200014014080B584B054
:103B800000AF78607868FFF7A7FFF860FB68002B4C
:103B900002D14FF0FF330EE0FB68043307F10B0254
:103BA00011461846FFF707FE0346002B01D0FB7AAB
:103BB00001E04FF0FF3318461037BD4680BD80B599
:103BC00084B000AF78600B46FB707868FFF784FF25
:103BD000F860FB68002B11D000BFFB683433FA7823
:103BE00011461846FFF7A1FD034683F00103DBB23F
:103BF000002BF2D17868FFF7EBFE00E000BF103732
:103C0000BD4680BD80B582B000AF7860396008E005
:103C10003B681B7819467868FFF7D1FF3B68013392
:103C20003B603B681B78002BF2D100BF00BF083718
:103C3000BD4680BD80B584B000AF78607868FFF77E
:103C40004BFFF860FB68002B01D1002305E0FB6807
:103C500004331846FFF7F0FD034618461037BD46FB
:103C600080BD80B584B000AF78607868FFF734FF1E
:103C7000F860FB68002B53D07868FFF73BFE0346E3
:103C8000002B2CD07868FFF7E5FE0346002B26D0EA
:103C90007868FFF705FF0346FB727868FFF717FEA9
:103CA0000346002B02D07868FFF764FE7868FFF7C0
:103CB000E8FD0346002B02D07868FFF741FE7868E4
:103CC000FFF7F2FD0346002B02D07868FFF745FEB0
:103CD000FB680433FA7A11461846FFF726FD786828
:103CE000FFF71BFE0346002B1BD07868FFF7C5FECD
:103CF0000346002B15D0FB68343307F10A02114646
:103D00001846FFF758FD0346002B05D0BB7A19462D
:103D10007868FFF7D2FE04E07868FFF77AFE00E0EB
:103D200000BF1037BD4680BD80B400AFBFF34F8FDA
:103D300000BF064BDB6803F4E0620449044B134305
:103D4000CB60BFF34F8F00BF00BFFDE700ED00E089
:103D50000400FA0580B483B000AF786039607B68F6
:103D60003A689A6100BF0C37BD465DF8047B704726
:103D700080B483B000AF786039603B681A047B6818
:103D80009A6100BF0C37BD465DF8047B704780B474
:103D900083B000AF78607B681B6843F001027B68EA
:103DA0001A6000BF0C37BD465DF8047B704780B4D5
:103DB00083B000AF78607B681B6823F001027B68EA
:103DC0001A6000BF0C37BD465DF8047B704780B4B5
:103DD00083B000AF786039607B683A685A6200BF90
:103DE0000C37BD465DF8047B704780B483B000AFEC
:103DF000786039607B683A68DA6200BF0C37BD468C
:103E00005DF8047B704780B483B000AF78607B6856
:103E1000DB6843F001027B68DA6000BF0C37BD4607
:103E20005DF8047B704780B483B000AF78607B6836
:103E3000DB6823F001027B68DA6000BF0C37BD4607
:103E40005DF8047B704780B485B000AFF860B9605E
:103E50007A603B60FA68BB68D31AB9693A688A1A13
:103E600003FB02F27968BB68CB1A92FBF3F23B6862
:103E7000134418461437BD465DF8047B704780B480
:103E800085B000AF78600B467B807B881B0A9BB2B5
:103E9000DBB23B737B88DBB27B730023FB7331E0C7
:103EA0007B681B881AB2FB7B10333B4413F8043C3D
:103EB0001BB21B021BB253401BB29AB27B681A8022
:103EC0000023BB7318E07B681B881BB2002B0ADA47
:103ED0007B681B881BB25B001AB241F2210353407E
:103EE0001BB29BB203E07B681B885B009BB27A68C5
:103EF0001380BB7B0133BB73BB7B072BE3D9FB7BFD
:103F00000133FB73FB7B012BCAD900BF00BF143701
:103F1000BD465DF8047B7047B0B489B000AF03467E
:103F20003960FB801E4B07F10C041D460FCD0FC4FA
:103F30002B682370FB881B0B9BB203F00F0320330D
:103F40003B4413F8142C3B681A70FB881B0A9BB285
:103F500003F00F023B68013320323A4412F8142C6C
:103F60001A70FB881B099BB203F00F023B680233F7
:103F700020323A4412F8142C1A70FB8803F00F0216
:103F80003B68033320323A4412F8142C1A703B6811
:103F9000043320221A7000BF2437BD46B0BC7047DE
:103FA000B02E010880B582B000AF786002F0CAF888
:103FB00003497868FFF726FE00BF0837BD4680BD7D
:103FC000F437010880B500AF0249034804F0A8FDAA
:103FD00000BF80BDFC000020F800002080B582B04A
:103FE00000AF0E48FFF726FE0346002B12D00B4809
:103FF000FFF7C4FD0346FB7102F0F0F80246FB79BF
:104000001946104602F0E0F902F0E8F803461846B7
:1040100002F0FDF900BF0837BD4680BD0014014025
:1040200080B588B000AFF860B9607A6007F114031A
:10403000074A0A2118460CF07BF907F114031946C8
:10404000F86802F075FA00BF2037BD4680BD00BF9A
:104050001038010880B584B000AFF860B9607A60AC
:10406000FFF762FE80B5A2B002AFF860B9607A6077
:104070000121B86802F01EFBB867BB6F1B78612B8B
:1040800003D0BB6F1B78002B6CD10023A7F87030D6
:104090005E4B3B6107F114034C22002118460CF0E3
:1040A000FCF95B4807F02AF8002387F87F3029E005
:1040B00097F87F30564A32F81330A7F87030B7F9C6
:1040C000703047F6FF72934207D107F16003514AFF
:1040D0000A2118460CF02CF907E0B7F9703007F107
:1040E00060004D4A0A210CF023F907F1600207F144
:1040F0001003114618460CF0D8F997F87F300133B9
:1041000087F87F3097F87F30072BD1D907F110035C
:104110001846FCF7F5F8F866FB6E002B0ED0FB6E28
:10412000013B80333B4413F8703C202B06D1FB6EDF
:10413000013B80333B44002203F8702C07F110034D
:104140001846FCF7DDF803461A4607F1100313443E
:10415000324A1068186007F110031946F86802F037
:10416000E7F94AE0BB6F1B78302B1BD0BB6F1B7885
:10417000312B17D0BB6F1B78322B13D0BB6F1B7842
:10418000332B0FD0BB6F1B78342B0BD0BB6F1B783E
:10419000352B07D0BB6F1B78362B03D0BB6F1B783A
:1041A000372B2AD1B86F0AF084FD7867184806F0DB
:1041B000A5FF174A7B6F32F81330A7F87230B7F9B2
:1041C000723047F6FF72934207D107F110007B6F00
:1041D000134A50210CF0ACF809E0B7F9723007F13E
:1041E000100000937B6F0F4A50210CF0A1F807F1EB
:1041F00010031946F86802F09BF90B49F86802F0C1
:1042000097F900BF8037BD4680BD00BF6E74633A2A
:10421000F0DE0120183801081C3801082038010898
:1042200024380108303801084038010880B586B0CC
:1042300000AFF860B9607A600121B86802F03AFA1C
:10424000786178690AF035FD0346DAB20F4B1A70CF
:104250000E4B1B78002B08D010210D48FFF77AFD7C
:104260000C49F86802F064F907E010210848FFF7EC
:104270007FFD0949F86802F05BF90849F86802F027
:1042800057F900BF1837BD4680BD00BFC0410020B0
:10429000000C024044380108503801084038010839
:1042A00080B584B000AFF860B9607A600A4B1B78C3
:1042B000002B04D00949F86802F03AF903E00849F4
:1042C000F86802F035F90749F86802F031F900BFE3
:1042D0001037BD4680BD00BFC041002044380108F2
:1042E000503801084038010890B59DB000AFF86023
:1042F000B9607A600121B86802F0DCF9B866002381
:1043000087F867304A4B07F110040FCB84E80F00A1
:10431000BB6E1B78612B03D0BB6E1B78002B3DD18D
:10432000002387F86F3034E097F86F309B007033CC
:104330003B4453F8603CFB65F86D06F0F1FA034628
:1043400087F867300A200AF07BFC97F96730002B6A
:104350000CD10021F86D06F097FA97F86F3007F14D
:104360002000344A3C210BF0E3FF07E097F86F3060
:1043700007F12000304A3C210BF0DAFF07F120035F
:104380001946F86802F0D4F897F86F30013387F8CF
:104390006F3097F86F30032BC6D940E0BB6E1B78A7
:1043A000302B0BD0BB6E1B78312B07D0BB6E1B782C
:1043B000322B03D0BB6E1B78332B30D1B86E0AF092
:1043C00078FC38663B6E9B0070333B4453F8603C8E
:1043D000FB65F86D06F0A4FA034687F867300A20FB
:1043E0000AF02EFC97F96730002B0BD10021F86DF5
:1043F00006F04AFA07F120003B6E0E4A3C210BF012
:1044000097FF06E007F120003B6E0B4A3C210BF0C2
:104410008FFF07F120031946F86802F089F8074971
:10442000F86802F085F800BF7437BD4690BD00BF44
:10443000843801085C3801087038010840380108E8
:1044400080B5A8B002AFF860B9607A600121B868A1
:1044500002F030F9C7F890000221B86802F02AF99A
:10446000C7F88C000321B86802F024F9C7F8880067
:104470000421B86802F01EF9C7F88400D7F890004C
:104480000AF017FC03467B67D7F88C000AF011FC92
:104490000346BB67D7F888000AF00BFC0346FB67AE
:1044A000D7F884000AF005FC0346C7F880300023E3
:1044B00087F8973049E097F897309B0098333B4452
:1044C00053F8243C9AB297F897301146184606F0F4
:1044D000F3FF97F897309B0098333B4453F8243C04
:1044E00040F6B832934214DD97F8971097F897305A
:1044F0009B0098333B4453F8243C97F8972007F1EE
:104500001000019200930B46164A64210BF010FF35
:1045100010E097F8972097F897309B0098333B442A
:1045200053F8243C07F11000009313460E4A64210F
:104530000BF0FEFE07F110031946F86801F0F8FFD2
:1045400097F89730013387F8973097F89730032B17
:10455000B1D90649F86801F0EBFF00BF9837BD46B6
:1045600080BD00BF94380108CC38010840380108EC
:1045700080B5AEB002AFF860B9607A600121B8686A
:1045800002F098F8C7F8A8000023A7F8A630002387
:10459000A7F8A430D7F8A8301B78612B04D0D7F83F
:1045A000A8301B78002B32D1002387F8AF3029E0E8
:1045B00097F8AF30184606F0E3FF0346A7F8A63099
:1045C00097F8AF30184606F0F7FF0346A7F8A43077
:1045D00097F8AF10B7F8A630B7F8A42007F1140089
:1045E000019200930B462E4A50210BF0A1FE07F1D9
:1045F00014031946F86801F09BFF97F8AF300133B8
:1046000087F8AF3097F8AF30032BD1D93FE0D7F818
:10461000A8301B78302B0ED0D7F8A8301B78312B60
:1046200009D0D7F8A8301B78322B04D0D7F8A8309F
:104630001B78332B2BD1D7F8A8000AF03AFBC7F828
:10464000A000D7F8A030DBB2184606F099FF034669
:10465000A7F8A630D7F8A030DBB2184606F0ACFFBA
:104660000346A7F8A430B7F8A630B7F8A42007F19E
:10467000640001920093D7F8A030094A3C210BF066
:1046800057FE07F164031946F86801F051FF054928
:10469000F86801F04DFF00BFB037BD4680BD00BFD8
:1046A000E03801084038010880B58AB000AFF860F2
:1046B000B9607A600121B86801F0FCFF78620221DC
:1046C000B86801F0F7FF38620321B86801F0F2FF23
:1046D000F8610421B86801F0EDFFB861786A0AF06A
:1046E000E8FA0346002B14BF01230023DBB2FB755D
:1046F000386A0AF0DEFA0346002B14BF01230023B8
:10470000DBB2BB75F8690AF0D4FA0346002B14BF7C
:1047100001230023DBB27B75B8690AF0CAFA0346AD
:10472000002B14BF01230023DBB23B753B7D7A7D58
:10473000B97DF87D06F0A2FFFB7D002B04D11A495C
:10474000F86801F0F5FE03E01849F86801F0F0FEA2
:10475000BB7D002B04D11649F86801F0E9FE03E0A7
:104760001449F86801F0E4FE7B7D002B04D1124966
:10477000F86801F0DDFE03E01049F86801F0D8FEAA
:104780003B7D002B04D10E49F86801F0D1FE03E017
:104790000C49F86801F0CCFE0B49F86801F0C8FE3E
:1047A00000BF2837BD4680BDFC380108103901081C
:1047B00024390108383901084C39010860390108E9
:1047C00074390108883901084038010890B593B060
:1047D00000AFF860B9607A600121B86801F06AFF43
:1047E00078640023FB6307F13C03DC1C07F13C0306
:1047F0009A1C07F13C03591C07F13C00234606F0C4
:104800006FFF7B6C1B78612B03D07B6C1B78002BBC
:1048100034D197F83C30002B04D13449F86801F0CA
:1048200087FE03E03249F86801F082FE97F83D30D8
:10483000002B04D12F49F86801F07AFE03E02E49DD
:10484000F86801F075FE97F83E30002B04D12B4933
:10485000F86801F06DFE03E02949F86801F068FE90
:1048600097F83F30002B04D12649F86801F060FE2C
:1048700034E02549F86801F05BFE2FE07B6C1B7883
:10488000302B0BD07B6C1B78312B07D07B6C1B78CB
:10489000322B03D07B6C1B78332B1FD1786C0AF042
:1048A00008FA386407F13C023B6C13441B78002B78
:1048B00007D107F114003B6C144A28210BF038FD96
:1048C00006E007F114003B6C114A28210BF030FD83
:1048D00007F114031946F86801F02AFE0D49F8683B
:1048E00001F026FE00BF4C37BD4690BD9C39010843
:1048F000B0390108C4390108D8390108EC39010878
:10490000003A0108143A0108283A01083C3A010823
:10491000503A01084038010880B5A4B002AFF860F1
:10492000B9607A600121B86801F0C4FEC7F8800060
:104930000221B86801F0BEFEF8670321B86801F0F3
:10494000B9FEB8670421B86801F0B4FE7867D7F8FB
:1049500080000AF0AEF903467B66F86F0AF0A9F909
:104960000346BB66B86F0AF0A4F90346FB66786F8E
:104970000AF09FF903463B67002387F887303AE047
:1049800097F887309B0088333B4453F8243C642BD2
:1049900007DD97F887309B0088333B44642243F857
:1049A000242C97F887309B0088333B4453F8243CF1
:1049B000DAB297F887301146184606F019FE97F8D4
:1049C000872097F887309B0088333B4453F8243C7A
:1049D00007F11400009313460D4A50210BF0A8FC78
:1049E00007F114031946F86801F0A2FD97F8873023
:1049F000013387F8873097F88730032BC0D90549F2
:104A0000F86801F095FD00BF8837BD4680BD00BF46
:104A1000643A01084038010880B59AB002AFF860E6
:104A2000B9607A600121B86801F044FEB865BB6DD9
:104A30001B78612B03D0BB6D1B78002B27D1002383
:104A400087F85F301EE097F85F30184606F0F8FDF3
:104A5000034687F8533097F85F2097F8533007F1F3
:104A6000140000931346244A3C210BF061FC07F12B
:104A700014031946F86801F05BFD97F85F300133C5
:104A800087F85F3097F85F30032BDCD92BE0BB6DE4
:104A90001B78302B0BD0BB6D1B78312B07D0BB6D37
:104AA0001B78322B03D0BB6D1B78332B1BD1B86D19
:104AB0000AF0FFF878657B6DDBB2184606F0C0FDA2
:104AC000034687F8533097F8533007F114000093EA
:104AD0007B6D094A3C210BF02BFC07F114031946AE
:104AE000F86801F025FD0549F86801F021FD00BFD7
:104AF0006037BD4680BD00BF643A010840380108F8
:104B000080B592B002AFF860B9607A600121B868F0
:104B100001F0D0FDF863F86B0AF0CBF8B863BB6B1B
:104B20001BB2184606F0ACFCBB6B07EE903AB8EE31
:104B3000E77AF2EE046AC7EE267AB7EEE77A07F173
:104B400010038DED007B094A282118460BF0F0FB7D
:104B500007F110031946F86801F0EAFC0449F86807
:104B600001F0E6FC00BF4037BD4680BD7C3A01083D
:104B70004038010880B596B002AFF860B9607A603D
:104B800006F08EFC0346A7F84E30B7F94E3007EE1C
:104B9000903AB8EEE77AF2EE046AC7EE267AB7EEFC
:104BA000E77A07F110038DED007B094A3C21184696
:104BB0000BF0BEFB07F110031946F86801F0B8FCD2
:104BC0000449F86801F0B4FC00BF5037BD4680BD11
:104BD0007C3A01084038010880B596B000AFF86013
:104BE000B9607A600121B86801F064FD7865786D7C
:104BF0000AF05FF838653B6DDBB2184606F08AFEB6
:104C000007F114003B6D094A3C210BF091FB07F1C1
:104C100014031946F86801F08BFC0549F86801F0A7
:104C200087FC00BF5837BD4680BD00BF9C3A0108D5
:104C30004038010880B594B000AFF860B9607A6080
:104C4000002387F84F3007F14F03184606F074FE33
:104C500097F84F3007F11000084A3C210BF068FB31
:104C600007F110031946F86801F062FC0449F8687E
:104C700001F05EFC00BF5037BD4680BD9C3A010884
:104C80004038010880B598B000AFF860B9607A602C
:104C90000121B86801F00EFDF8650221B86801F045
:104CA00009FDB8650321B86801F004FD78650421A9
:104CB000B86801F0FFFC3865F86D09F0FAFF0346AB
:104CC00087F84F30B86D09F0F4FF034687F84E308F
:104CD000786D09F0EEFF034687F84D30386D09F026
:104CE000E8FF034687F84C3097F84C3097F84D2092
:104CF00097F84E1097F84F0006F024FD97F84F30C4
:104D0000002B0CD007F11003224A3C2118460BF06F
:104D10000FFB07F110031946F86801F009FC97F83A
:104D20004E30002B0CD007F110031B4A3C211846D3
:104D30000BF0FEFA07F110031946F86801F0F8FBD2
:104D400097F84D30002B0CD007F11003134A3C218B
:104D500018460BF0EDFA07F110031946F86801F058
:104D6000E7FB97F84C30002B0CD007F110030C4AEE
:104D70003C2118460BF0DCFA07F110031946F868DD
:104D800001F0D6FB0749F86801F0D2FB00BF60379D
:104D9000BD4680BDAC3A0108BC3A0108CC3A0108D6
:104DA000DC3A01084038010890B599B000AFF860CE
:104DB000B9607A600121B86801F07CFCB86507F140
:104DC0005003DC1C07F150039A1C07F15003591CD7
:104DD00007F15000234606F0F7FCBB6D1B78612BF2
:104DE00003D0BB6D1B78002B2CD1002387F85F30DC
:104DF00023E097F85F3060333B4413F8103C002BFE
:104E000008D097F85F3007F114002A4A3C210BF0D4
:104E10008FFA07E097F85F3007F11400264A3C212B
:104E20000BF086FA07F114031946F86801F080FBCD
:104E300097F85F30013387F85F3097F85F30032BC6
:104E4000D7D92FE0BB6D1B78302B0BD0BB6D1B78F7
:104E5000312B07D0BB6D1B78322B03D0BB6D1B7879
:104E6000332B1FD1B86D09F024FF786507F150028C
:104E70007B6D13441B78002B07D007F114007B6D6A
:104E80000C4A3C210BF054FA06E007F114007B6D4C
:104E9000094A3C210BF04CFA07F114031946F86853
:104EA00001F046FB0549F86801F042FB00BF64379A
:104EB000BD4690BDEC3A0108FC3A010840380108B3
:104EC00080B59AB000AFF860B9607A600121B86827
:104ED00001F0F0FB38660221B86801F0EBFBF865E1
:104EE0000321B86801F0E6FBB8650421B86801F059
:104EF000E1FB7865386E09F0DCFE0346DBB287F82B
:104F00005030F86D09F0D5FE0346DBB287F851301A
:104F1000B86D09F0CEFE0346DBB287F85230786DEB
:104F200009F0C7FE0346DBB287F8533097F850000C
:104F300097F8511097F8522097F8533006F076FC06
:104F4000002387F867301AE097F8673068333B44EE
:104F500013F8183C002B0DD097F8673007F11400B8
:104F60000D4A3C210BF0E4F907F114031946F868E7
:104F700001F0DEFA97F86730013387F8673097F869
:104F80006730032BE0D90549F86801F0D1FA00BF7A
:104F90006837BD4680BD00BF0C3B010840380108A2
:104FA00090B599B000AFF860B9607A600121B86837
:104FB00001F080FBB86507F15003DC1C07F15003DA
:104FC0009A1C07F15003591C07F15000234606F0C4
:104FD00071FCBB6D1B78612B03D0BB6D1B78002B64
:104FE0002CD1002387F85F3023E097F85F306033DF
:104FF0003B4413F8103C002B08D097F85F3007F1C2
:1050000014002A4A3C210BF093F907E097F85F302F
:1050100007F11400264A3C210BF08AF907F114032A
:105020001946F86801F084FA97F85F30013387F881
:105030005F3097F85F30032BD7D92FE0BB6D1B781B
:10504000302B0BD0BB6D1B78312B07D0BB6D1B7881
:10505000322B03D0BB6D1B78332B1FD1B86D09F0F9
:1050600028FE786507F150027B6D13441B78002BF6
:1050700007D007F114007B6D0C4A3C210BF058F966
:1050800006E007F114007B6D094A3C210BF050F952
:1050900007F114031946F86801F04AFA0549F8685F
:1050A00001F046FA00BF6437BD4690BD0C3B0108D5
:1050B000203B01084038010880B586B000AFF86099
:1050C000B9607A600121B86801F0F4FA7861786912
:1050D00009F0EFFD0346002B14BF01230023DBB2D0
:1050E000FB74FB7C184606F039FCFB7C002B04D0DB
:1050F0000849F86801F01CFA03E00749F86801F074
:1051000017FA0649F86801F013FA00BF1837BD46D0
:1051100080BD00BF343B0108483B0108403801080E
:1051200080B586B000AFF860B9607A600023FB7587
:1051300007F11703184606F023FCFB7D002B04D073
:105140000849F86801F0F4F903E00749F86801F04C
:10515000EFF90649F86801F0EBF900BF1837BD46D2
:1051600080BD00BF343B0108483B010840380108BE
:1051700080B5A0B000AFF860B9607A60734805F000
:10518000BDFF002387F87F3015E097F87F306F4A26
:1051900032F81330A7F87C30B7F97C3047F6FF724D
:1051A000934203D06A4B01221A7008E097F87F30CF
:1051B000013387F87F3097F87F30072BE5D905F06A
:1051C00053F807F11403634A92E8030083E80300ED
:1051D0005F4B1B78002B0ED007F114031846FBF72A
:1051E0008FF803461A4607F1140313445A4A10680D
:1051F000186012791A71564B5B78002B0ED007F1AC
:1052000014031846FBF77CF803461A4607F114030B
:105210001344524A1068186012791A714C4B9B78EB
:10522000002B0ED007F114031846FBF769F803466C
:105230001A4607F114031344494A1068186012799A
:105240001A71434BDB78002B0ED007F1140318467C
:10525000FBF756F803461A4607F114031344414A74
:105260001068186012791A71394B1B79002B0ED017
:1052700007F114031846FBF743F803461A4607F1F3
:1052800014031344384A1068186012791A71304BAD
:105290005B79002B0ED007F114031846FBF730F8AA
:1052A00003461A4607F114031344304A1068186085
:1052B00092889A80264B9B79002B0ED007F114031D
:1052C0001846FBF71DF803461A4607F1140313446A
:1052D000274A1068186012791A711D4BDB79002B70
:1052E0000ED007F114031846FBF70AF803461A46D6
:1052F00007F1140313441F4A1068186012791A71D9
:1053000007F114031846FAF7FBFFB867BB6F002BD1
:105310000ED0BB6F013B80333B4413F86C3C2C2B0D
:1053200006D1BB6F013B80333B44002203F86C2C59
:1053300007F114031946F86801F0FAF80E49F86805
:1053400001F0F6F800BF8037BD4680BDF0DE0120D9
:10535000D8DE0120603B0108683B0108703B010872
:10536000783B0108803B0108883B0108903B01081D
:10537000983B0108A03B010840380108F0B5A1B0F6
:1053800006AFF860B9607A60394804F0A1FE0121E7
:10539000B86801F08FF978667B6E1B78612B03D0BB
:1053A0007B6E1B78002B23D1314BB3F900301E46A6
:1053B0002F4BB3F902301A462D4BB3F9043019467E
:1053C0002B4BB3F906301C46294BB3F908301D4668
:1053D000274BB3F90A3007F11400049303950294A4
:1053E000019100923346234A50210AF0A1FF30E098
:1053F0007B6E1B78302B14D11D4BB3F9003019464E
:105400001B4BB3F902301A46194BB3F9043007F1BC
:105410001400019300920B46174A50210AF088FFAE
:1054200017E07B6E1B78312B13D1114BB3F906308B
:1054300019460F4BB3F908301A460D4BB3F90A3031
:1054400007F11400019300920B460C4A50210AF018
:105450006FFF07F114031946F86801F069F808496D
:10546000F86801F065F800BF6C37BD46F0BD00BFBD
:10547000A8DE0120A83B0108D03B0108E43B01085D
:105480004038010880B594B002AFF860B9607A6026
:10549000194804F08FFA184BD3ED007AFDEEE77A45
:1054A00017EE903A1BB21946134BD3ED017AFDEE7D
:1054B000E77A17EE903A1BB21A460F4BD3ED027AF9
:1054C000FDEEE77A17EE903A1BB207F11400019354
:1054D00000920B46094A32210AF02AFF07F1140311
:1054E0001946F86801F024F80549F86801F020F839
:1054F00000BF4837BD4680BDC0DE0120D03B01085B
:105500004038010880B5A0B006AFF860B9607A6095
:10551000394804F047F90121B86801F0CBF8786602
:105520007B6E1B78612B03D07B6E1B78002B1CD10C
:10553000314BD3ED007AB7EEE77A2F4BD3ED026A09
:10554000B7EEE66A2C4BD3ED015AB7EEE55A07F1F8
:1055500014038DED045B8DED026B8DED007B274A0E
:10556000502118460AF0E4FE37E07B6E1B78302BA2
:105570000ED1214BD3ED007AB7EEE77A07F1140391
:105580008DED007B1E4A502118460AF0D1FE24E022
:105590007B6E1B78312B0ED1174BD3ED027AB7EE11
:1055A000E77A07F114038DED007B164A5021184667
:1055B0000AF0BEFE11E07B6E1B78322B0DD10E4B34
:1055C000D3ED017AB7EEE77A07F114038DED007B96
:1055D0000D4A502118460AF0ABFE07F11403194694
:1055E000F86800F0A5FF0949F86800F0A1FF00BFC6
:1055F0006837BD4680BD00BFB4DE0120F83B01081E
:10560000243C0108343C0108443C010840380108AE
:1056100080B58EB002AFF860B9607A60124804F0CD
:105620000FF9114B1B8807EE903AB8EE677ADFED61
:105630000F6AC7EE267AB7EEE77A07F110038DED11
:10564000007B0B4A1E2118460AF072FE07F1100378
:105650001946F86800F06CFF0649F86800F068FF2A
:1056600000BF3037BD4680BDCCDE01200000C842FF
:10567000543C01084038010880B5A0B006AFF8607E
:10568000B9607A60514804F0FFFB0121B86801F06D
:1056900011F878667B6E1B78612B03D07B6E1B78CC
:1056A000002B34D1494BB3F9003007EE903AB8EEF5
:1056B000E77ADFED476AC7EE267AB7EEE77A434B23
:1056C000B3F9023006EE903AB8EEE66ADFED415AE1
:1056D000C6EE256AB7EEE66A3C4BB3F9043005EE38
:1056E000903AB8EEE55ADFED3B4AC5EE245AB7EEE4
:1056F000E55A07F114038DED045B8DED026B8DED22
:10570000007B354A502118460AF012FE4FE07B6EAE
:105710001B78302B16D12D4BB3F9003007EE903AA1
:10572000B8EEE77ADFED2A6AC7EE267AB7EEE77AB7
:1057300007F114038DED007B284A502118460AF02A
:10574000F7FD34E07B6E1B78312B16D11F4BB3F97C
:10575000023007EE903AB8EEE77ADFED1E6AC7EE48
:10576000267AB7EEE77A07F114038DED007B1C4A29
:10577000502118460AF0DCFD19E07B6E1B78322BB5
:1057800015D1124BB3F9043007EE903AB8EEE77A30
:10579000DFED106AC7EE267AB7EEE77A07F1140359
:1057A0008DED007B0F4A502118460AF0C1FD07F12C
:1057B00014031946F86800F0BBFE0B49F86800F0C6
:1057C000B7FE00BF6837BD4680BD00BFD0DE0120F8
:1057D00000007A440000C842643C0108543C0108BF
:1057E000243C0108343C01084038010880B58EB0E3
:1057F00002AFF860B9607A60B86800F091FF0346C4
:10580000FB62FB6A022B04DC7349F86800F090FE2F
:10581000DEE00121B86800F04DFFB8620221B868EF
:1058200000F048FF0346184609F043FA034687F89C
:1058300027306A49B86AFAF703FD0346002B5BD1AB
:1058400097F82730002B0FD1FB6A032B04D0644953
:10585000F86800F06DFEBBE00021624802F0ECFE4B
:10586000614802F087FAAFE097F82730242B3ED842
:105870000321B86800F01EFF0346184609F016FA27
:10588000B0EE407BF7EEC77BC7ED067AD7ED067A20
:10589000F5EEC07AF1EE10FA08D4D7ED067A9FED56
:1058A000537AF4EEC77AF1EE10FA04DD5049F86845
:1058B00000F03EFE8CE0D7ED067AFDEEE77AFF239E
:1058C000009300236422002117EE900AFEF7BBFA32
:1058D0000346FB75FB7D1A460021424802F002FF99
:1058E00097F827301946404802F0D4F96CE0414956
:1058F000F86800F01DFE6BE03F49B86AFAF7A0FCBB
:105900000346002B5BD197F82730002B0FD1FB6AA1
:10591000032B04D03949F86800F00AFE58E0012151
:10592000304802F089FE364802F024FA4CE097F83D
:105930002730082B3ED80321B86800F0BBFE034691
:10594000184609F0B3F9B0EE407BF7EEC77BC7ED20
:10595000087AD7ED087AF5EEC07AF1EE10FA08D49D
:10596000D7ED087A9FED217AF4EEC77AF1EE10FABE
:1059700004DD1F49F86800F0DBFD29E0D7ED087A67
:10598000FDEEE77AFF23009300236422002117EE47
:10599000900AFEF758FA0346FB77FB7F1A4601216F
:1059A000104802F09FFE97F827301946144802F07D
:1059B00071F909E01349F86800F0BAFD08E01249EE
:1059C000F86800F0B5FD03E01049F86800F0B0FD9C
:1059D0003037BD4680BD00BF903C0108D43C010873
:1059E000D83C0108944C0020AC4C00200000C84278
:1059F000F03C0108083D0108343D0108383D01082C
:105A0000CC4C0020503D0108783D01089C3D010828
:105A100080B485B000AFF860B9607A6000BF143719
:105A2000BD465DF8047B704780B598B002AFF86062
:105A3000B9607A600121B86800F03CFE0346184660
:105A400009F037F9034687F8573097F85730002B9D
:105A500003D097F85730242B04D91349F86800F085
:105A600067FD1EE097F857301946104802F012F90A
:105A70000A2009F0E5F84FF47A710D4802F0D8FBDE
:105A800097F857300A4A128C07F114000092094A1D
:105A900040210AF04DFC07F114031946F86800F0A4
:105AA00047FD5837BD4680BDB43D0108EC4C002091
:105AB0000C4D0020DC3D010880B596B000AFF860C9
:105AC000B9607A600121B86800F0F4FD7865786DFE
:105AD00009F0EFF8034687F8533097F85330002B5E
