:020000040800F2
:100000000000082079300008F92D0008012E0008B2
:10001000092E0008112E0008192E0008000000000B
:10002000000000000000000000000000212E000879
:100030002F2E0008000000003D2E00084B2E000867
:10004000C9300008C9300008C9300008C9300008AC
:10005000C9300008C9300008C9300008C93000089C
:10006000C9300008C9300008C9300008C93000088C
:10007000E1690008C9300008C9300008C93000082B
:10008000C9300008C9300008C9300008C93000086C
:10009000C9300008C9300008C9300008C93000085C
:1000A000C9300008ED680008C9300008C9300008F0
:1000B00041690008C9300008C9300008C93000088B
:1000C000C9300008C9300008C9300008C93000082C
:1000D000C9300008C9300008C9300008C93000081C
:1000E000C9300008C9300008C9300008C93000080C
:1000F000C9300008C9300008C9300008C9300008FC
:10010000C9300008C9300008C9300008C9300008EB
:10011000C9300008C9300008C9300008C9300008DB
:100120005D2E0008C9300008C9300008C930000839
:10013000C9300008C9300008C9300008C9300008BB
:10014000C9300008C9300008C9300008C9300008AB
:10015000712E0008812E0008C9300008BD2E00084D
:10016000C9300008C9300008C9300008C93000088B
:10017000C9300008C9300008C9300008000000007C
:10018000C9300008C9300008C9300008C93000086B
:10019000C9300008C9300008C9300008C93000085B
:1001A0000000000000000000C9300008C93000084D
:1001B000C9300008C9300008C9300008C93000083B
:1001C000C9300008C930000800000000C93000082C
:1001D000C9300008C9300008C9300008C93000081B
:1001E000C9300008C9300008C9300008C93000080B
:0801F00000000000C930000806
:1002000010B5054C237833B9044B13B10448AFF350
:1002100000800123237010BD8843002000000000EF
:100220009C0C010808B5034B1BB103490348AFF30D
:10023000008008BD000000008C4300209C0C0108D9
:1002400010F8012B11F8013B012A28BF9A42F7D080
:10025000D01A7047000000000000000000000000FD
:1002600001F0FF01102A2BDB10F0070F08D010F867
:10027000013B013A8B422DD010F0070F42B3F6D16B
:10028000F0B441EA012141EA014122F007047FF084
:1002900000070023F0E80256083C85EA010586EADB
:1002A000010685FA47F5A3FA87F586FA47F6A5FA17
:1002B00087F68EB9EED1F0BC01F0FF0102F0070223
:1002C00032B110F8013B013A83EA010313B1F8D1CE
:1002D0000020704701387047002D06BF35460338AF
:1002E000073815F0010F07D1013015F4807F02BFE8
:1002F000013015F4C03F0130F0BC0138704700BF39
:10030000034613F8012B002AFBD1181A0138704755
:100310007BB972B90029BEBF00204FF0004106E052
:1003200008BF00281CBF6FF000414FF0FF3000F005
:10033000BBB9ADF1080C6DE904CE002909DB002B37
:100340001ADB00F035F8DDF804E0DDE9022304B043
:100350007047404261EB4101002B1BDB00F028F8A5
:10036000DDF804E0DDE9022304B0404261EB410125
:10037000524263EB43037047524263EB430300F086
:1003800017F8DDF804E0DDE9022304B0404261EB38
:1003900041017047524263EB430300F009F8DDF876
:1003A00004E0DDE9022304B0524263EB43037047EB
:1003B0002DE9F047089D8E4604468846002B4AD119
:1003C0008A42174662D9B2FA82F64EB1C6F12003CC
:1003D00001FA06F820FA03F3B74043EA0808B440EC
:1003E0004FEA174E1FFA87FCB8FBFEF1230C0EFBF9
:1003F000118843EA084301FB0CF29A4209D9FB1821
:1004000001F1FF3080F0EA809A4240F2E780023941
:100410003B449A1AA3B2B2FBFEF00EFB102243EA51
:10042000024300FB0CFC9C4509D9FB1800F1FF328C
:1004300080F0D6809C4540F2D3803B44023840EAAD
:100440000140A3EB0C0300211DB1F3400022C5E9DC
:100450000032BDE8F0878B4205D90DB1C5E9000136
:1004600000210846F5E7B3FA83F1002946D1734528
:1004700002D3824200F20581841A6EEB030201204E
:100480009046002DE5D0C5E90048E2E7002A00F0DB
:100490009080B2FA82F6002E40F0A4808A1A030CF3
:1004A0004FEA174E80B2BCB20121B2FBFEFC0EFB3C
:1004B0001C2243EA024304FB0CF29A4207D9FB18C0
:1004C0000CF1FF3802D29A4200F2E080C4469B1A37
:1004D000B3FBFEF20EFB123340EA034302FB04F4CB
:1004E0009C4207D9FB1802F1FF3002D29C4200F275
:1004F000CA8002461B1B42EA0C40A5E7C1F1200658
:100500008B4022FA06F71F430EFA01F420FA06F395
:100510002EFA06FE4FEA1749234300FA01F81FFAA4
:1005200087FCBEFBF9F01C0C09FB10EE44EA0E44FC
:1005300000FB0CFEA64502FA01F209D93C1900F1B4
:10054000FF3A80F09C80A64540F2998002383C44F6
:10055000A4EB0E041FFA83FEB4FBF9F309FB13446A
:100560004EEA044403FB0CFCA44508D93C1903F1F2
:10057000FF3E80F08280A4457FD9023B3C4443EAA1
:100580000040A4EB0C04A0FB02EC64457346E1467A
:1005900062D35FD05DB1B8EB030264EB090404FAE7
:1005A00006F622FA01F31E43CC40C5E9006400219F
:1005B0004FE7B1FBF2FC010C41EA0E4180B240EA88
:1005C00001423B4638463C46B846BE462026B1FB73
:1005D000F7F1A2EB080241EA0C4166E7014618E791
:1005E00010462CE7C6F120022EFA02F3B740B140C4
:1005F00020FA02F24FEA174E0A43B3FBFEF8BCB2F0
:100600000EFB1833110C41EA034108FB04F9B0401A
:1006100089454FEA104380B23ED9791808F1FF3C72
:1006200001D289451FD8A1EB0901B1FBFEF909FBF5
:1006300004F80EFB191192B242EA0142424529D256
:10064000BA1809F1FF31C4D24245C2D2A9F1020160
:100650003A44BEE7F0459DD2BEEB02036CEB070CBB
:100660000138E14696E7A7EB09094944A8F1020CD5
:10067000B1FBFEF909FB04F8DBE773467FE7504660
:1006800066E70846FDE63B44023A33E7ACF1020C6C
:100690003B441CE749469CE7A1EB0901C446B1FB7A
:1006A000FEF909FB04F8C4E7704700BF80B400AF4F
:1006B000044BDB681B0A03F007031846BD465DF8D0
:1006C000047B704700ED00E080B483B000AF0346C8
:1006D000FB7197F90730002B0BDBFB7903F01F024E
:1006E000074997F907305B09012000FA02F241F847
:1006F000232000BF0C37BD465DF8047B704700BF68
:1007000000E100E080B483B000AF03463960FB71C4
:1007100097F90730002B0ADB3B68DAB20C4997F9EE
:1007200007301201D2B20B4483F800230AE03B6881
:10073000DAB20849FB7903F00F03043B1201D2B28D
:100740000B441A7600BF0C37BD465DF8047B70473A
:1007500000E100E000ED00E080B489B000AFF86097
:10076000B9607A60FB6803F00703FB61FB69C3F1C2
:100770000703042B28BF0423BB61FB690433062B4A
:1007800002D9FB69033B00E000237B614FF0FF329D
:10079000BB6902FA03F3DA43BB681A407B699A40EB
:1007A0004FF0FF317B6901FA03F3D9437B680B40BB
:1007B000134318462437BD465DF8047B704700009C
:1007C00080B485B000AFF860B9607A600D4ABB684C
:1007D00013441B781A46FB6813441B6823F0C002BD
:1007E0000849BB680B441B781946FB680B44194643
:1007F0007B6813430B6000BF1437BD465DF8047B74
:10080000704700BFDC22010880B485B000AFF860FB
:10081000B9607A600D4ABB6813441B781A46FB68BE
:1008200013441B6823F490720849BB680B441B787F
:100830001946FB680B4419467B6813430B6000BFE5
:100840001437BD465DF8047B704700BFDC22010809
:1008500080B485B000AFF860B9607A600D4ABB68BB
:1008600013441B781A46FB6813441B6823F4007278
:100870000849BB680B441B781946FB680B441946B2
:100880007B6813430B6000BF1437BD465DF8047BE3
:10089000704700BFDC22010880B485B000AFF8606B
:1008A000B9607A600D4ABB6813441B781A46FB682E
:1008B00013441B6823F480620849BB680B441B780F
:1008C0001946FB680B4419467B6813430B6000BF55
:1008D0001437BD465DF8047B704700BFDC22010879
:1008E00080B485B000AFF860B9607A600D4ABB682B
:1008F00013441B781A46FB6813441B6823F4C05248
:100900000849BB680B441B781946FB680B44194621
:100910007B6813430B6000BF1437BD465DF8047B52
:10092000704700BFDC22010880B485B000AFF860DA
:10093000B9607A600D4ABB6813441B781A46FB689D
:1009400013441B6823F4C0420849BB680B441B785E
:100950001946FB680B4419467B6813430B6000BFC4
:100960001437BD465DF8047B704700BFDC220108E8
:1009700080B485B000AFF860B9607A600D4ABB689A
:1009800013441B781A46FB6813441B6823F4403257
:100990000849BB680B441B781946FB680B44194691
:1009A0007B6813430B6000BF1437BD465DF8047BC2
:1009B000704700BFDC22010880B485B000AFF8604A
:1009C000B9607A600D4ABB6813441B781A46FB680D
:1009D00013441B6823F0F0520849BB680B441B7892
:1009E0001946FB680B4419467B6813430B6000BF34
:1009F0001437BD465DF8047B704700BFDC22010858
:100A000080B483B000AF786039600C4A3B6813440F
:100A10001B781A467B6813445B6908493A680A44A4
:100A2000127811467A680A4423F00403536100BF28
:100A30000C37BD465DF8047B704700BFDC2201081F
:100A400080B483B000AF78607B681B6843F001021C
:100A50007B681A6000BF0C37BD465DF8047B7047A9
:100A600080B483B000AF78607B681B6823F40032E9
:100A70007B681A6000BF0C37BD465DF8047B704789
:100A800080B483B000AF78607B681B6823F40022D9
:100A90007B681A6000BF0C37BD465DF8047B704769
:100AA00080B485B000AFF860B9607A60FB68DA683E
:100AB000064B1340B9687A680A431A43FB68DA6048
:100AC00000BF1437BD465DF8047B704701F8FFFF97
:100AD00080B483B000AF78607B68DB6823F40042A9
:100AE0007B68DA6000BF0C37BD465DF8047B704759
:100AF00080B483B000AF78607B685B6843F00072BD
:100B00007B685A6000BF0C37BD465DF8047B7047B8
:100B100080B400AF054B1B68044A43F48033136074
:100B200000BFBD465DF8047B704700BF003802403F
:100B300080B400AF074B1B6803F40033B3F5003FEC
:100B40000CBF01230023DBB21846BD465DF8047BD1
:100B5000704700BF0038024080B483B000AF7860B7
:100B6000064B9B6823F0030204497B6813438B60A8
:100B700000BF0C37BD465DF8047B7047003802406B
:100B800080B400AF044B9B6803F00C031846BD46CD
:100B90005DF8047B704700BF0038024080B483B02A
:100BA00000AF7860064B9B6823F0F00204497B6835
:100BB00013438B6000BF0C37BD465DF8047B704764
:100BC0000038024080B483B000AF7860064B9B6869
:100BD00023F4E05204497B6813438B6000BF0C3759
:100BE000BD465DF8047B70470038024080B483B096
:100BF00000AF7860064B9B6823F4604204497B6831
:100C000013438B6000BF0C37BD465DF8047B704713
:100C10000038024080B483B000AF7860094BD3F84D
:100C200090207B681B0CDB431A407B689BB2054914
:100C30001343C1F8903000BF0C37BD465DF8047B0C
:100C4000704700BF0038024080B483B000AF7860C6
:100C5000094BD3F890207B681B0CDB431A407B6860
:100C60009BB205491343C1F8903000BF0C37BD4615
:100C70005DF8047B704700BF0038024080B483B049
:100C800000AF7860094BD3F890207968084B0B408F
:100C9000DB431A407B681B0404491343C1F89030BE
:100CA00000BF0C37BD465DF8047B7047003802403A
:100CB0000000FFFF80B483B000AF7860074BD3F82B
:100CC0008C3023F0807205497B681343C1F88C3067
:100CD00000BF0C37BD465DF8047B7047003802400A
:100CE00080B400AF054B1B68044A43F08073136067
:100CF00000BFBD465DF8047B704700BF003802406E
:100D000080B400AF074B1B6803F00073B3F1007FA2
:100D10000CBF01230023DBB21846BD465DF8047BFF
:100D2000704700BF0038024080B485B000AFF86063
:100D3000B9607A603B600A4B5A680A4B1340F96805
:100D4000BA6811437A68920111433A680A43044928
:100D500013434B6000BF1437BD465DF8047B7047FA
:100D6000003802400080BCFF80B485B000AF7860DE
:100D7000084B1A6B07497B6813430B63054B1A6BCF
:100D80007B681340FB60FB6800BF1437BD465DF80D
:100D9000047B70470038024080B485B000AF7860B3
:100DA000084B1A6C07497B6813430B64054B1A6C9C
:100DB0007B681340FB60FB6800BF1437BD465DF8DD
:100DC000047B70470038024080B485B000AF786083
:100DD000084B5A6C07497B6813434B64054B5A6CAC
:100DE0007B681340FB60FB6800BF1437BD465DF8AD
:100DF000047B70470038024080B483B000AF786055
:100E0000064B1B6823F00F0204497B6813430B60F9
:100E100000BF0C37BD465DF8047B7047003C0240C4
:100E200080B400AF044B1B6803F00F031846BD46A7
:100E30005DF8047B704700BF003C024080B400AF07
:100E4000054B1B68044A43F48033136000BFBD4662
:100E50005DF8047B704700BF0070004080B483B031
:100E600000AF7860064B1B6823F4404204497B685E
:100E700013430B6000BF0C37BD465DF8047B704721
:100E80000070004080B400AF074B5B6803F4804300
:100E9000B3F5804F0CBF01230023DBB21846BD46DB
:100EA0005DF8047B704700BF0070004080B483B0E1
:100EB00000AF78607B681B6843F040027B681A6073
:100EC00000BF0C37BD465DF8047B704780B483B02B
:100ED00000AF786039607B685B6823F010023B6884
:100EE0001A437B685A6000BF0C37BD465DF8047B2F
:100EF000704780B483B000AF78607B685B6843F074
:100F000008027B685A6000BF0C37BD465DF8047B61
:100F1000704780B483B000AF78607B685B6823F073
:100F200008027B685A6000BF0C37BD465DF8047B41
:100F3000704780B483B000AF78607B681B6823F093
:100F400080027B681A6000BF0C37BD465DF8047BE9
:100F50007047000080B485B000AF786039603B68AE
:100F6000012B28D03B68042B23D03B68102B1ED0CC
:100F70003B68402B19D03B68B3F5807F13D03B68AA
:100F8000B3F5806F0DD03B68B3F5805F07D03B6849
:100F9000B3F5803F01D107230EE008230CE00623C0
:100FA0000AE0052308E0042306E0032304E002230B
:100FB00002E0012300E00023FB737B68183319462D
:100FC000FB7B0B4AD35C0B44BB60BB681A68FB7BA2
:100FD0000849CB5C194604238B40DB431A40BB68AD
:100FE0001A6000BF1437BD465DF8047B704700BF30
:100FF000E4220108F022010880B485B000AF7860D7
:1010000039603B68012B28D03B68042B23D03B6818
:10101000102B1ED03B68402B19D03B68B3F5807F66
:1010200013D03B68B3F5806F0DD03B68B3F5805F9C
:1010300007D03B68B3F5803F01D107230EE00823BA
:101040000CE006230AE0052308E0042306E003235E
:1010500004E0022302E0012300E00023FB737B682D
:1010600018331946FB7B0A4AD35C0B44BB60BB6850
:101070001A68FB7B0749CB5C194608238B401A434F
:10108000BB681A6000BF1437BD465DF8047B70472B
:10109000E4220108F022010880B483B000AF786038
:1010A00039607B689A68064B13403A681A437B683C
:1010B0009A6000BF0C37BD465DF8047B704700BFE7
:1010C000F8BFFEFF80B483B000AF786039607B6802
:1010D0005B6823F070023B681A437B685A6000BF6C
:1010E0000C37BD465DF8047B704780B483B000AF19
:1010F00078607B689B6823F080027B689A6000BF01
:101100000C37BD465DF8047B704780B483B000AFF8
:1011100078607B681B6843F001027B681A6000BF3F
:101120000C37BD465DF8047B704780B483B000AFD8
:10113000786039607B681B6823F4F8123B681B04F5
:101140001A437B681A6000BF0C37BD465DF8047B0C
:10115000704780B483B000AF786039607B681B68EB
:1011600023F078723B685B051A437B681A6000BF06
:101170000C37BD465DF8047B704780B483B000AF88
:1011800078607B689B6843F480427B689A6000BF0C
:101190000C37BD465DF8047B704780B483B000AF68
:1011A000786039607B689B6823F400423B681A438F
:1011B0007B689A6000BF0C37BD465DF8047B7047C2
:1011C00080B483B000AF78607B685B6823F49042A2
:1011D0007B685A607B689B6823F02A027B689A6070
:1011E00000BF0C37BD465DF8047B704780B483B008
:1011F00000AF786039607B683A689A6100BF0C374D
:10120000BD465DF8047B704780B483B000AF786062
:1012100039603B681A047B689A6100BF0C37BD4691
:101220005DF8047B704780B5B0B000AF09F0F6FC04
:1012300000F0D2F801F09CF901F056F900F078FACC
:1012400000F0EAFA00F05CFB00F0E6FB00F096FC30
:1012500000F016F900F010FD00F00AFF00F0E2FFC8
:1012600000F088FD01F044F801F0CAF800F0BCF984
:1012700000F00CFA00F05AFE00F0ACFE05F0D2FBD4
:1012800007F1A80300221A605A6007F1A803184664
:1012900005F0F6FB07F1A803184605F0F1FB3B1D2E
:1012A0006E22002118460DF03FFD0023C7F8BC3028
:1012B0000EE0D7F8BC30D9B207F17402D7F8BC30D1
:1012C00013440A461A70D7F8BC300133C7F8BC3053
:1012D000D7F8BC30312BECD907F174031A46322110
:1012E000002005F0A9FB00BF05F0D8FB0346002B4A
:1012F000FAD007F174031A463221322005F09CFB24
:1013000000BF05F0CBFB0346002BFAD00023C7F843
:10131000B8300AE03A1DD7F8B830134400221A70EA
:10132000D7F8B8300133C7F8B830D7F8B830632BE6
:10133000F0D93B1D1A466421002005F08FFB00BF49
:1013400005F0ACFB0346002BFAD00023C7F8B430FD
:101350000AE03A1DD7F8B430134400221A70D7F8C7
:10136000B4300133C7F8B430D7F8B430632BF0D9B8
:101370003B1D1A463221322005F070FB00BF05F0FC
:101380008DFB0346002BFAD00023C7F8B0300AE0EB
:101390003A1DD7F8B030134400221A70D7F8B03095
:1013A0000133C7F8B030D7F8B030632BF0D93B1D0C
:1013B0001A463221002005F051FB00BF05F06EFBFC
:1013C0000346002BFAD001F080FE01F08AFE01F006
:1013D00092FE00BFFDE7000080B500AF0620FFF7DA
:1013E0000BFD00BFFFF71CFD0346062BFAD14FF49F
:1013F0004040FFF733FDFFF721FDFFF789FB00BFFA
:10140000FFF796FB0346012BFAD10023C0220C21E3
:101410004FF48000FFF788FCFFF762FC00BFFFF786
:101420006FFC0346012BFAD100BFFFF72BFD0346EB
:10143000002BFAD00020FFF7B1FB4FF4A050FFF7CC
:10144000C1FB4FF40040FFF7D1FB0220FFF784FB04
:1014500000BFFFF795FB0346082BFAD107480CF0B5
:10146000F5FC0F2009F0E8FB0346002B01D001F04A
:1014700035FB0020FFF71EFC00BF80BD00C2EB0B58
:1014800080B584B000AF3B4600221A605A609A6073
:10149000DA60524B524A1A60504B4FF480325A6015
:1014A0004E4B00229A604D4B01221A614B4B002299
:1014B0009A614A4B002283F82020484B0022DA62CE
:1014C000464B484A9A62454B0022DA60434B082259
:1014D000DA61424B012283F83020404B00225A61EE
:1014E0003E4809F0F9FB0346002B01D001F0F6FA63
:1014F0000A233B6001237B600123BB603B46194606
:10150000364809F03FFD0346002B01D001F0E6FA12
:101510000B233B6002237B603B4619462F4809F0B2
:1015200031FD0346002B01D001F0D8FA0C233B60BB
:1015300003237B603B461946284809F023FD0346F8
:10154000002B01D001F0CAFA0D233B6004237B601D
:101550003B461946214809F015FD0346002B01D0F2
:1015600001F0BCFA0E233B6005237B603B46194625
:101570001A4809F007FD0346002B01D001F0AEFA2E
:101580000F233B6006237B603B461946134809F056
:10159000F9FC0346002B01D001F0A0FA08233B60C0
:1015A00007237B603B4619460C4809F0EBFC0346D9
:1015B000002B01D001F092FA09233B6008237B60E5
:1015C0003B461946054809F0DDFC0346002B01D0D7
:1015D00001F084FA00BF1037BD4680BDA44300204F
:1015E000002001400100000F80B584B000AF3B46F1
:1015F00000221A605A609A60DA60214B214A1A6010
:101600001F4B4FF480325A601D4B00229A601C4BD6
:1016100000221A611A4B00229A61194B002283F8AA
:101620002020174B0022DA62154B174A9A62144B9E
:101630000022DA60124B0122DA61114B002283F89A
:1016400030200F4B01225A610D4809F045FB03463B
:10165000002B01D001F042FA02233B6001237B60A2
:101660000023BB603B461946054809F08BFC034646
:10167000002B01D001F032FA00BF1037BD4680BD0B
:10168000EC430020002101400100000F80B584B030
:1016900000AF3B4600221A605A609A60DA60214B24
:1016A000214A1A601F4B4FF480325A601D4B0022B2
:1016B0009A601C4B00221A611A4B00229A61194B46
:1016C000002283F82020174B0022DA62154B174ABC
:1016D0009A62144B0022DA60124B0122DA61114B3C
:1016E000002283F830200F4B01225A610D4809F087
:1016F000F3FA0346002B01D001F0F0F901233B601F
:1017000001237B600023BB603B461946054809F076
:1017100039FC0346002B01D001F0E0F900BF10377F
:10172000BD4680BD34440020002201400100000F6E
:1017300080B58EB000AF07F11C0300221A605A601A
:101740009A60DA601A615A619A613B1D00221A6040
:101750005A609A60DA601A615A614FF44030FFF7BC
:101760008DFA0220FFF700FB40237B600223BB6061
:101770000323FB6001233B6100237B610423BB61E6
:101780003B1D194621480BF0FEF880237B600223A5
:10179000BB600323FB6001233B6100237B610423C7
:1017A000BB613B1D194619480BF0EDF84FF40010D2
:1017B000FFF7F2FA1648FFF79BF9002200211448C0
:1017C000FFF76EF91248FFF783F91148FFF758F950
:1017D0000F48FFF745F90023FB610E4B3B620023E6
:1017E0007B620023BB620023FB6200233B63002378
:1017F0007B6307F11C03194605480BF0DBF904482D
:10180000FFF71EF900BF3837BD4680BD0004024017
:1018100000540040FF63106080B58EB000AF07F148
:101820001C0300221A605A609A60DA601A615A61D9
:101830009A613B1D00221A605A609A60DA601A6150
:101840005A614FF44020FFF719FA0220FFF78CFA93
:101850004FF480637B600223BB600323FB600123A2
:101860003B6100237B610423BB613B1D194621487A
:101870000BF089F84FF400637B600223BB60032305
:10188000FB6001233B6100237B610423BB613B1DA3
:10189000194618480BF077F84FF48000FFF77CFAF0
:1018A0001548FFF725F9002200211348FFF7F8F843
:1018B0001148FFF70DF91048FFF7E2F80E48FFF75F
:1018C000CFF80023FB610D4B3B6200237B620023BA
:1018D000BB620023FB6200233B6300237B6307F1B1
:1018E0001C03194604480BF065F900BF3837BD46A4
:1018F00080BD00BF0004024000580040FFEAC00065
:1019000080B590B000AF07F11803282200211846D7
:101910000DF00AFA3B4600221A605A609A60DA60BB
:101920001A615A614FF48050FFF74EFA0120FFF719
:101930001BFA10233B6002237B600323BB60002360
:10194000FB6000233B6105237B613B461946304821
:101950000BF019F820233B6002237B600323BB605C
:101960000023FB6000233B6105237B613B46194656
:1019700027480BF008F840233B6002237B600323D9
:10198000BB600023FB6000233B6105237B613B467A
:1019900019461F480AF0F7FF80233B6002237B6053
:1019A0000323BB600023FB6000233B6105237B61B5
:1019B0003B46194616480AF0E6FF0023BB614FF488
:1019C0008273FB614FF4E0633B6200237B62002380
:1019D000BB620023FB6200233B6300237B63002385
:1019E000BB630723FB6307F11803194609480BF093
:1019F000B9FC00210748FFF769FA0648FFF779FAB2
:101A00000448FFF753FA00BF4037BD4680BD00BF12
:101A1000000002400030014080B590B000AF07F1F7
:101A200018032822002118460DF07EF93B460022BB
:101A30001A605A609A60DA601A615A614FF4804005
:101A4000FFF7AAF90220FFF78FF94FF400533B602C
:101A500002237B600323BB600023FB6000233B6108
:101A600005237B613B46194641480AF08CFF4FF441
:101A700080433B6002237B600323BB600023FB6049
:101A800000233B6105237B613B46194638480AF039
:101A90007AFF4FF400433B6002237B600323BB606B
:101AA0000023FB6000233B6105237B613B46194615
:101AB0002F480AF068FF4FF0905201212D48FEF7A1
:101AC0007BFF002201212B48FEF77AFE4FF44032C3
:101AD00001212848FEF74CFF4FF480720121254870
:101AE000FEF792FE002201212248FEF7B1FE4FF4DC
:101AF000806201211F48FEF7CFFE4FF400620121F2
:101B00001C48FEF7EDFE4FF4005201211948FEF784
:101B10000BFF01211748FEF773FF0023BB614FF451
:101B20008273FB614FF470633B6200237B6200238E
:101B3000BB624FF40073FB6200233B6300237B63B3
:101B40000023BB630723FB6307F1180319460A4808
:101B50000BF008FC00210848FFF7B8F90648FFF72A
:101B6000C8F90548FFF7A2F900BF4037BD4680BD60
:101B700000040240006002400038004080B590B090
:101B800000AF07F118032822002118460DF0CCF809
:101B90003B4600221A605A609A60DA601A615A6104
:101BA0004FF40040FFF7F8F80420FFF7DDF84FF49A
:101BB00080633B6002237B600323BB600023FB60E8
:101BC00000233B6106237B613B46194628480AF007
:101BD000DAFE4FF400633B6002237B600323BB60AB
:101BE0000023FB6000233B6106237B613B461946D3
:101BF0001F480AF0C8FE4FF480533B6002237B600D
:101C00000323BB600023FB6000233B6106237B6151
:101C10003B46194616480AF0B6FE0023BB614FF456
:101C20008273FB614FF4E0633B6200237B6200231D
:101C3000BB624FF40073FB6200233B6300237B63B2
:101C40000023BB630723FB6307F118031946094808
:101C50000BF088FB00210748FFF738F90548FFF72C
:101C600048F90448FFF722F900BF4037BD4680BD60
:101C700000080240003C004080B590B000AF07F182
:101C800018032822002118460DF04EF83B4600228A
:101C90001A605A609A60DA601A615A614FF4005013
:101CA000FFF792F81020FFF75FF84FF480533B6086
:101CB00002237B600323BB600023FB6000233B61A6
:101CC00005237B613B46194628480AF05CFE4FF429
:101CD00000533B6002237B600323BB600023FB6057
:101CE00000233B6105237B613B4619461F480AF0F0
:101CF0004AFE4FF480433B6002237B600323BB60BA
:101D00000023FB6000233B6105237B613B461946B2
:101D100016480AF038FE0023BB614FF48273FB6162
:101D20004FF4E0633B6200237B620123BB624FF40C
:101D30000073FB6220233B6300237B630023BB63B0
:101D40000723FB6307F11803194609480BF00AFB48
:101D500000210748FFF7BAF80548FFF7DAF804480A
:101D6000FFF7A4F800BF4037BD4680BD0010024019
:101D70000034014080B590B000AF07F1180328226D
:101D8000002118460CF0D0FF3B4600221A605A6032
:101D90009A60DA601A615A614FF40010FFF714F884
:101DA0000220FEF7E1FF08233B6002237B60032350
:101DB000BB600023FB6000233B6108237B613B4643
:101DC000194657480AF0DFFD10233B6002237B6071
:101DD0000323BB600023FB6000233B6108237B617E
:101DE0003B4619464E480AF0CEFD20233B600223B5
:101DF0007B600323BB600023FB6000233B6108235F
:101E00007B613B46194646480AF0BDFD4FF0007223
:101E100005214448FEF7D0FD402205214148FEF748
:101E2000CFFC4FF4403205213E48FEF7A1FD0022D1
:101E300005213C48FEF7E8FC002205213948FEF761
:101E400007FD4FF4806205213648FEF725FD00228C
:101E500005213448FEF744FD002205213148FEF7F4
:101E600063FD05212F48FEF7CBFD4FF000720621E0
:101E70002C48FEF7A1FD002206212A48FEF7A0FC0F
:101E80004FF4403206212748FEF772FD002206215A
:101E90002448FEF7B9FC002206212248FEF7D8FCB0
:101EA0004FF4806206211F48FEF7F6FC002206214F
:101EB0001C48FEF715FD002206211A48FEF734FDE6
:101EC00006211848FEF79CFD0023BB614FF4827386
:101ED000FB614FF4E0633B6200237B620023BB6243
:101EE0004FF40073FB6200233B6300237B630023FA
:101EF000BB630723FB6307F1180319460A480BF07D
:101F000031FA00210848FEF7E1FF0748FEF7F1FF2C
:101F10000548FEF7CBFF00BF4037BD4680BD00BF80
:101F200000040240006402400054014080B588B0C3
:101F300000AF07F1100300221A605A609A60DA605D
:101F40003B1D00221A605A609A60204B204A1A609A
:101F50001E4B00225A601D4B00229A601B4B4FF60D
:101F6000FF72DA60194B00221A61184B00225A6185
:101F7000164B00229A6115480AF010F90346002B0F
:101F800001D000F0ABFD4FF480533B6107F110032B
:101F900019460E480AF05AF90346002B01D000F00A
:101FA0009DFD00237B600023BB600023FB603B1D85
:101FB000194606480AF054FB0346002B01D000F0F6
:101FC0008DFD00BF2037BD4680BD00BFDC44002032
:101FD0000000014080B588B000AF07F11003002277
:101FE0001A605A609A60DA603B1D00221A605A60DB
:101FF0009A601E4B4FF080421A601C4B00225A60C0
:102000001A4B00229A60194B4FF0FF32DA60174BDF
:1020100000221A61154B80229A6114480AF0BEF81A
:102020000346002B01D000F059FD4FF480533B6173
:1020300007F1100319460D480AF008F90346002B72
:1020400001D000F04BFD00237B600023FB603B1DB3
:10205000194606480AF004FB0346002B01D000F0A5
:102060003DFD00BF2037BD4680BD00BF2845002094
:1020700080B594B000AF07F13C0300221A605A60AB
:102080009A60DA601A6107F11C03202200211846C9
:102090000CF04AFE3B1D00221A605A609A60DA601A
:1020A0001A615A610420FEF777FE0A23BB870023DA
:1020B0003B644CF250337B644FF40073BB6407F114
:1020C0003C03194655480BF041FA5448FEF731FFDE
:1020D00000215248FEF7E0FF01215048FEF78CFF37
:1020E0006023FB6100233B6200237B620023BB6211
:1020F0000023FB6207F11C031A46012147480BF03D
:10210000BFFA01214548FEF725FF10214348FEF79D
:1021100073FF07F11C031A46102140480BF0B0FA78
:1021200010213E48FEF716FF4FF480713B48FEF742
:1021300063FF07F11C031A464FF4807137480BF018
:102140009FFA4FF480713548FEF704FF4FF4805139
:102150003248FEF751FF07F11C031A464FF4805135
:102160002E480BF08DFA4FF480512C48FEF7F2FE0A
:1021700000212A48FEF7A6FF2848FEF7B6FF0820F0
:10218000FEF7F2FD4FF480537B600223BB60002317
:10219000FB6000233B6100237B610223BB613B1D8D
:1021A00019461F480AF0EFFB4FF400537B600223EF
:1021B000BB600023FB6000233B6100237B610223A3
:1021C000BB613B1D194616480AF0DDFB4FF4804306
:1021D0007B600223BB600023FB6000233B61002384
:1021E0007B610223BB613B1D19460D480AF0CBFB06
:1021F0004FF400437B600223BB600023FB6000239D
:102200003B6100237B610223BB613B1D19460448EF
:102210000AF0B9FB00BF5037BD4680BD0008004042
:10222000000C024080B58EB000AF07F11C03002205
:102230001A605A609A60DA601A615A619A613B1DAD
:1022400000221A605A609A60DA601A615A614FF08F
:102250004050FEF7F9FC4FF08040FEF79DFD102046
:10226000FEF782FD80237B600223BB600323FB60BB
:1022700000233B6100237B610823BB613B1D1946A2
:1022800019480AF080FB4FF480737B600223BB6027
:102290000323FB6000233B6100237B610823BB61B8
:1022A0003B1D194610480AF06EFB4FF4E133FB6109
:1022B00000233B6200237B620023BB620C23FB6292
:1022C00000233B6300237B6307F11C031946074887
:1022D0000BF0F6FC0548FEF773FF0448FEF715FF08
:1022E00000BF3837BD4680BD001002400078004076
:1022F00080B58EB000AF07F11C0300221A605A604F
:102300009A60DA601A615A619A613B1D00221A6074
:102310005A609A60DA601A615A614FF44030FEF7F1
:1023200079FC1020FEF750FD0120FEF71DFD4FF453
:1023300000737B600223BB600323FB6000233B61CF
:1023400000237B610723BB613B1D19462A480AF025
:102350001AFB4FF480637B600223BB600323FB60A6
:1023600000233B6100237B610723BB613B1D1946B2
:1023700021480AF008FB4FF480537B600223BB60C6
:102380000323FB6000233B6100237B610723BB61C8
:102390003B1D194618480AF0F6FA4FF4E133FB6189
:1023A00000233B6200237B620023BB620C23FB62A1
:1023B00000233B6300237B6307F11C0319460F488E
:1023C0000BF07EFC0D48FEF7D8FE00210B48FEF70F
:1023D000E4FE00210948FEF7BCFE00210748FEF795
:1023E000A4FE0648FEF7ECFE0448FEF78EFE00BF92
:1023F0003837BD4680BD00BF0000024000100140DC
:1024000080B58EB000AF07F11C0300221A605A603D
:102410009A60DA601A615A619A613B1D00221A6063
:102420005A609A60DA601A615A614FF04060FEF7B4
:10243000F1FB2020FEF7C8FC0420FEF795FC4023AA
:102440007B600223BB600323FB6000233B6100230E
:102450007B610823BB613B1D194621480AF093FAB2
:1024600080237B600223BB600323FB6000233B616E
:1024700000237B610823BB613B1D194618480AF005
:1024800082FAFEF713F9034600220E211846FEF7E2
:1024900063F9034619464720FEF734F94720FEF753
:1024A00013F94FF4E133FB6100233B6200237B62AD
:1024B0000023BB620C23FB6200233B6300237B638E
:1024C00007F11C03194607480BF0FAFB0548FEF715
:1024D00077FE0448FEF719FE00BF3837BD4680BDC1
:1024E000000802400014014080B500AF4FF48000A6
:1024F000FEF73AFC4FF40010FEF736FCFEF7D6F874
:102500000346002200211846FEF726F90346194625
:102510000C20FEF7F7F80C20FEF7D6F80022002179
:10252000382009F0E0F8382009F0F9F8FEF7BEF895
:102530000346002200211846FEF70EF9034619460D
:102540004420FEF7DFF84420FEF7BEF8FEF7AEF8B1
:102550000346002200211846FEF7FEF803461946FE
:102560004520FEF7CFF84520FEF7AEF800BF80BD4E
:1025700080B586B000AF3B4600221A605A609A6070
:10258000DA601A615A611020FEF7EEFB0420FEF7B4
:10259000EBFB8020FEF7E8FB0120FEF7E5FB0220C5
:1025A000FEF7E2FB0820FEF7DFFB0421BF48FEF741
:1025B0002BFE0821BD48FEF727FE1021BB48FEF781
:1025C00023FE2021B948FEF71FFE4021B748FEF741
:1025D0001BFE4FF40051B648FEF716FE4FF4804143
:1025E000B348FEF711FE4FF40041B148FEF70CFE70
:1025F0004FF40061AD48FEF707FE4FF40061AD48AF
:10260000FEF702FE4FF40041AA48FEF7FDFD01214E
:10261000A948FEF7F9FD0221A748FEF7F5FD0421C0
:10262000A548FEF7F1FD1021A348FEF7EDFD20219E
:10263000A148FEF7E9FD40219F48FEF7E5FD042192
:102640009E48FEF7D3FD4FF480619848FEF7CEFD1B
:102650004FF400419548FEF7C9FD4FF4805197486B
:10266000FEF7C4FD4FF480719348FEF7BFFD4FF4B1
:1026700000719148FEF7BAFD4FF480618E48FEF775
:10268000B5FD80218C48FEF7B1FD4FF480718B4879
:10269000FEF7ACFD4FF400718848FEF7A7FD01215D
:1026A0008248FEF7A3FD02218048FEF79FFD042328
:1026B0003B6001237B600023BB600023FB600023A1
:1026C0003B613B46194679480AF05DF908233B60B7
:1026D00001237B600023BB600023FB6000233B6180
:1026E0003B46194671480AF04EF910233B6001231E
:1026F0007B600023BB600023FB6000233B613B4603
:1027000019466A480AF03FF920233B6001237B60A9
:102710000023BB600023FB6000233B613B4619465E
:1027200062480AF030F940233B6001237B600023BC
:10273000BB600023FB6000233B613B4619465B48BE
:102740000AF021F94FF400533B6001237B60002322
:10275000BB600023FB6000233B613B4619465448A5
:102760000AF011F94FF480433B6001237B600023A2
:10277000BB600023FB6000233B613B4619464C488D
:102780000AF001F94FF400433B6001237B60002312
:10279000BB600023FB6000233B613B461946444875
:1027A0000AF0F1F804233B6001237B600023BB6047
:1027B0000023FB6000233B613B4619463F480AF07B
:1027C000E2F84FF480633B6001237B600023BB6031
:1027D0000023FB6000233B613B46194633480AF067
:1027E000D2F84FF400633B6001237B600023BB60A1
:1027F0000023FB6000233B613B4619462B480AF04F
:10280000C2F84FF400433B6001237B600023BB60B0
:102810000023FB6000233B613B46194623480AF036
:10282000B2F84FF480533B6001237B600023BB6010
:102830000023FB6000233B613B4619461F480AF01A
:10284000A2F84FF480733B6001237B600323BB60DD
:102850000023FB6000233B613B46194616480AF003
:1028600092F84FF400733B6001237B600323BB604D
:102870000023FB6000233B613B4619460E480AF0EB
:1028800082F84FF480633B6001237B600323BB60CD
:102890000023FB6000233B613B46194606480AF0D3
:1028A00072F84FF400633B600AE000BF0010024082
:1028B0000008024000000240000C024000040240F8
:1028C00000237B6000233B613B4619467E480AF0AB
:1028D0005AF84FF480733B6000237B6000233B6118
:1028E0003B46194679480AF04EF84FF400733B60B6
:1028F00000237B6000233B613B46194673480AF086
:1029000042F84FF480733B6000237B6000233B61FF
:102910003B4619466E480AF036F84FF400633B60B8
:1029200001237B600023BB600023FB6000233B612D
:102930003B46194666480AF026F84FF400433B60D0
:1029400001237B600023BB600023FB6000233B610D
:102950003B4619465E480AF016F801233B60012306
:102960007B600023BB600023FB6000233B613B4690
:10297000194655480AF007F802233B6001237B60A3
:102980000023BB600023FB6000233B613B461946EC
:102990004D4809F0F8FF04233B6001237B600023CE
:1029A000BB600023FB6000233B613B461946464861
:1029B00009F0E9FF08233B6000237B6000233B61B3
:1029C0003B461946404809F0DEFF10233B600123D7
:1029D0007B600023BB600023FB6000233B613B4620
:1029E0001946394809F0CFFF20233B6001237B6063
:1029F0000023BB600023FB6000233B613B4619467C
:102A0000314809F0C0FF40233B6001237B60002375
:102A1000BB600023FB6000233B613B4619462A480C
:102A200009F0B1FF80233B6001237B600023BB6082
:102A30000023FB6000233B613B461946224809F016
:102A4000A2FF4FF480733B6001237B600023BB60D7
:102A50000023FB6000233B613B4619461D4809F0FB
:102A600092FF4FF400733B6001237B600023BB6047
:102A70000023FB6000233B613B461946154809F0E3
:102A800082FF01233B6001237B600023BB600023A6
:102A9000FB6000233B613B4619460F4809F073FF7A
:102AA00002233B6001237B600023BB600023FB60AB
:102AB00000233B613B461946074809F064FF00BF0D
:102AC0001837BD4680BD00BF000C02400008024020
:102AD00000000240000402400010024080B400AF39
:102AE00072B600BF00BFFDE780B483B000AF0F4BEC
:102AF0001B6C0E4A43F0805313640C4B1B6C03F0A9
:102B000080537B607B68094B5B6C084A43F48043CD
:102B10005364064B5B6C03F480433B603B6800BF2F
:102B20000C37BD465DF8047B704700BF003802409B
:102B300080B58EB000AF786007F1240300221A60E0
:102B40005A609A60DA601A617B681B68634A934234
:102B50006CD1634B5B6C624A43F480735364604B8B
:102B60005B6C03F480733B623B6A5D4B1B6B5C4A9E
:102B700043F0040313635A4B1B6B03F00403FB6124
:102B8000FB69574B1B6B564A43F002031363544BCC
:102B90001B6B03F00203BB61BB693F237B62032312
:102BA000BB620023FB6207F1240319464D4809F07C
:102BB00049F903237B620323BB620023FB6207F115
:102BC00024031946484809F03DF9484B484A1A6021
:102BD000464B00225A60454B00229A60434B00222C
:102BE000DA60424B4FF480621A61404B4FF400624E
:102BF0005A613E4B4FF400529A613C4B4FF4807245
:102C0000DA613A4B00221A62384B00225A62374886
:102C100008F0A0FD0346002B01D0FFF75FFF7B68A3
:102C2000324A9A63314A7B68936352E07B681B683F
:102C3000304A934224D12A4B5B6C294A43F40073F7
:102C40005364274B5B6C03F400737B617B69244BFB
:102C50001B6B234A43F001031363214B1B6B03F0EF
:102C600001033B613B690C237B620323BB620023AE
:102C7000FB6207F1240319461F4809F0E3F828E036
:102C80007B681B681D4A934223D1154B5B6C144A29
:102C900043F480635364124B5B6C03F48063FB600A
:102CA000FB680F4B1B6B0E4A43F0010313630C4B85
:102CB0001B6B03F00103BB60BB6802237B62032331
:102CC000BB620023FB6207F1240319460A4809F09E
:102CD000B9F800BF3837BD4680BD00BF00200140B5
:102CE0000038024000080240000402407C440020FA
:102CF0001064024000210140000002400022014017
:102D000080B584B000AF78607B681B68164A934238
:102D10000CD1164B5B6C154A43F001035364134B03
:102D20005B6C03F00103FB60FB6818E07B681B68C9
:102D3000B3F1804F13D10D4B1B6C0C4A43F00103D0
:102D400013640A4B1B6C03F00103BB60BB680022D9
:102D500000211C2008F0C7FC1C2008F0E0FC00BF8C
:102D60001037BD4680BD00BF000001400038024062
:102D700080B483B000AF78607B685B6803F4006365
:102D8000B3F5006F0CBF01230023DBB218460C37EC
:102D9000BD465DF8047B704780B483B000AF7860B7
:102DA0007B685B6803F40013B3F5001F0CBF0123BD
:102DB0000023DBB218460C37BD465DF8047B704734
:102DC00080B483B000AF78607B684FF40062DA6053
:102DD00000BF0C37BD465DF8047B704780B483B0FC
:102DE00000AF78607B684FF40012DA6000BF0C37E8
:102DF000BD465DF8047B704780B400AF00BFFDE7BF
:102E000080B400AF00BFFDE780B400AF00BFFDE7B6
:102E100080B400AF00BFFDE780B400AF00BFFDE7A6
:102E200080B400AF00BFBD465DF8047B704780B43E
:102E300000AF00BFBD465DF8047B704780B400AFB3
:102E400000BFBD465DF8047B704780B500AF07F05A
:102E5000ABFE07F021FF00BF80BD000080B500AFD2
:102E6000024808F085FD00BF80BD00BF7C44002003
:102E700080B400AF00BFBD465DF8047B7047000022
:102E800080B500AF0B48FFF787FF0346002B02D049
:102E90000848FFF7A3FF0748FFF76AFF0346002B28
:102EA00002D00448FFF78CFF034804F04DFD00BF3B
:102EB00080BD00BF006402407000002080B500AFFC
:102EC00001F008FE00BF80BD80B400AF01231846AA
:102ED000BD465DF8047B704780B582B000AF786076
:102EE00039600BF081FF034616221A604FF0FF3362
:102EF00018460837BD4680BD80B582B000AF786007
:102F00004FF0FF317868FFF7E7FF00BFFDE780B5BE
:102F100086B000AFF860B9607A6000237B610AE098
:102F2000AFF300800146BB685A1CBA60CAB21A707F
:102F30007B6901337B617A697B689A42F0DB7B684D
:102F400018461837BD4680BD80B586B000AFF86022
:102F5000B9607A6000237B6109E0BB685A1CBA60E3
:102F60001B781846AFF300807B6901337B617A6977
:102F70007B689A42F1DB7B6818461837BD4680BDF6
:102F800080B483B000AF78604FF0FF3318460C3741
:102F9000BD465DF8047B704780B483B000AF7860B5
:102FA00039603B684FF400525A60002318460C37D2
:102FB000BD465DF8047B704780B483B000AF786095
:102FC000012318460C37BD465DF8047B704780B47A
:102FD00085B000AFF860B9607A60002318461437F6
:102FE000BD465DF8047B704780B586B000AF786061
:102FF000144A154BD31A7B617B693B61134B1B68E9
:10300000002B02D1114B124A1A60104B1A687B68D0
:1030100013443A699A4207D20BF0E6FE03460C22AB
:103020001A604FF0FF3309E0084B1B68FB60074B49
:103030001A687B681344054A1360FB681846183702
:10304000BD4680BD0000082000040000744500203B
:1030500070DB002080B400AF064BD3F88830054AFF
:1030600043F47003C2F8883000BFBD465DF8047BAE
:10307000704700BF00ED00E0DFF834D0FFF7EAFF53
:103080000C480D490D4A002302E0D458C4500433C3
:10309000C4188C42F9D30A4A0A4C002301E0136099
:1030A0000432A242FBD30BF0A5FEFEF7BCF870473A
:1030B000000008200000002088430020D02A0108DA
:1030C0008843002070DB0020FEE780B500AF01F0F0
:1030D0005FFC01F0B5FD02F0ABFB00F095F800BF1E
:1030E00080BD80B500AF012000F0B0F8042001F0F1
:1030F00081FC00BF80BD80B500AF07F053FC00BF6E
:1031000080BD000080B586B002AF786039600D4B9D
:10311000FB60292300930C4BFA680C490C4807F01C
:103120004BF902F03BFD03F07DFC03F053F903F093
:1031300069F97B68012283F8512000BF1037BD4632
:1031400080BD00BFB80C0108C00C0108E80C0108E4
:103150007846002080B584B000AF786039607B6825
:103160005B69FB607B685B693968786898470346F0
:10317000FB72FB7A002B08D1FB68064978689847F8
:103180007B685B6904497868984700BF1037BD4683
:1031900080BD00BF382301082423010880B584B016
:1031A00002AF786039607B68002B03D1002113489F
:1031B00002F0B6FB78683B685A683B689B680093EE
:1031C00013460F4A0F4907F03BFC3B681A687B68BF
:1031D0005A617B6818337A680E21184607F092FC12
:1031E0007B681833184607F0C5FC3B681A7B7B6880
:1031F00083F84C2000BF0837BD4680BD142301086A
:10320000553100080531000890B587B002AF122390
:103210000093022324220949094807F032F9094B97
:103220003C460FCB84E80F003B4619460648FFF7A3
:10323000B5FF00BF1437BD4690BD00BFE445002078
:10324000084600200C0D01087845002080B582B0AA
:1032500000AF0346FB71FB791946034807F00AFCEF
:1032600000BF0837BD4680BD7845002080B586B0D8
:1032700002AF786039603B681B88102B1CD0102B84
:1032800028DC012B02D00F2B11D023E0144BFB6064
:103290005A230093134BFA681349144807F08CF82B
:1032A0007B681833184607F065FC012313E07B6840
:1032B0000F4A5A6100230EE07B6803F140003B682F
:1032C00002330C2219460BF0BCFD7B68094A5A6197
:1032D000002300E0022318461037BD4680BD00BF22
:1032E000B80C0108C00C01081C0D0108784600202C
:1032F000F93200082535000880B590B002AF78603B
:1033000039603B681B88013B122B00F2EF8001A261
:1033100052F823F061330008ED3400081734000838
:10332000ED340008ED340008ED340008ED340008F9
:10333000ED340008ED340008ED340008ED340008E9
:10334000ED340008ED340008DB340008ED340008EB
:10335000ED340008393400086D340008A134000849
:10336000654B7B6279230093644B7A6A64496548B4
:1033700007F022F87B681833002242F210711846D9
:1033800007F0E2FB7B6893F82A301946786800F072
:1033900094F9594B3B627B6893F8523001937D233B
:1033A0000093564B3A6A5849564807F005F8786832
:1033B00000F0A5F9504BFB617B6893F85230019304
:1033C000802300934D4BFA6950494E4806F0F4FFB4
:1033D0007B68DB6ABB607B681B6BFB607B685B6B3D
:1033E0003B617B681B8D7B617B6893F82A30BB61F6
:1033F0007B6893F82B30184602F03AFC07F108037B
:10340000184602F08FFF03F047F97B68002283F82B
:103410004C2001236BE0384BBB6290230093374B69
:10342000BA6A3B49374806F0C7FF7B68183318462D
:1034300007F0A0FB01235AE02F4BFB629623009379
:103440002E4BFA6A33492F4806F0B6FF7B6893F893
:103450004C30002B04D17B68012283F84C2003E020
:103460007B68032283F84C20012340E0224B3B631E
:10347000A1230093214B3A6B2749224806F09CFF79
:103480007B6893F84C30012B04D17B68022283F8CF
:103490004C2003E07B68032283F84C20012326E0C4
:1034A0007B6893F84C30022B04D17B68052283F8AB
:1034B0004C2003E07B68032283F84C200E4B7B6397
:1034C000B02300930D4B7A6B14490E4806F074FF3D
:1034D0007B68134A5A61002309E07B68042283F861
:1034E0004C207B680E4A5A61002300E002231846F4
:1034F0003837BD4680BD00BFB80C0108C00C0108BC
:10350000540D010878460020900D0108B00D010807
:10351000E80D0108240E0108500E0108780E01087C
:103520006D32000880B483B000AF78603960022348
:1035300018460C37BD465DF8047B704780B584B0F3
:1035400000AFF860B9607A60BB68012B02D87B6875
:10355000642B01D9062318E0FB6893F85130002B47
:1035600006D0002002F0D6FAFB68002283F8512032
:103570007968B86802F0BCFB7B68D9B2FA68BB68AE
:1035800013444D330A461A70002318461037BD46BF
:1035900080BD80B485B000AF786039603B68002B97
:1035A00002D00123FB6001E00023FB607A68FB6826
:1035B00013444D331B7818461437BD465DF8047B21
:1035C000704780B582B000AF786039603B68232BCC
:1035D00001D9062314E07B6893F85130012B06D003
:1035E000012002F097FA7B68012283F851203868A5
:1035F00002F00AFB3B68DAB27B6883F84F200023B5
:1036000018460837BD4680BD80B582B000AF7860EF
:103610007B6893F85130012B06D0012002F07AFA32
:103620007B68012283F8512002F0FEFA7B68FF22BA
:1036300083F84F20002318460837BD4680BD80B56B
:1036400082B000AF786039603B68072B01D9062350
:1036500014E07B6893F85130012B06D0012002F072
:1036600059FA7B68012283F85120386802F0E6FAA3
:103670003B68DAB27B6883F850200023184608378D
:10368000BD4680BD80B582B000AF78607B6893F89E
:103690005130012B06D0012002F03CFA7B68012258
:1036A00083F8512002F0DAFA7B68FF2283F8502079
:1036B000002318460837BD4680BD80B582B000AFF4
:1036C000786039603B68232B01D9062313E07B68BF
:1036D00093F85630012B05D002F008FF7B680122D9
:1036E00083F85620386802F02DFF3B68DAB27B6819
:1036F00083F85220002318460837BD4680BD80B5A8
:1037000082B000AF78607B6893F85630002B05D00C
:1037100002F002FF7B68002283F85620002318463F
:103720000837BD4680BDB0B483B000AF7860396063
:103730003B681B88002B04D03B681B88B3F57A7F5D
:1037400001D9062328E03B689B78002B03D03B6817
:103750009B78242B01D906231EE03B68DB78642B81
:1037600001D9062318E03B681B69B3F5006F01D946
:10377000062311E03B685B69002B01D106230BE0B7
:103780007B683A6803F1280415460FCD0FC495E80D
:10379000030084E80300002318460C37BD46B0BC84
:1037A0007047B0B483B000AF786039603A687B6826
:1037B000154603F128040FCC0FC594E8030085E8F3
:1037C000030000BF0C37BD46B0BC704780B584B065
:1037D00000AF78607B682833FB60FB681B88002B98
:1037E00004D0FB681B88B3F57A7F01D9062326E055
:1037F000FB689B78002B03D0FB689B78242B01D9B6
:1038000006231CE0FB68DB78642B01D9062316E055
:10381000FB685A68FB689B681A44FB68DB681344C2
:10382000FA68128802FB03F3074A934201D9062380
:1038300005E07B680549184607F046F9002318465D
:103840001037BD4680BD00BF0000127A4C2301082E
:1038500080B400AFBFF34F8F00BF064BDB6803F4AB
:10386000E0620449044B1343CB60BFF34F8F00BFAA
:1038700000BFFDE700ED00E00400FA0580B588B068
:1038800000AFF860B9607A6007F11403074A0A21B3
:1038900018460BF0C3F807F114031946F86805F051
:1038A00065F900BF2037BD4680BD00BF5416010832
:1038B00080B584B000AFF860B9607A60FFF7C8FFE8
:1038C00080B588B000AFF860B9607A600023BB6152
:1038D0000023FB82B86805F041FA03467B757B7DC7
:1038E000012B04D02449F86806F0BEFB40E001211A
:1038F000B86805F0FDF938613B691B78612B16D17A
:103900000023FB770FE0FB7F184601F0DFFF034643
:10391000FB82FA7FB7F916301849F86806F0A4FB65
:10392000FB7F0133FB77FB7F072BECD920E03B6962
:103930001B782F2B18D93B691B78372B14D8386983
:103940000AF094FA0346BB61B86901F0BFFF034671
:10395000FB820B4804F042FFB7F91630BA690749F9
:10396000F86806F081FB03E00649F86806F07CFB86
:103970002037BD4680BD00BF5C1601087C160108DB
:1039800078D900208C16010880B588B000AFF860A7
:10399000B9607A60B86805F0E1F90346FB61FB693C
:1039A000012B04D01549F86806F05EFB23E0144BA8
:1039B0001B68184601F020FD034683F00103DBB2CB
:1039C000002B04D00F49F86806F04EFB13E00121EC
:1039D000B86805F08DF9B861B8690AF047FA03468E
:1039E0007B61074B1B687969184601F0BAFE0649EE
:1039F000F86806F039FB2037BD4680BD5C1601082B
:103A000004000020A0160108EC16010880B584B05F
:103A100000AFF860B9607A600A4B1B68184601F085
:103A2000B9FE0346002B04D00749F86806F01CFBDA
:103A300003E00649F86806F017FB00BF1037BD46E3
:103A400080BD00BF04000020F4160108041701081F
:103A500080B588B000AFF860B9607A60B86805F0EA
:103A60007DF90346BB61BB69012B04D03849F86876
:103A700006F0FAFA69E0374B1B68184601F0BCFC07
:103A8000034683F00103DBB2002B04D03249F8680F
:103A900006F0EAFA59E00121B86805F029F97861E1
:103AA00000233B617B691B78612B25D10023FB61DF
:103AB0001EE0284B1B68F969184601F058FC386174
:103AC0003B69002B0CD1234B1B680022F969184677
:103AD00001F06DFCFA692149F86806F0C5FA04E0C6
:103AE000FA691F49F86806F0BFFAFB690133FB6108
:103AF000FB69032BDDD928E07B691B782F2B24D9A8
:103B00007B691B78332B20D878690AF0AFF903461C
:103B1000FB61104B1B68F969184601F028FC3861FD
:103B20003B69002B0CD10B4B1B680022F96918462E
:103B300001F03DFCFA690949F86806F095FA04E0DD
:103B4000FA690749F86806F08FFA2037BD4680BD4C
:103B50005C16010804000020141701085C17010816
:103B60007017010880B588B000AFF860B9607A605E
:103B7000B86805F0F3F80346FB61FB69012B04D03C
:103B80001549F86806F070FA22E00121B86805F0DE
:103B9000AFF8B861B8690AF069F90346FB82FB8A9D
:103BA000B3F5FA7F04D3FB8A40F6B832934204D9C6
:103BB0000A49F86806F058FA0AE0094B1B68FA8AC5
:103BC0001146184601F07DFC0649F86806F04CFAEB
:103BD0002037BD4680BD00BF88170108B017010817
:103BE00004000020E417010880B586B000AFF8603B
:103BF000B9607A60084B1B68184601F0A8FA0346C2
:103C0000FB82FB8A1A460549F86806F02DFA00BFC8
:103C10001837BD4680BD00BF04000020EC17010826
:103C200080B588B000AFF860B9607A60B86805F018
:103C300095F80346BB61BB69042B04D02449F8689E
:103C400006F012FA41E00023FB613BE0FB699BB206
:103C500001339BB21946B86805F04AF80346184686
:103C60000AF004F90346D9B207F11402FB691344C0
:103C70000A461A7007F11402FB6913441B78012BE2
:103C800005D9FA691349F86806F0EEF91DE007F165
:103C90001402FB6913441B78002B08D10E4B1B68E0
:103CA000FA69D2B21146184601F0DBFB07E00A4B75
:103CB0001B68FA69D2B21146184601F0B1FBFB69E4
:103CC0000133FB61FB69032BC0D92037BD4680BDA2
:103CD0000C180108301801080400002080B586B0D7
:103CE00000AFF860B9607A60154B1B68184601F0A8
:103CF000DBFB0346FB7400237B6115E0FA7C7B69E8
:103D000042FA03F303F00103002B05D07A690D4951
:103D1000F86806F0A9F904E07A690B49F86806F03A
:103D2000A3F97B6901337B617B69032BE6D90749E2
:103D3000F86806F099F900BF1837BD4680BD00BF8E
:103D400004000020581801086C18010884180108A4
:103D500080B58CB000AFF860B9607A60364B1B68F4
:103D6000184601F049FB034683F00103DBB2002B48
:103D700004D03249F86806F077F95AE0B86804F0E0
:103D8000EDFF0346BB62BB6A032B04D02C49F868E5
:103D900006F06AF94DE00121B86804F0A9FF7862E5
:103DA000786A0AF063F803463B623B6A032B04D946
:103DB0002449F86806F058F93BE00221B86804F09D
:103DC00097FFF861F8690AF051F80346FB62FB6A55
:103DD000012B02D90123FB6201E00023FB620321D6
:103DE000B86804F085FFB861B8690AF03FF8034687
:103DF000FB82FB8A40F6B832934204D91249F86834
:103E000006F032F915E00C4B1868FB8AFA6A396A39
:103E100001F027FC38613B69002B04D00B49F8689E
:103E200006F022F905E0FB8A3A6A0949F86806F0CB
:103E30001BF93037BD4680BD0400002088180108FA
:103E4000AC180108D8180108FC1801082819010845
:103E50003C19010880B58AB000AFF860B9607A609B
:103E60002F4B1B68184601F0C7FA034683F0010385
:103E7000DBB2002B04D02B49F86806F0F5F84CE0D3
:103E8000B86804F06BFF03467B627B6A022B04D0A8
:103E90002549F86806F0E8F83FE00121B86804F029
:103EA00027FF3862386A09F0E1FF0346FB61FB69CE
:103EB000032B04D91D49F86806F0D6F82DE002213D
:103EC000B86804F015FFB861B86909F0CFFF034680
:103ED0007B61134B18687B69002B14BF01230023FF
:103EE000DBB21A46F96901F062FA38613B69002BCE
:103EF00005D0FA690E49F86806F0B6F80DE07B695E
:103F0000002B05D0FA690B49F86806F0ADF804E01B
:103F1000FA690949F86806F0A7F82837BD4680BD58
:103F2000040000208818010854190108D818010855
:103F30007419010898190108B419010880B588B0EE
:103F400000AFF860B9607A60B86804F007FF034614
:103F5000FB61FB69012B04D01249F86806F084F874
:103F60001CE00121B86804F0C3FEB861B86909F02B
:103F70007DFF0346FB75FB7D642B04D90A49F86875
:103F800006F072F80AE0094B1B68FA7D11461846E4
:103F900001F0B3FA0649F86806F066F82037BD4626
:103FA00080BD00BFD0190108F419010804000020E9
:103FB000E417010880B586B000AFF860B9607A6098
:103FC000084B1B68184601F0AEFA0346FB75FB7DF3
:103FD0001A460549F86806F047F800BF1837BD468D
:103FE00080BD00BF04000020181A010880B588B009
:103FF00000AFF860B9607A60B86804F0AFFE0346BD
:10400000BB61BB69042B04D02449F86806F02CF886
:1040100041E00023FB613BE0FB699BB201339BB2B3
:104020001946B86804F064FE0346184609F01EFFFE
:104030000346D9B207F11402FB6913440A461A7009
:1040400007F11402FB6913441B78012B05D9FA69A7
:104050001349F86806F008F81DE007F11402FB693F
:1040600013441B78002B08D10E4B1B68FA69D2B29F
:104070001146184601F085FA07E00A4B1B68FA69F9
:10408000D2B21146184601F05BFAFB690133FB61BD
:10409000FB69032BC0D92037BD4680BD341A010807
:1040A000301801080400002080B586B000AFF86029
:1040B000B9607A60144B1B68184601F085FA034614
:1040C000FB7400237B6113E0FA7C7B6942FA03F303
:1040D00003F00103002B04D00C49F86805F0C4FF7D
:1040E00003E00B49F86805F0BFFF7B6901337B6192
:1040F0007B69032BE8D90749F86805F0B5FF00BFD5
:104100001837BD4680BD00BF040000205C1A0108BE
:10411000741A01088418010880B588B000AFF860EF
:10412000B9607A60B86804F019FE0346FB61FB6968
:10413000012B04D01549F86805F096FF23E0012112
:10414000B86804F0D5FDB861B86909F08FFE034680
:10415000FB820F4B1B68B7F916201146184601F079
:1041600056FAB7F9163007EE903AB8EEE77AF2EE63
:10417000046AC7EE267AB7EEE77A53EC172B0549A7
:10418000F86805F071FF2037BD4680BD901A010820
:1041900004000020B81A010880B586B000AFF860AE
:1041A000B9607A600E4B1B68184601F040FA03466E
:1041B000FB82B7F9163007EE903AB8EEE77AF2EEE6
:1041C000046AC7EE267AB7EEE77A53EC172B054957
:1041D000F86805F049FF00BF1837BD4680BD00BF35
:1041E00004000020D81A010880B588B000AFF8603C
:1041F000B9607A60B86804F0B1FD0346FB61FB6901
:10420000012B04D01049F86805F02EFF19E00121B8
:10421000B86804F06DFDB861B86909F027FE03467F
:104220007B617B69072B04D90849F86805F01CFFFE
:1042300007E0074B1B687A69D2B21146184601F0B5
:10424000D0F92037BD4680BDF81A0108101B0108BF
:104250000400002080B586B000AFF860B9607A60D5
:104260000023FB75084B1B68184601F0EDF9034667
:10427000FB75FB7D1A460549F86805F0F5FE00BFA1
:104280001837BD4680BD00BF040000202C1B01086C
:1042900080B584B000AFF860B9607A60064B1B68E7
:1042A000184600F061FF0549F86805F0DDFE00BF23
:1042B0001037BD4680BD00BF040000203C1B010834
:1042C00080B584B000AFF860B9607A60064B1B68B7
:1042D000184600F065FF0549F86805F0C5FE00BF07
:1042E0001037BD4680BD00BF04000020501B0108F0
:1042F00080B588B000AFF860B9607A60B86804F043
:104300002DFD0346FB61FB69012B04D01449F868BD
:1043100005F0AAFE21E00121B86804F0E9FCB861CB
:10432000B86909F0A3FD0346FB82B7F91630642B88
:1043300004DD0C49F86805F097FE0EE00A4B1B6897
:10434000B7F9162000211846FFF7F8F8B7F916302C
:104350001A460649F86805F087FE2037BD4680BD3D
:10436000641B01088C1B010808000020B01B010819
:1043700080B588B000AFF860B9607A60B86804F0C2
:10438000EDFC0346FB61FB69012B04D01449F8687E
:1043900005F06AFE21E00121B86804F0A9FCB861CB
:1043A000B86909F063FD0346FB82B7F91630642B48
:1043B00004DD0C49F86805F057FE0EE00A4B1B6857
:1043C000B7F9162001211846FFF7B8F8B7F91630EB
:1043D0001A460649F86805F047FE2037BD4680BDFD
:1043E000D41B01088C1B010808000020B01B010829
:1043F00080B586B000AFF860B9607A600B4B1B687F
:1044000000211846FFF7C5F87861084B1B680121A9
:104410001846FFF7BEF838613B697A690449F868C5
:1044200005F022FE00BF1837BD4680BD0800002001
:104430001C1C010880B588B000AFF860B9607A60D4
:10444000B86804F08BFC0346FB61FB69012B04D0C8
:104450001249F86805F008FE1CE00121B86804F074
:1044600047FCB861B86909F001FD78617B69232BCD
:1044700004DD0B49F86805F0F7FD0BE0094B1B68FC
:104480007A6911461846FFF79CF87A690649F86878
:1044900005F0EAFD2037BD4680BD00BF5C1C010869
:1044A000801C010808000020A41C010880B588B009
:1044B00000AFF860B9607A60B86804F04FFC03465A
:1044C000FB61FB69012B04D01249F86805F0CCFDB3
:1044D0001CE00121B86804F00BFCB861B86909F070
:1044E000C5FC78617B69072B04DD0B49F86805F092
:1044F000BBFD0BE0094B1B687A6911461846FFF7B4
:104500009EF87A690649F86805F0AEFD2037BD4689
:1045100080BD00BFC01C0108E41C01080800002089
:10452000041D010880B584B000AFF860B9607A60FE
:10453000044B1B681846FFF767F800BF1037BD46ED
:1045400080BD00BF0800002080B584B000AFF860D7
:10455000B9607A60044B1B681846FFF793F800BFF8
:104560001037BD4680BD00BF0800002080B598B060
:1045700006AFF860B9607A60B86804F0EFFB0346F4
:104580007B647B6C062B04D06049F86805F06CFDF9
:10459000B8E00121B86804F0ABFB0346184609F007
:1045A00065FC03463B643B6C002B03D03B6CB3F5CE
:1045B0007A7F04D95649F86805F056FDA2E0022139
:1045C000B86804F095FB0346184609F04FFC034613
:1045D000FB63FB6B002B02D0FB6B242B04D94D49F2
:1045E000F86805F041FD8DE00321B86804F080FB18
:1045F0000346184609F03AFC0346BB63BB6B642BC9
:1046000004D94549F86805F02FFD7BE00421B8681E
:1046100004F06EFB0346184609F028FC03467B6352
:104620007B6B002B04D13D49F86805F01DFD69E066
:104630000521B86804F05CFB0346184609F016FC37
:1046400003463B633B6B002B04D13549F86805F00A
:104650000BFD57E00621B86804F04AFB03461846F4
:1046600009F004FC0346FB62FB6A002B04D12D49D0
:10467000F86805F0F9FC45E07A6B3B6B1A44FB6A7D
:1046800013443A6C02FB03F3274AA2FB03239B0C5F
:10469000BB62BB6AB3F5006F04D92449F86805F022
:1046A000E3FC2FE03B6C9BB23B82FB6BDBB2BB7449
:1046B000BB6BDBB2FB747B6B7B613B6BBB61FB6AEF
:1046C000FB61BB6A3B621A4A3B6CB2FBF3F37B6251
:1046D000184B1B6807F1100211461846FFF723F824
:1046E0007B6A0593BB6A0493FB6A03933B6B02935B
:1046F0007B6B0193BB6B0093FB6B3A6C0E49F868C4
:1047000005F0B2FC4837BD4680BD00BF201D010842
:10471000801D0108A81D0108C81D0108E81D010829
:104720000C1E0108341E010883DE1B43581E0108BD
:1047300040420F0008000020801E0108F0B591B033
:1047400006AFF860B9607A60114B1B6807F1100280
:1047500011461846FFF725F83B8A1E46BB7C9C464F
:10476000FB7C1D467B69BA69F969386A7C6A0594E5
:1047700004900391029201930095634632460549E5
:10478000F86805F071FC00BF2C37BD46F0BD00BFD6
:1047900008000020041F010880B584B000AFF86055
:1047A000B9607A600A4B1B681846FFF70FF803469A
:1047B000002B04D00749F86805F056FC03E00649D1
:1047C000F86805F051FC00BF1037BD4680BD00BF42
:1047D000080000207C1F01089C1F010880B400AF66
:1047E000024B1846BD465DF8047B70476023010804
:1047F00080B400AF21231846BD465DF8047B7047A6
:1048000080B483B000AF78607B68DB6903F020037D
:10481000202B01D1012300E0002318460C37BD46B0
:104820005DF8047B704780B483B000AF78607B682C
:104830005B6ADBB218460C37BD465DF8047B7047F7
:1048400080B500AF4FF480720A490B4805F072FF43
:104850004FF4006209490A4805F06CFF084B064A0C
:104860000849094805F0C5FC074805F0DEFC00BF13
:1048700080BD00BFB046002088460020B047002021
:104880009C4600200014014078460020B0B588B056
:1048900000AF154B3C1D1D460FCD0FC495E807001A
:1048A00084E80700FFF79AFF0346BB61FFF7A0FF0C
:1048B0000346BB833B1D184604F015F803460B4A1C
:1048C00013600A4B1B68002B05D10121084801F039
:1048D00027F8012304E0054B1B68064A1A600023F1
:1048E00018462037BD46B0BDBC1F0108B04F0020A0
:1048F00078260108F948000880B582B000AF7860DA
:104900000B46FB70FB781946034805F0F5FC00BF29
:104910000837BD4680BD00BF7846002080B584B012
:1049200002AF786039607B68002B03D10021154805
:1049300000F0F6FF78683B68DA683B681B69009313
:104940001346114A114906F07BF87B6820337A68D8
:104950000921184606F0D6F83B685A687B68DA6188
:104960003B689A687B689A613B681A687B685A6101
:104970007B682033184606F0FDF800BF0837BD46B7
:1049800080BD00BF78260108494A0008154A000882
:1049900080B588B002AFFFF753FF022300930223D4
:1049A00004220D490D4805F06CFDFFF76FFF0C4B1D
:1049B0007B600C4B1B68BB600B4BFB600B4B3B6184
:1049C000064B7B613B1D19460948FFF7A7FF00BF57
:1049D0001837BD4680BD00BF584600205C46002009
:1049E000494A0008B04F0020784600205446002075
:1049F0002446002080B582B000AF0346FB71FB79EE
:104A00001946034806F036F800BF0837BD4680BD9A
:104A10002446002080B582B000AF786039607B68A2
:104A2000002B03D10721074800F07AFF7B68203371
:104A30000A220A21184606F087F800BF0837BD464B
:104A400080BD00BF7826010880B582B000AF7860D5
:104A500039607B68002B03D103210D4800F060FF13
:104A60003B68002B03D10421094800F059FF3B6843
:104A70001B88092B06D1074B1B68184603F0E5FF7E
:104A8000012300E0022318460837BD4680BD00BF61
:104A900078260108B04F002080B582B000AF0B48E7
:104AA000FFF7AEFE0346002B0BD00848FFF7BBFE16
:104AB0000346FB71064B1B68FA791146184603F052
:104AC000A1FF00BF0837BD4680BD00BF00140140F4
:104AD000B04F002080B500AFFFF7DEFF024805F0C1
:104AE000A0FC00BF80BD00BF7846002080B586B026
:104AF00002AF78603960114BFB6031230093104B9B
:104B0000FA681049104805F057FC01F0EFFF7B6888
:104B1000012283F83020786800F00EFC786800F0FD
:104B2000EFFB786800F0FDFA7B682033184606F04A
:104B300021F800BF1037BD4680BD00BFD81F010857
:104B4000E01F0108182001087846002080B584B0D5
:104B500000AF786039607B685B69FB607B685B698C
:104B60003968786898470346FB72FB7A002B08D1B6
:104B7000FB680649786898477B685B6904497868F0
:104B8000984700BF1037BD4680BD00BFA026010872
:104B90008C26010880B586B002AF786039607B68EA
:104BA000002B03D10021234800F0BAFE78683B684F
:104BB0005A683B689B68009313461F4A1F4905F0DB
:104BC0003FFF7B6820337A680A21184605F09AFF78
:104BD0003B681A687B685A617B68002283F8302042
:104BE0007B68002283F844207B68002283F84720FA
:104BF0007B68002283F848200023FB600EE03A68BF
:104C0000FB6802339B0013445A687968FB680C33D5
:104C10009B000B445A60FB680133FB60FB68032B6D
:104C2000EDD97B682033184605F0A4FF00BF10378C
:104C3000BD4680BD802601084D4B0008ED4A0008A6
:104C4000B0B58AB002AF12230093022324220B498D
:104C50000B4805F016FC0B4B3C1D1D460FCD0FC439
:104C600095E8070084E807003B1D19460648FFF752
:104C700091FF00BF2037BD46B0BD00BF18580020CF
:104C80003C5800202C200108B457002080B586B085
:104C900002AF786039603B681B88012B02D00B2B78
:104CA00018D04BE0284BFB606C230093274BFA682D
:104CB0002749284805F080FB7B682033184605F01B
:104CC00059FF786800F01CFB786800F02AFA7B68CE
:104CD00001229A613B689B78042B2DD17B6893F865
:104CE0003030002B09D10121786800F03AFD786856
:104CF00000F022FB786800F003FB7B6893F84630F5
:104D0000184600F0E3FD03467B817B68B3F94A3027
:104D1000B7F90A209A4203DD7B680F4A5A6102E024
:104D20007B680E4A5A617B682033642264211846EE
:104D300005F00AFF002302E0022300E001231846E9
:104D40001037BD4680BD00BFD81F0108E01F010815
:104D50004820010878460020614D0008114E0008E7
:104D600080B586B002AF786039603B681B880B2B3A
:104D700032D00B2B3BDC012B02D00A2B16D036E0B5
:104D80001D4BBB60952300931C4BBA681C491D4802
:104D900005F012FB7B680022DA610021786800F0E0
:104DA0001BFA786800F05CF9012321E07B6893F836
:104DB0004630184600F08AFD0346FB817B68B3F954
:104DC0004A30B7F90E209A4201DD012310E07B68DA
:104DD0000D4A5A6100230BE03B689B78052B04D1F8
:104DE0007B680A4A5A61002302E0022300E00223A2
:104DF00018461037BD4680BDD81F0108E01F0108C6
:104E00008420010878460020114E00088D4C0008CF
:104E100080B586B002AF786039603B681B880B2B89
:104E200046D00B2B4FDC012B02D00A2B15D04AE0C9
:104E3000274BBB60BA230093264BBA682649274804
:104E400005F0BAFA7B680022DA61786800F058FA57
:104E5000786800F066F9012336E07B6893F8463005
:104E6000184600F033FD0346FB817B68B3F94A30F6
:104E7000B7F90E209A4204DD7B68194A5A61002373
:104E800022E07B68DB695A1C7B68DA617B68DB693E
:104E90001D2B08D87B68B3F94A301A46B7F90E3093
:104EA000D31A0A2B04DD7B680E4A5A6100230BE0FB
:104EB0003B689B78052B04D17B680B4A5A61002321
:104EC00002E0022300E0022318461037BD4680BDF1
:104ED000D81F0108E01F0108C02001087846002003
:104EE000614D0008ED4E00088D4C000880B586B07D
:104EF00002AF786039603B681B880B2B2ED00B2BE0
:104F000037DC012B02D00A2B12D032E01B4BBB60E6
:104F1000E02300931A4BBA681A491B4805F04CFA73
:104F20007B680022DA61786800F0CDF8012321E087
:104F30007B6893F84630184600F0C8FC0346FB81B6
:104F40007B68B3F94A30B7F90E209A4201DA01239F
:104F500010E07B680D4A5A6100230BE03B689B78A8
:104F6000052B04D17B680A4A5A61002302E0022320
:104F700000E0022318461037BD4680BDD81F010847
:104F8000E01F01080421010878460020954F000821
:104F90008D4C000880B586B002AF786039603B6800
:104FA0001B880B2B3DD00B2B46DC012B02D00A2B90
:104FB00013D041E0234BBB604FF481730093224B2D
:104FC000BA682249224805F0F7F9786800F098F9A4
:104FD000786800F0A6F801232FE07B6893F846304C
:104FE000184600F073FC0346FB817B68B3F94A3036
:104FF000B7F90E209A4204DA7B68164A5A610023F8
:105000001BE07B68DB695A1C7B68DA617B68DB69C3
:105010001D2B04D97B68104A5A6100230DE001233F
:105020000BE03B689B78052B04D17B680B4A5A61E7
:10503000002302E0022300E0022318461037BD4699
:1050400080BD00BFD81F0108E01F010848210108EA
:1050500078460020ED4E0008614D00088D4C000898
:1050600080B584B000AF78607B6893F84730BB733D
:105070000023FB731FE0BA7BFB7B42FA03F303F0D0
:105080000103002B0AD0FB7B7A680C339B0013448E
:105090005B680121184602F0FBFE09E0FB7B7A68A1
:1050A0000C339B0013445B680021184602F0F0FEAD
:1050B000FB7B0133FB73FB7B032BDCD900BF00BF01
:1050C0001037BD4680BD80B584B000AF78607B6886
:1050D00093F84930BB737B6893F848307B730023A7
:1050E000FB7316E07A7BFB7B42FA03F303F00103C8
:1050F000002B07D0FB7BBA7B92B21146184600F01A
:1051000053FC03E0FB7B184600F090FCFB7B013373
:10511000FB73FB7B032BE5D900BF00BF1037BD46F7
:1051200080BD80B584B000AF78600023FB7306E0DB
:10513000FB7B184600F07AFCFB7B0133FB73FB7BA7
:10514000032BF5D900BF00BF1037BD4680BD80B42A
:1051500083B000AF78607B68B3F84C3018460C37EA
:10516000BD465DF8047B704780B588B000AF7860BD
:1051700007F10C0300221A605A609A60DA601A8202
:105180000B23BB810423BB737B6807F10C02114620
:10519000184605F099FC002318462037BD4680BD0F
:1051A00080B588B000AF786007F10C0300221A6068
:1051B0005A609A60DA601A820B23BB810523BB73A5
:1051C0007B6807F10C021146184605F07DFC0023B0
:1051D00018462037BD4680BD2DE9F04F8DB000AF99
:1051E000F861B961FB6993F8473087F82B30FB69A8
:1051F000B3F84C303B850023FB6278E097F82B2016
:10520000FB6A42FA03F303F00103002B6CD0FA6946
:10521000FB6A0C339B0013445B689B7E87F8273046
:1052200097F82730DBB203F00103002B08D1FA69AD
:10523000FB6A0C339B0013445B68184602F08DFE3A
:10524000FA69FB6A0C339B0013445B689B7E87F80A
:105250002730FA69FB6A0C339B0013445B687B6060
:10526000BB69DEB23B8D00229A46934652465B46AE
:105270004FF000004FF00001590141EAD2615001A6
:1052800002460B46B2EB0A0463EB0B054FF000023B
:105290004FF000036B0243EAD453620214461D46EA
:1052A00014EB0A0845EB0B094FF000024FF0000326
:1052B0004FEA891343EA98634FEA8812B2EB080178
:1052C000B96063EB0902FA60D7E90201024612EB0A
:1052D0000A023A610A4642EB0B027A61D7E90423DB
:1052E0003146786802F018FFFB6A0133FB62FB6A03
:1052F000032B83D900BF00BF3437BD46BDE8F08F14
:1053000080B584B000AF78600023FB600CE07A6861
:10531000FB680C339B0013445B680021184602F0C5
:10532000B7FDFB680133FB60FB68032BEFD900BFBF
:1053300000BF1037BD4680BD80B584B000AF786037
:105340000023FB600BE07A68FB680C339B0013447E
:105350005B68184602F001FEFB680133FB60FB68E6
:10536000032BF0D900BF00BF1037BD4680BD80B50C
:1053700084B000AF786039603B68032B01D9062305
:1053800011E07A683B680C339B0013445B68184655
:1053900002F0E3FD0346FB7397F90F30002B01D0B9
:1053A000012300E0002318461037BD4680BD80B5BC
:1053B00086B000AFF860B9601346FB71BB68032B81
:1053C00001D9062313E0FA68BB680C339B00134431
:1053D0005B68FA791146184602F05AFD0346FB75E0
:1053E00097F91730002B01D0012300E00023184665
:1053F0001837BD4680BD000080B483B000AF786030
:105400007B685B69054A93420CBF01230023DBB232
:1054100018460C37BD465DF8047B70478D4C00087C
:1054200080B483B000AF78600B46FB70FB78032B31
:1054300001D906230FE07B6893F847305AB2FB7816
:10544000012101FA03F35BB213435BB2DAB27B686A
:1054500083F84720002318460C37BD465DF8047BCF
:10546000704780B483B000AF78600B46FB70FB7868
:10547000032B01D9062311E07B6893F847305AB219
:10548000FB78012101FA03F35BB2DB435BB213400B
:105490005BB2DAB27B6883F84720002318460C37EA
:1054A000BD465DF8047B704780B483B000AF786080
:1054B0007B6893F8473018460C37BD465DF8047B8F
:1054C000704780B483B000AF78600B467B807B88E8
:1054D000B3F5FA7F04D37B8840F6B832934201D902
:1054E000062304E07B687A88A3F84C200023184642
:1054F0000C37BD465DF8047B704780B483B000AFC5
:1055000078600B46FB70FB78642B01D9062304E01E
:105510007B68FA7883F84920002318460C37BD468B
:105520005DF8047B704780B483B000AF78607B681F
:1055300093F8493018460C37BD465DF8047B704738
:1055400080B483B000AF78600B46FB70FB78032B10
:1055500001D906230FE07B6893F848305AB2FB78F4
:10556000012101FA03F35BB213435BB2DAB27B6849
:1055700083F84820002318460C37BD465DF8047BAD
:10558000704780B483B000AF78600B46FB70FB7847
:10559000032B01D9062311E07B6893F848305AB2F7
:1055A000FB78012101FA03F35BB2DB435BB21340EA
:1055B0005BB2DAB27B6883F84820002318460C37C8
:1055C000BD465DF8047B704780B483B000AF78605F
:1055D0007B6893F8483018460C37BD465DF8047B6D
:1055E000704780B483B000AF78600B46FB70FB78E7
:1055F000072B01D9062304E07B68FA7883F846205C
:10560000002318460C37BD465DF8047B704780B414
:1056100083B000AF78600B467B807B687A88A3F804
:105620004A2000BF0C37BD465DF8047B704780B44C
:1056300083B000AF78607B68B3F94A3018460C3706
:10564000BD465DF8047B704780B483B000AF7860DE
:105650007B6893F8463018460C37BD465DF8047BEE
:1056600070472DE9F04F8BB000AFF861B9617A61F6
:105670007B82BB69032B01D906236DE0FA69BB6904
:105680000C339B0013445B689B7E87F8273097F8A8
:10569000273003F00103002B0DD0FA69BB690C33EE
:1056A0009B0013445B68184602F057FC0346002B2E
:1056B00001D0012350E0FA69BB690C339B0013440D
:1056C0005E687B695FFA83FC7B8A00229A46934678
:1056D00052465B464FF000004FF00001590141EA8D
:1056E000D261500102460B46B2EB0A0463EB0B0594
:1056F0004FF000024FF000036B0243EAD453620202
:1057000014461D4614EB0A0845EB0B094FF0000246
:105710004FF000034FEA891343EA98634FEA881277
:10572000B2EB0801396063EB09037B60D7E9001233
:105730000B4613EB0A03BB60134643EB0B03FB6002
:10574000D7E902236146304602F0E6FC0346002B0F
:1057500001D0012300E0002318462C37BD46BDE8E8
:10576000F08F80B582B000AF786039603B68002B65
:1057700006D001F0BBF97B68012283F8302005E0F8
:1057800001F0C0F97B68002283F8302000BF0837A1
:10579000BD4680BD80B483B000AF78607B6893F86D
:1057A0003030002B14BF01230023DBB218460C3726
:1057B000BD465DF8047B704780B582B000AF78606D
:1057C00039607B6814330A220A21184605F0BCF9B7
:1057D00000BF0837BD4680BD80B584B002AF786099
:1057E00039607B68002B03D100210E4800F098F847
:1057F00078683B685A683B689B68009313460A4A7E
:105800000A4905F01DF97B6814337A680D211846A2
:1058100005F078F93B681A687B685A6200BF083760
:10582000BD4680BDB426010875580008B957000868
:1058300080B586B002AF02230093042308220949F1
:10584000094804F01EFE094A3B1D07CA83E8070009
:105850003B1D19460648FFF7BFFF00BF1037BD4686
:1058600080BD00BF945800209C580020882101086A
:105870005858002090B585B000AF786039603B681B
:105880001B880C2B02D00D2B17D01AE00023FB73C2
:105890000EE0FB7BFC7B184600F04CFA03461946F1
:1058A0007B6804F1140223F81210FB7B0133FB73B5
:1058B000FB7B072BEDD9012304E000F02DFA012337
:1058C00000E0022318461437BD4690BD80B483B073
:1058D00000AF7860054A7B68143332F913301846FC
:1058E0000C37BD465DF8047B704700BF5858002058
:1058F00080B400AF054B1B68044A43F002031360F9
:1059000000BFBD465DF8047B704700BF10E000E0BB
:1059100080B400AF62B600BFBD465DF8047B70473F
:1059200080B483B000AF7860396072B600BF0C37C6
:10593000BD465DF8047B704780B483B000AF7860EB
:1059400039607B683A685A6300BF0C37BD465DF822
:10595000047B704780B483B000AF786039607B68A7
:105960003A689A6300BF0C37BD465DF8047B704708
:1059700080B483B000AF786039607B683A68DA63DE
:1059800000BF0C37BD465DF8047B704780B483B020
:1059900000AF786039607B683A681A6400BF0C37E2
:1059A000BD465DF8047B704780B584B000AF786079
:1059B0000B467B807B88642B01D964237B807B88AA
:1059C0001A465201D21A920013449B00FB817B6855
:1059D000032B23D801A252F823F000BFED59000891
:1059E000F9590008055A0008115A0008FB891946A0
:1059F0000D48FFF7A1FF12E0FB8919460A48FFF79F
:105A0000A9FF0CE0FB8919460748FFF7B1FF06E044
:105A1000FB8919460448FFF7B9FF00E000BF00BF4B
:105A20001037BD4680BD00BF0008004080B582B081
:105A300000AF78607B68032B1ED801A252F823F0D8
:105A4000515A00085B5A0008655A00086F5A00084E
:105A500000210C48FFF770FF0FE000210948FFF715
:105A600079FF0AE000210748FFF782FF05E00021E7
:105A70000448FFF78BFF00E000BF00BF0837BD46BA
:105A800080BD00BF0008004080B483B000AF7860E4
:105A90007B681B6843F040027B681A6000BF0C37CC
:105AA000BD465DF8047B704780B483B000AF78607A
:105AB0007B681B6823F040027B681A6000BF0C37CC
:105AC000BD465DF8047B704780B483B000AF78605A
:105AD00039607B681B6823F001023B681A437B68CE
